{
  "contractName": "DAOUpgradeable",
  "abi": [
    {
      "inputs": [],
      "name": "AccessControlBadConfirmation",
      "type": "error"
    },
    {
      "inputs": [
        {
          "internalType": "address",
          "name": "account",
          "type": "address"
        },
        {
          "internalType": "bytes32",
          "name": "neededRole",
          "type": "bytes32"
        }
      ],
      "name": "AccessControlUnauthorizedAccount",
      "type": "error"
    },
    {
      "inputs": [
        {
          "internalType": "address",
          "name": "target",
          "type": "address"
        }
      ],
      "name": "AddressEmptyCode",
      "type": "error"
    },
    {
      "inputs": [
        {
          "internalType": "address",
          "name": "implementation",
          "type": "address"
        }
      ],
      "name": "ERC1967InvalidImplementation",
      "type": "error"
    },
    {
      "inputs": [],
      "name": "ERC1967NonPayable",
      "type": "error"
    },
    {
      "inputs": [],
      "name": "FailedInnerCall",
      "type": "error"
    },
    {
      "inputs": [],
      "name": "InvalidInitialization",
      "type": "error"
    },
    {
      "inputs": [],
      "name": "NotInitializing",
      "type": "error"
    },
    {
      "inputs": [],
      "name": "UUPSUnauthorizedCallContext",
      "type": "error"
    },
    {
      "inputs": [
        {
          "internalType": "bytes32",
          "name": "slot",
          "type": "bytes32"
        }
      ],
      "name": "UUPSUnsupportedProxiableUUID",
      "type": "error"
    },
    {
      "anonymous": false,
      "inputs": [
        {
          "indexed": false,
          "internalType": "uint64",
          "name": "version",
          "type": "uint64"
        }
      ],
      "name": "Initialized",
      "type": "event"
    },
    {
      "anonymous": false,
      "inputs": [
        {
          "indexed": true,
          "internalType": "bytes32",
          "name": "role",
          "type": "bytes32"
        },
        {
          "indexed": true,
          "internalType": "bytes32",
          "name": "previousAdminRole",
          "type": "bytes32"
        },
        {
          "indexed": true,
          "internalType": "bytes32",
          "name": "newAdminRole",
          "type": "bytes32"
        }
      ],
      "name": "RoleAdminChanged",
      "type": "event"
    },
    {
      "anonymous": false,
      "inputs": [
        {
          "indexed": true,
          "internalType": "bytes32",
          "name": "role",
          "type": "bytes32"
        },
        {
          "indexed": true,
          "internalType": "address",
          "name": "account",
          "type": "address"
        },
        {
          "indexed": true,
          "internalType": "address",
          "name": "sender",
          "type": "address"
        }
      ],
      "name": "RoleGranted",
      "type": "event"
    },
    {
      "anonymous": false,
      "inputs": [
        {
          "indexed": true,
          "internalType": "bytes32",
          "name": "role",
          "type": "bytes32"
        },
        {
          "indexed": true,
          "internalType": "address",
          "name": "account",
          "type": "address"
        },
        {
          "indexed": true,
          "internalType": "address",
          "name": "sender",
          "type": "address"
        }
      ],
      "name": "RoleRevoked",
      "type": "event"
    },
    {
      "anonymous": false,
      "inputs": [
        {
          "indexed": true,
          "internalType": "address",
          "name": "newImplementation",
          "type": "address"
        }
      ],
      "name": "UpgradeExecuted",
      "type": "event"
    },
    {
      "anonymous": false,
      "inputs": [
        {
          "indexed": true,
          "internalType": "uint256",
          "name": "id",
          "type": "uint256"
        },
        {
          "indexed": false,
          "internalType": "address",
          "name": "implementation",
          "type": "address"
        }
      ],
      "name": "UpgradeProposed",
      "type": "event"
    },
    {
      "anonymous": false,
      "inputs": [
        {
          "indexed": true,
          "internalType": "address",
          "name": "implementation",
          "type": "address"
        }
      ],
      "name": "Upgraded",
      "type": "event"
    },
    {
      "inputs": [],
      "name": "DEFAULT_ADMIN_ROLE",
      "outputs": [
        {
          "internalType": "bytes32",
          "name": "",
          "type": "bytes32"
        }
      ],
      "stateMutability": "view",
      "type": "function",
      "constant": true
    },
    {
      "inputs": [],
      "name": "UPGRADE_INTERFACE_VERSION",
      "outputs": [
        {
          "internalType": "string",
          "name": "",
          "type": "string"
        }
      ],
      "stateMutability": "view",
      "type": "function",
      "constant": true
    },
    {
      "inputs": [
        {
          "internalType": "bytes32",
          "name": "role",
          "type": "bytes32"
        }
      ],
      "name": "getRoleAdmin",
      "outputs": [
        {
          "internalType": "bytes32",
          "name": "",
          "type": "bytes32"
        }
      ],
      "stateMutability": "view",
      "type": "function",
      "constant": true
    },
    {
      "inputs": [
        {
          "internalType": "bytes32",
          "name": "role",
          "type": "bytes32"
        },
        {
          "internalType": "address",
          "name": "account",
          "type": "address"
        }
      ],
      "name": "grantRole",
      "outputs": [],
      "stateMutability": "nonpayable",
      "type": "function"
    },
    {
      "inputs": [
        {
          "internalType": "bytes32",
          "name": "role",
          "type": "bytes32"
        },
        {
          "internalType": "address",
          "name": "account",
          "type": "address"
        }
      ],
      "name": "hasRole",
      "outputs": [
        {
          "internalType": "bool",
          "name": "",
          "type": "bool"
        }
      ],
      "stateMutability": "view",
      "type": "function",
      "constant": true
    },
    {
      "inputs": [],
      "name": "lendingPoolProxy",
      "outputs": [
        {
          "internalType": "address",
          "name": "",
          "type": "address"
        }
      ],
      "stateMutability": "view",
      "type": "function",
      "constant": true
    },
    {
      "inputs": [],
      "name": "proposalCount",
      "outputs": [
        {
          "internalType": "uint256",
          "name": "",
          "type": "uint256"
        }
      ],
      "stateMutability": "view",
      "type": "function",
      "constant": true
    },
    {
      "inputs": [
        {
          "internalType": "uint256",
          "name": "",
          "type": "uint256"
        }
      ],
      "name": "proposals",
      "outputs": [
        {
          "internalType": "address",
          "name": "newImplementation",
          "type": "address"
        },
        {
          "internalType": "uint256",
          "name": "voteCount",
          "type": "uint256"
        },
        {
          "internalType": "bool",
          "name": "executed",
          "type": "bool"
        }
      ],
      "stateMutability": "view",
      "type": "function",
      "constant": true
    },
    {
      "inputs": [],
      "name": "proxiableUUID",
      "outputs": [
        {
          "internalType": "bytes32",
          "name": "",
          "type": "bytes32"
        }
      ],
      "stateMutability": "view",
      "type": "function",
      "constant": true
    },
    {
      "inputs": [
        {
          "internalType": "bytes32",
          "name": "role",
          "type": "bytes32"
        },
        {
          "internalType": "address",
          "name": "callerConfirmation",
          "type": "address"
        }
      ],
      "name": "renounceRole",
      "outputs": [],
      "stateMutability": "nonpayable",
      "type": "function"
    },
    {
      "inputs": [
        {
          "internalType": "bytes32",
          "name": "role",
          "type": "bytes32"
        },
        {
          "internalType": "address",
          "name": "account",
          "type": "address"
        }
      ],
      "name": "revokeRole",
      "outputs": [],
      "stateMutability": "nonpayable",
      "type": "function"
    },
    {
      "inputs": [
        {
          "internalType": "bytes4",
          "name": "interfaceId",
          "type": "bytes4"
        }
      ],
      "name": "supportsInterface",
      "outputs": [
        {
          "internalType": "bool",
          "name": "",
          "type": "bool"
        }
      ],
      "stateMutability": "view",
      "type": "function",
      "constant": true
    },
    {
      "inputs": [
        {
          "internalType": "address",
          "name": "newImplementation",
          "type": "address"
        },
        {
          "internalType": "bytes",
          "name": "data",
          "type": "bytes"
        }
      ],
      "name": "upgradeToAndCall",
      "outputs": [],
      "stateMutability": "payable",
      "type": "function",
      "payable": true
    },
    {
      "inputs": [
        {
          "internalType": "address",
          "name": "_poolProxy",
          "type": "address"
        }
      ],
      "name": "initialize",
      "outputs": [],
      "stateMutability": "nonpayable",
      "type": "function"
    },
    {
      "inputs": [
        {
          "internalType": "address",
          "name": "_newImplementation",
          "type": "address"
        }
      ],
      "name": "proposeUpgrade",
      "outputs": [],
      "stateMutability": "nonpayable",
      "type": "function"
    },
    {
      "inputs": [
        {
          "internalType": "uint256",
          "name": "_proposalId",
          "type": "uint256"
        }
      ],
      "name": "executeUpgrade",
      "outputs": [],
      "stateMutability": "nonpayable",
      "type": "function"
    }
  ],
  "bytecode": "0x60a06040523073ffffffffffffffffffffffffffffffffffffffff1660809073ffffffffffffffffffffffffffffffffffffffff16815250348015610042575f80fd5b50608051611c2e6100695f395f8181610dc801528181610e1d0152610fdc0152611c2e5ff3fe6080604052600436106100f2575f3560e01c8063a217fddf11610089578063c915fc9311610058578063c915fc9314610322578063d547741f1461034a578063da35c66414610372578063e51be0b81461039c576100f2565b8063a217fddf1461027e578063ad3cb1cc146102a8578063b4ce5920146102d2578063c4d66de8146102fa576100f2565b806336568abe116100c557806336568abe146101d45780634f1ef286146101fc57806352d1902d1461021857806391d1485414610242576100f2565b8063013cf08b146100f657806301ffc9a714610134578063248a9ca3146101705780632f2ff15d146101ac575b5f80fd5b348015610101575f80fd5b5061011c600480360381019061011791906114b3565b6103c6565b60405161012b93929190611546565b60405180910390f35b34801561013f575f80fd5b5061015a600480360381019061015591906115d0565b610417565b60405161016791906115fb565b60405180910390f35b34801561017b575f80fd5b5061019660048036038101906101919190611647565b610490565b6040516101a39190611681565b60405180910390f35b3480156101b7575f80fd5b506101d260048036038101906101cd91906116c4565b6104ba565b005b3480156101df575f80fd5b506101fa60048036038101906101f591906116c4565b6104dc565b005b6102166004803603810190610211919061183e565b610557565b005b348015610223575f80fd5b5061022c610576565b6040516102399190611681565b60405180910390f35b34801561024d575f80fd5b50610268600480360381019061026391906116c4565b6105a7565b60405161027591906115fb565b60405180910390f35b348015610289575f80fd5b50610292610618565b60405161029f9190611681565b60405180910390f35b3480156102b3575f80fd5b506102bc61061e565b6040516102c99190611912565b60405180910390f35b3480156102dd575f80fd5b506102f860048036038101906102f391906114b3565b610657565b005b348015610305575f80fd5b50610320600480360381019061031b9190611932565b6107f5565b005b34801561032d575f80fd5b5061034860048036038101906103439190611932565b6109c9565b005b348015610355575f80fd5b50610370600480360381019061036b91906116c4565b610ae0565b005b34801561037d575f80fd5b50610386610b02565b604051610393919061195d565b60405180910390f35b3480156103a7575f80fd5b506103b0610b08565b6040516103bd9190611976565b60405180910390f35b6001602052805f5260405f205f91509050805f015f9054906101000a900473ffffffffffffffffffffffffffffffffffffffff1690806001015490806002015f9054906101000a900460ff16905083565b5f7f7965db0b000000000000000000000000000000000000000000000000000000007bffffffffffffffffffffffffffffffffffffffffffffffffffffffff1916827bffffffffffffffffffffffffffffffffffffffffffffffffffffffff19161480610489575061048882610b2b565b5b9050919050565b5f8061049a610b94565b9050805f015f8481526020019081526020015f2060010154915050919050565b6104c382610490565b6104cc81610bbb565b6104d68383610bcf565b50505050565b6104e4610cc7565b73ffffffffffffffffffffffffffffffffffffffff168173ffffffffffffffffffffffffffffffffffffffff1614610548576040517f6697b23200000000000000000000000000000000000000000000000000000000815260040160405180910390fd5b6105528282610cce565b505050565b61055f610dc6565b61056882610eac565b6105728282610ebc565b5050565b5f61057f610fda565b7f360894a13ba1a3210667c828492db98dca3e2076cc3735a920a3ca505d382bbc5f1b905090565b5f806105b1610b94565b9050805f015f8581526020019081526020015f205f015f8473ffffffffffffffffffffffffffffffffffffffff1673ffffffffffffffffffffffffffffffffffffffff1681526020019081526020015f205f9054906101000a900460ff1691505092915050565b5f801b81565b6040518060400160405280600581526020017f352e302e3000000000000000000000000000000000000000000000000000000081525081565b5f801b61066381610bbb565b5f60015f8481526020019081526020015f209050806002015f9054906101000a900460ff16156106c8576040517f08c379a00000000000000000000000000000000000000000000000000000000081526004016106bf906119d9565b60405180910390fd5b6001816002015f6101000a81548160ff0219169083151502179055505f8054906101000a900473ffffffffffffffffffffffffffffffffffffffff1673ffffffffffffffffffffffffffffffffffffffff16634f1ef286825f015f9054906101000a900473ffffffffffffffffffffffffffffffffffffffff166040518263ffffffff1660e01b815260040161075e9190611a2a565b5f604051808303815f87803b158015610775575f80fd5b505af1158015610787573d5f803e3d5ffd5b50505050805f015f9054906101000a900473ffffffffffffffffffffffffffffffffffffffff1673ffffffffffffffffffffffffffffffffffffffff167ffd5a9ae7c73c11fde86dd61704e937a04c99e7eef668050f685aabc5d8a6b2e460405160405180910390a2505050565b5f6107fe611061565b90505f815f0160089054906101000a900460ff161590505f825f015f9054906101000a900467ffffffffffffffff1690505f808267ffffffffffffffff161480156108465750825b90505f60018367ffffffffffffffff1614801561087957505f3073ffffffffffffffffffffffffffffffffffffffff163b145b905081158015610887575080155b156108be576040517ff92ee8a900000000000000000000000000000000000000000000000000000000815260040160405180910390fd5b6001855f015f6101000a81548167ffffffffffffffff021916908367ffffffffffffffff160217905550831561090b576001855f0160086101000a81548160ff0219169083151502179055505b610913611088565b61091b611092565b6109275f801b33610bcf565b50855f806101000a81548173ffffffffffffffffffffffffffffffffffffffff021916908373ffffffffffffffffffffffffffffffffffffffff16021790555083156109c1575f855f0160086101000a81548160ff0219169083151502179055507fc7f505b2f371ae2175ee4913f4499e1f2633a7b5936321eed1cdaeb6115181d260016040516109b89190611aab565b60405180910390a15b505050505050565b5f801b6109d581610bbb565b60025f8154809291906109e790611af1565b919050555060405180606001604052808373ffffffffffffffffffffffffffffffffffffffff1681526020015f81526020015f151581525060015f60025481526020019081526020015f205f820151815f015f6101000a81548173ffffffffffffffffffffffffffffffffffffffff021916908373ffffffffffffffffffffffffffffffffffffffff160217905550602082015181600101556040820151816002015f6101000a81548160ff0219169083151502179055509050506002547f693378ef1892be5859db49de5237e786b7547a3ba400eb863cd6fbd3c16262b883604051610ad49190611976565b60405180910390a25050565b610ae982610490565b610af281610bbb565b610afc8383610cce565b50505050565b60025481565b5f8054906101000a900473ffffffffffffffffffffffffffffffffffffffff1681565b5f7f01ffc9a7000000000000000000000000000000000000000000000000000000007bffffffffffffffffffffffffffffffffffffffffffffffffffffffff1916827bffffffffffffffffffffffffffffffffffffffffffffffffffffffff1916149050919050565b5f7f02dd7bc7dec4dceedda775e58dd541e08a116c6c53815c0bd028192f7b626800905090565b610bcc81610bc7610cc7565b61109c565b50565b5f80610bd9610b94565b9050610be584846105a7565b610cbc576001815f015f8681526020019081526020015f205f015f8573ffffffffffffffffffffffffffffffffffffffff1673ffffffffffffffffffffffffffffffffffffffff1681526020019081526020015f205f6101000a81548160ff021916908315150217905550610c58610cc7565b73ffffffffffffffffffffffffffffffffffffffff168373ffffffffffffffffffffffffffffffffffffffff16857f2f8788117e7eff1d82e926ec794901d17c78024a50270940304540a733656f0d60405160405180910390a46001915050610cc1565b5f9150505b92915050565b5f33905090565b5f80610cd8610b94565b9050610ce484846105a7565b15610dbb575f815f015f8681526020019081526020015f205f015f8573ffffffffffffffffffffffffffffffffffffffff1673ffffffffffffffffffffffffffffffffffffffff1681526020019081526020015f205f6101000a81548160ff021916908315150217905550610d57610cc7565b73ffffffffffffffffffffffffffffffffffffffff168373ffffffffffffffffffffffffffffffffffffffff16857ff6391f5c32d9c69d2a47ea670b442974b53935d1edc7fd64eb21e047a839171b60405160405180910390a46001915050610dc0565b5f9150505b92915050565b7f000000000000000000000000000000000000000000000000000000000000000073ffffffffffffffffffffffffffffffffffffffff163073ffffffffffffffffffffffffffffffffffffffff161480610e7357507f000000000000000000000000000000000000000000000000000000000000000073ffffffffffffffffffffffffffffffffffffffff16610e5a6110ed565b73ffffffffffffffffffffffffffffffffffffffff1614155b15610eaa576040517fe07c8dba00000000000000000000000000000000000000000000000000000000815260040160405180910390fd5b565b5f801b610eb881610bbb565b5050565b8173ffffffffffffffffffffffffffffffffffffffff166352d1902d6040518163ffffffff1660e01b8152600401602060405180830381865afa925050508015610f2457506040513d601f19601f82011682018060405250810190610f219190611b4c565b60015b610f6557816040517f4c9c8ce3000000000000000000000000000000000000000000000000000000008152600401610f5c9190611976565b60405180910390fd5b7f360894a13ba1a3210667c828492db98dca3e2076cc3735a920a3ca505d382bbc5f1b8114610fcb57806040517faa1d49a4000000000000000000000000000000000000000000000000000000008152600401610fc29190611681565b60405180910390fd5b610fd58383611140565b505050565b7f000000000000000000000000000000000000000000000000000000000000000073ffffffffffffffffffffffffffffffffffffffff163073ffffffffffffffffffffffffffffffffffffffff161461105f576040517fe07c8dba00000000000000000000000000000000000000000000000000000000815260040160405180910390fd5b565b5f7ff0c57e16840df040f15088dc2f81fe391c3923bec73e23a9662efc9c229c6a00905090565b6110906111b2565b565b61109a6111b2565b565b6110a682826105a7565b6110e95780826040517fe2517d3f0000000000000000000000000000000000000000000000000000000081526004016110e0929190611b77565b60405180910390fd5b5050565b5f6111197f360894a13ba1a3210667c828492db98dca3e2076cc3735a920a3ca505d382bbc5f1b6111f2565b5f015f9054906101000a900473ffffffffffffffffffffffffffffffffffffffff16905090565b611149826111fb565b8173ffffffffffffffffffffffffffffffffffffffff167fbc7cd75a20ee27fd9adebab32041f755214dbc6bffa90cc0225b39da2e5c2d3b60405160405180910390a25f815111156111a55761119f82826112c4565b506111ae565b6111ad611344565b5b5050565b6111ba611380565b6111f0576040517fd7e6bcf800000000000000000000000000000000000000000000000000000000815260040160405180910390fd5b565b5f819050919050565b5f8173ffffffffffffffffffffffffffffffffffffffff163b0361125657806040517f4c9c8ce300000000000000000000000000000000000000000000000000000000815260040161124d9190611976565b60405180910390fd5b806112827f360894a13ba1a3210667c828492db98dca3e2076cc3735a920a3ca505d382bbc5f1b6111f2565b5f015f6101000a81548173ffffffffffffffffffffffffffffffffffffffff021916908373ffffffffffffffffffffffffffffffffffffffff16021790555050565b60605f808473ffffffffffffffffffffffffffffffffffffffff16846040516112ed9190611be2565b5f60405180830381855af49150503d805f8114611325576040519150601f19603f3d011682016040523d82523d5f602084013e61132a565b606091505b509150915061133a85838361139e565b9250505092915050565b5f34111561137e576040517fb398979f00000000000000000000000000000000000000000000000000000000815260040160405180910390fd5b565b5f611389611061565b5f0160089054906101000a900460ff16905090565b6060826113b3576113ae8261142b565b611423565b5f82511480156113d957505f8473ffffffffffffffffffffffffffffffffffffffff163b145b1561141b57836040517f9996b3150000000000000000000000000000000000000000000000000000000081526004016114129190611976565b60405180910390fd5b819050611424565b5b9392505050565b5f8151111561143d5780518082602001fd5b6040517f1425ea4200000000000000000000000000000000000000000000000000000000815260040160405180910390fd5b5f604051905090565b5f80fd5b5f80fd5b5f819050919050565b61149281611480565b811461149c575f80fd5b50565b5f813590506114ad81611489565b92915050565b5f602082840312156114c8576114c7611478565b5b5f6114d58482850161149f565b91505092915050565b5f73ffffffffffffffffffffffffffffffffffffffff82169050919050565b5f611507826114de565b9050919050565b611517816114fd565b82525050565b61152681611480565b82525050565b5f8115159050919050565b6115408161152c565b82525050565b5f6060820190506115595f83018661150e565b611566602083018561151d565b6115736040830184611537565b949350505050565b5f7fffffffff0000000000000000000000000000000000000000000000000000000082169050919050565b6115af8161157b565b81146115b9575f80fd5b50565b5f813590506115ca816115a6565b92915050565b5f602082840312156115e5576115e4611478565b5b5f6115f2848285016115bc565b91505092915050565b5f60208201905061160e5f830184611537565b92915050565b5f819050919050565b61162681611614565b8114611630575f80fd5b50565b5f813590506116418161161d565b92915050565b5f6020828403121561165c5761165b611478565b5b5f61166984828501611633565b91505092915050565b61167b81611614565b82525050565b5f6020820190506116945f830184611672565b92915050565b6116a3816114fd565b81146116ad575f80fd5b50565b5f813590506116be8161169a565b92915050565b5f80604083850312156116da576116d9611478565b5b5f6116e785828601611633565b92505060206116f8858286016116b0565b9150509250929050565b5f80fd5b5f80fd5b5f601f19601f8301169050919050565b7f4e487b71000000000000000000000000000000000000000000000000000000005f52604160045260245ffd5b6117508261170a565b810181811067ffffffffffffffff8211171561176f5761176e61171a565b5b80604052505050565b5f61178161146f565b905061178d8282611747565b919050565b5f67ffffffffffffffff8211156117ac576117ab61171a565b5b6117b58261170a565b9050602081019050919050565b828183375f83830152505050565b5f6117e26117dd84611792565b611778565b9050828152602081018484840111156117fe576117fd611706565b5b6118098482856117c2565b509392505050565b5f82601f83011261182557611824611702565b5b81356118358482602086016117d0565b91505092915050565b5f806040838503121561185457611853611478565b5b5f611861858286016116b0565b925050602083013567ffffffffffffffff8111156118825761188161147c565b5b61188e85828601611811565b9150509250929050565b5f81519050919050565b5f82825260208201905092915050565b5f5b838110156118cf5780820151818401526020810190506118b4565b5f8484015250505050565b5f6118e482611898565b6118ee81856118a2565b93506118fe8185602086016118b2565b6119078161170a565b840191505092915050565b5f6020820190508181035f83015261192a81846118da565b905092915050565b5f6020828403121561194757611946611478565b5b5f611954848285016116b0565b91505092915050565b5f6020820190506119705f83018461151d565b92915050565b5f6020820190506119895f83018461150e565b92915050565b7f416c7265616479206578656375746564000000000000000000000000000000005f82015250565b5f6119c36010836118a2565b91506119ce8261198f565b602082019050919050565b5f6020820190508181035f8301526119f0816119b7565b9050919050565b5f82825260208201905092915050565b50565b5f611a155f836119f7565b9150611a2082611a07565b5f82019050919050565b5f604082019050611a3d5f83018461150e565b8181036020830152611a4e81611a0a565b905092915050565b5f819050919050565b5f67ffffffffffffffff82169050919050565b5f819050919050565b5f611a95611a90611a8b84611a56565b611a72565b611a5f565b9050919050565b611aa581611a7b565b82525050565b5f602082019050611abe5f830184611a9c565b92915050565b7f4e487b71000000000000000000000000000000000000000000000000000000005f52601160045260245ffd5b5f611afb82611480565b91507fffffffffffffffffffffffffffffffffffffffffffffffffffffffffffffffff8203611b2d57611b2c611ac4565b5b600182019050919050565b5f81519050611b468161161d565b92915050565b5f60208284031215611b6157611b60611478565b5b5f611b6e84828501611b38565b91505092915050565b5f604082019050611b8a5f83018561150e565b611b976020830184611672565b9392505050565b5f81519050919050565b5f81905092915050565b5f611bbc82611b9e565b611bc68185611ba8565b9350611bd68185602086016118b2565b80840191505092915050565b5f611bed8284611bb2565b91508190509291505056fea2646970667358221220c33915b9ea6f81d69e2d489cdfc5f413690889be27dd9cd8dff9e80aaa121a7e64736f6c63430008140033",
  "immutableReferences": {
    "636": [
      {
        "length": 32,
        "start": 3528
      },
      {
        "length": 32,
        "start": 3613
      },
      {
        "length": 32,
        "start": 4060
      }
    ]
  },
  "source": "// SPDX-License-Identifier: MIT\npragma solidity ^0.8.20;\n\nimport \"@openzeppelin/contracts-upgradeable/proxy/utils/UUPSUpgradeable.sol\";\nimport \"@openzeppelin/contracts-upgradeable/access/AccessControlUpgradeable.sol\";\n\ninterface ILendingPoolProxy {\n    function upgradeToAndCall(address newImplementation, bytes memory data) external;\n}\n\ncontract DAOUpgradeable is Initializable, UUPSUpgradeable, AccessControlUpgradeable {\n    address public lendingPoolProxy;\n    \n    struct Proposal {\n        address newImplementation;\n        uint256 voteCount;\n        bool executed;\n    }\n\n    mapping(uint256 => Proposal) public proposals;\n    uint256 public proposalCount;\n\n    event UpgradeProposed(uint256 indexed id, address implementation);\n    event UpgradeExecuted(address indexed newImplementation);\n\n    function initialize(address _poolProxy) public initializer {\n        __AccessControl_init();\n        __UUPSUpgradeable_init();\n        _grantRole(DEFAULT_ADMIN_ROLE, msg.sender);\n        lendingPoolProxy = _poolProxy;\n    }\n\n    function _authorizeUpgrade(address newImplementation) internal override onlyRole(DEFAULT_ADMIN_ROLE) {}\n\n    /**\n     * @dev Propose a new logic contract for the LendingPool\n     */\n    function proposeUpgrade(address _newImplementation) external onlyRole(DEFAULT_ADMIN_ROLE) {\n        proposalCount++;\n        proposals[proposalCount] = Proposal(_newImplementation, 0, false);\n        emit UpgradeProposed(proposalCount, _newImplementation);\n    }\n\n    /**\n     * @dev Executes the upgrade on the LendingPool via the DAO\n     */\n    function executeUpgrade(uint256 _proposalId) external onlyRole(DEFAULT_ADMIN_ROLE) {\n        Proposal storage prop = proposals[_proposalId];\n        require(!prop.executed, \"Already executed\");\n        \n        prop.executed = true;\n        \n        // Triggers the UUPS upgrade on the target LendingPool\n        ILendingPoolProxy(lendingPoolProxy).upgradeToAndCall(prop.newImplementation, \"\");\n        \n        emit UpgradeExecuted(prop.newImplementation);\n    }\n}",
  "sourcePath": "D:\\Downloads\\Blockchain\\TY SEM2\\DeFiEnterprise\\blockchain\\contracts\\DAOUpgradeable.sol",
  "compiler": {
    "name": "solc",
    "version": "0.8.20+commit.a1b79de6.Emscripten.clang"
  },
  "schemaVersion": "3.4.16",
  "updatedAt": "2026-03-30T06:25:46.941Z",
  "networkType": "ethereum",
  "devdoc": {
    "errors": {
      "AccessControlBadConfirmation()": [
        {
          "details": "The caller of a function is not the expected one. NOTE: Don't confuse with {AccessControlUnauthorizedAccount}."
        }
      ],
      "AccessControlUnauthorizedAccount(address,bytes32)": [
        {
          "details": "The `account` is missing a role."
        }
      ],
      "AddressEmptyCode(address)": [
        {
          "details": "There's no code at `target` (it is not a contract)."
        }
      ],
      "ERC1967InvalidImplementation(address)": [
        {
          "details": "The `implementation` of the proxy is invalid."
        }
      ],
      "ERC1967NonPayable()": [
        {
          "details": "An upgrade function sees `msg.value > 0` that may be lost."
        }
      ],
      "FailedInnerCall()": [
        {
          "details": "A call to an address target failed. The target may have reverted."
        }
      ],
      "InvalidInitialization()": [
        {
          "details": "The contract is already initialized."
        }
      ],
      "NotInitializing()": [
        {
          "details": "The contract is not initializing."
        }
      ],
      "UUPSUnauthorizedCallContext()": [
        {
          "details": "The call is from an unauthorized context."
        }
      ],
      "UUPSUnsupportedProxiableUUID(bytes32)": [
        {
          "details": "The storage `slot` is unsupported as a UUID."
        }
      ]
    },
    "events": {
      "Initialized(uint64)": {
        "details": "Triggered when the contract has been initialized or reinitialized."
      },
      "RoleAdminChanged(bytes32,bytes32,bytes32)": {
        "details": "Emitted when `newAdminRole` is set as ``role``'s admin role, replacing `previousAdminRole` `DEFAULT_ADMIN_ROLE` is the starting admin for all roles, despite {RoleAdminChanged} not being emitted signaling this."
      },
      "RoleGranted(bytes32,address,address)": {
        "details": "Emitted when `account` is granted `role`. `sender` is the account that originated the contract call, an admin role bearer except when using {AccessControl-_setupRole}."
      },
      "RoleRevoked(bytes32,address,address)": {
        "details": "Emitted when `account` is revoked `role`. `sender` is the account that originated the contract call:   - if using `revokeRole`, it is the admin role bearer   - if using `renounceRole`, it is the role bearer (i.e. `account`)"
      },
      "Upgraded(address)": {
        "details": "Emitted when the implementation is upgraded."
      }
    },
    "kind": "dev",
    "methods": {
      "executeUpgrade(uint256)": {
        "details": "Executes the upgrade on the LendingPool via the DAO"
      },
      "getRoleAdmin(bytes32)": {
        "details": "Returns the admin role that controls `role`. See {grantRole} and {revokeRole}. To change a role's admin, use {_setRoleAdmin}."
      },
      "grantRole(bytes32,address)": {
        "details": "Grants `role` to `account`. If `account` had not been already granted `role`, emits a {RoleGranted} event. Requirements: - the caller must have ``role``'s admin role. May emit a {RoleGranted} event."
      },
      "hasRole(bytes32,address)": {
        "details": "Returns `true` if `account` has been granted `role`."
      },
      "proposeUpgrade(address)": {
        "details": "Propose a new logic contract for the LendingPool"
      },
      "proxiableUUID()": {
        "details": "Implementation of the ERC1822 {proxiableUUID} function. This returns the storage slot used by the implementation. It is used to validate the implementation's compatibility when performing an upgrade. IMPORTANT: A proxy pointing at a proxiable contract should not be considered proxiable itself, because this risks bricking a proxy that upgrades to it, by delegating to itself until out of gas. Thus it is critical that this function revert if invoked through a proxy. This is guaranteed by the `notDelegated` modifier."
      },
      "renounceRole(bytes32,address)": {
        "details": "Revokes `role` from the calling account. Roles are often managed via {grantRole} and {revokeRole}: this function's purpose is to provide a mechanism for accounts to lose their privileges if they are compromised (such as when a trusted device is misplaced). If the calling account had been revoked `role`, emits a {RoleRevoked} event. Requirements: - the caller must be `callerConfirmation`. May emit a {RoleRevoked} event."
      },
      "revokeRole(bytes32,address)": {
        "details": "Revokes `role` from `account`. If `account` had been granted `role`, emits a {RoleRevoked} event. Requirements: - the caller must have ``role``'s admin role. May emit a {RoleRevoked} event."
      },
      "supportsInterface(bytes4)": {
        "details": "See {IERC165-supportsInterface}."
      },
      "upgradeToAndCall(address,bytes)": {
        "custom:oz-upgrades-unsafe-allow-reachable": "delegatecall",
        "details": "Upgrade the implementation of the proxy to `newImplementation`, and subsequently execute the function call encoded in `data`. Calls {_authorizeUpgrade}. Emits an {Upgraded} event."
      }
    },
    "version": 1
  },
  "userdoc": {
    "kind": "user",
    "methods": {},
    "version": 1
  }
}