{
  "contractName": "FlashLoanProtection",
  "abi": [
    {
      "inputs": [
        {
          "internalType": "address",
          "name": "",
          "type": "address"
        }
      ],
      "name": "assetSnapshots",
      "outputs": [
        {
          "internalType": "uint256",
          "name": "price",
          "type": "uint256"
        },
        {
          "internalType": "uint256",
          "name": "blockNumber",
          "type": "uint256"
        }
      ],
      "stateMutability": "view",
      "type": "function",
      "constant": true
    },
    {
      "inputs": [
        {
          "internalType": "address",
          "name": "_asset",
          "type": "address"
        },
        {
          "internalType": "uint256",
          "name": "_newPrice",
          "type": "uint256"
        }
      ],
      "name": "updatePrice",
      "outputs": [],
      "stateMutability": "nonpayable",
      "type": "function"
    },
    {
      "inputs": [
        {
          "internalType": "address",
          "name": "_asset",
          "type": "address"
        }
      ],
      "name": "getSafePrice",
      "outputs": [
        {
          "internalType": "uint256",
          "name": "",
          "type": "uint256"
        }
      ],
      "stateMutability": "view",
      "type": "function",
      "constant": true
    }
  ],
  "bytecode": "0x608060405234801561000f575f80fd5b5061030f8061001d5f395ff3fe608060405234801561000f575f80fd5b506004361061003f575f3560e01c80633c75f44814610043578063457972de14610073578063d217e3841461008f575b5f80fd5b61005d600480360381019061005891906101ee565b6100c0565b60405161006a9190610231565b60405180910390f35b61008d60048036038101906100889190610274565b610107565b005b6100a960048036038101906100a491906101ee565b610171565b6040516100b79291906102b2565b60405180910390f35b5f805f8373ffffffffffffffffffffffffffffffffffffffff1673ffffffffffffffffffffffffffffffffffffffff1681526020019081526020015f205f01549050919050565b6040518060400160405280828152602001438152505f808473ffffffffffffffffffffffffffffffffffffffff1673ffffffffffffffffffffffffffffffffffffffff1681526020019081526020015f205f820151815f0155602082015181600101559050505050565b5f602052805f5260405f205f91509050805f0154908060010154905082565b5f80fd5b5f73ffffffffffffffffffffffffffffffffffffffff82169050919050565b5f6101bd82610194565b9050919050565b6101cd816101b3565b81146101d7575f80fd5b50565b5f813590506101e8816101c4565b92915050565b5f6020828403121561020357610202610190565b5b5f610210848285016101da565b91505092915050565b5f819050919050565b61022b81610219565b82525050565b5f6020820190506102445f830184610222565b92915050565b61025381610219565b811461025d575f80fd5b50565b5f8135905061026e8161024a565b92915050565b5f806040838503121561028a57610289610190565b5b5f610297858286016101da565b92505060206102a885828601610260565b9150509250929050565b5f6040820190506102c55f830185610222565b6102d26020830184610222565b939250505056fea26469706673582212204f3aea223c3c01e29427069f9c2d3e1e4e9ec65d6ad0e48ba691b4366a74364a64736f6c63430008140033",
  "immutableReferences": {},
  "source": "// SPDX-License-Identifier: MIT\npragma solidity ^0.8.20;\n\n/**\n * @title FlashLoanProtection\n * @dev Mitigates flash loan price manipulation using block snapshots.\n */\ncontract FlashLoanProtection {\n    struct PriceSnapshot {\n        uint256 price;\n        uint256 blockNumber;\n    }\n\n    mapping(address => PriceSnapshot) public assetSnapshots;\n\n    // Prevents price updates and trades in the same block\n    modifier antiFlashLoan(address _asset) {\n        require(assetSnapshots[_asset].blockNumber < block.number, \"Flash loan detected: Same block interaction prohibited\");\n        _;\n    }\n\n    function updatePrice(address _asset, uint256 _newPrice) external {\n        assetSnapshots[_asset] = PriceSnapshot({\n            price: _newPrice,\n            blockNumber: block.number\n        });\n    }\n\n    function getSafePrice(address _asset) public view returns (uint256) {\n        return assetSnapshots[_asset].price;\n    }\n}",
  "sourcePath": "D:\\Downloads\\Blockchain\\TY SEM2\\DeFiEnterprise\\blockchain\\contracts\\FlashLoanProtection.sol",
  "compiler": {
    "name": "solc",
    "version": "0.8.20+commit.a1b79de6.Emscripten.clang"
  },
  "schemaVersion": "3.4.16",
  "updatedAt": "2026-03-30T06:25:46.901Z",
  "networkType": "ethereum",
  "devdoc": {
    "details": "Mitigates flash loan price manipulation using block snapshots.",
    "kind": "dev",
    "methods": {},
    "title": "FlashLoanProtection",
    "version": 1
  },
  "userdoc": {
    "kind": "user",
    "methods": {},
    "version": 1
  }
}