{
  "contractName": "LendingPoolUpgradeable",
  "abi": [
    {
      "inputs": [],
      "stateMutability": "nonpayable",
      "type": "constructor"
    },
    {
      "inputs": [],
      "name": "AccessControlBadConfirmation",
      "type": "error"
    },
    {
      "inputs": [
        {
          "internalType": "address",
          "name": "account",
          "type": "address"
        },
        {
          "internalType": "bytes32",
          "name": "neededRole",
          "type": "bytes32"
        }
      ],
      "name": "AccessControlUnauthorizedAccount",
      "type": "error"
    },
    {
      "inputs": [
        {
          "internalType": "address",
          "name": "target",
          "type": "address"
        }
      ],
      "name": "AddressEmptyCode",
      "type": "error"
    },
    {
      "inputs": [
        {
          "internalType": "address",
          "name": "implementation",
          "type": "address"
        }
      ],
      "name": "ERC1967InvalidImplementation",
      "type": "error"
    },
    {
      "inputs": [],
      "name": "ERC1967NonPayable",
      "type": "error"
    },
    {
      "inputs": [],
      "name": "EnforcedPause",
      "type": "error"
    },
    {
      "inputs": [],
      "name": "ExpectedPause",
      "type": "error"
    },
    {
      "inputs": [],
      "name": "FailedInnerCall",
      "type": "error"
    },
    {
      "inputs": [],
      "name": "InvalidInitialization",
      "type": "error"
    },
    {
      "inputs": [],
      "name": "NotInitializing",
      "type": "error"
    },
    {
      "inputs": [],
      "name": "ReentrancyGuardReentrantCall",
      "type": "error"
    },
    {
      "inputs": [],
      "name": "UUPSUnauthorizedCallContext",
      "type": "error"
    },
    {
      "inputs": [
        {
          "internalType": "bytes32",
          "name": "slot",
          "type": "bytes32"
        }
      ],
      "name": "UUPSUnsupportedProxiableUUID",
      "type": "error"
    },
    {
      "anonymous": false,
      "inputs": [
        {
          "indexed": true,
          "internalType": "address",
          "name": "user",
          "type": "address"
        },
        {
          "indexed": false,
          "internalType": "uint256",
          "name": "amount",
          "type": "uint256"
        }
      ],
      "name": "Borrowed",
      "type": "event"
    },
    {
      "anonymous": false,
      "inputs": [
        {
          "indexed": true,
          "internalType": "address",
          "name": "user",
          "type": "address"
        },
        {
          "indexed": false,
          "internalType": "uint256",
          "name": "amount",
          "type": "uint256"
        }
      ],
      "name": "Deposited",
      "type": "event"
    },
    {
      "anonymous": false,
      "inputs": [
        {
          "indexed": false,
          "internalType": "uint64",
          "name": "version",
          "type": "uint64"
        }
      ],
      "name": "Initialized",
      "type": "event"
    },
    {
      "anonymous": false,
      "inputs": [
        {
          "indexed": true,
          "internalType": "address",
          "name": "user",
          "type": "address"
        },
        {
          "indexed": true,
          "internalType": "address",
          "name": "liquidator",
          "type": "address"
        },
        {
          "indexed": false,
          "internalType": "uint256",
          "name": "amountSeized",
          "type": "uint256"
        }
      ],
      "name": "Liquidated",
      "type": "event"
    },
    {
      "anonymous": false,
      "inputs": [
        {
          "indexed": false,
          "internalType": "address",
          "name": "account",
          "type": "address"
        }
      ],
      "name": "Paused",
      "type": "event"
    },
    {
      "anonymous": false,
      "inputs": [
        {
          "indexed": true,
          "internalType": "address",
          "name": "user",
          "type": "address"
        },
        {
          "indexed": false,
          "internalType": "uint256",
          "name": "amount",
          "type": "uint256"
        }
      ],
      "name": "Repaid",
      "type": "event"
    },
    {
      "anonymous": false,
      "inputs": [
        {
          "indexed": true,
          "internalType": "bytes32",
          "name": "role",
          "type": "bytes32"
        },
        {
          "indexed": true,
          "internalType": "bytes32",
          "name": "previousAdminRole",
          "type": "bytes32"
        },
        {
          "indexed": true,
          "internalType": "bytes32",
          "name": "newAdminRole",
          "type": "bytes32"
        }
      ],
      "name": "RoleAdminChanged",
      "type": "event"
    },
    {
      "anonymous": false,
      "inputs": [
        {
          "indexed": true,
          "internalType": "bytes32",
          "name": "role",
          "type": "bytes32"
        },
        {
          "indexed": true,
          "internalType": "address",
          "name": "account",
          "type": "address"
        },
        {
          "indexed": true,
          "internalType": "address",
          "name": "sender",
          "type": "address"
        }
      ],
      "name": "RoleGranted",
      "type": "event"
    },
    {
      "anonymous": false,
      "inputs": [
        {
          "indexed": true,
          "internalType": "bytes32",
          "name": "role",
          "type": "bytes32"
        },
        {
          "indexed": true,
          "internalType": "address",
          "name": "account",
          "type": "address"
        },
        {
          "indexed": true,
          "internalType": "address",
          "name": "sender",
          "type": "address"
        }
      ],
      "name": "RoleRevoked",
      "type": "event"
    },
    {
      "anonymous": false,
      "inputs": [
        {
          "indexed": false,
          "internalType": "address",
          "name": "account",
          "type": "address"
        }
      ],
      "name": "Unpaused",
      "type": "event"
    },
    {
      "anonymous": false,
      "inputs": [
        {
          "indexed": true,
          "internalType": "address",
          "name": "implementation",
          "type": "address"
        }
      ],
      "name": "Upgraded",
      "type": "event"
    },
    {
      "anonymous": false,
      "inputs": [
        {
          "indexed": true,
          "internalType": "address",
          "name": "user",
          "type": "address"
        },
        {
          "indexed": false,
          "internalType": "uint256",
          "name": "amount",
          "type": "uint256"
        }
      ],
      "name": "Withdrawn",
      "type": "event"
    },
    {
      "inputs": [],
      "name": "COLLATERAL_FACTOR",
      "outputs": [
        {
          "internalType": "uint256",
          "name": "",
          "type": "uint256"
        }
      ],
      "stateMutability": "view",
      "type": "function",
      "constant": true
    },
    {
      "inputs": [],
      "name": "DEFAULT_ADMIN_ROLE",
      "outputs": [
        {
          "internalType": "bytes32",
          "name": "",
          "type": "bytes32"
        }
      ],
      "stateMutability": "view",
      "type": "function",
      "constant": true
    },
    {
      "inputs": [],
      "name": "LIQUIDATION_BONUS",
      "outputs": [
        {
          "internalType": "uint256",
          "name": "",
          "type": "uint256"
        }
      ],
      "stateMutability": "view",
      "type": "function",
      "constant": true
    },
    {
      "inputs": [],
      "name": "LIQUIDATION_THRESHOLD",
      "outputs": [
        {
          "internalType": "uint256",
          "name": "",
          "type": "uint256"
        }
      ],
      "stateMutability": "view",
      "type": "function",
      "constant": true
    },
    {
      "inputs": [],
      "name": "LIQUIDATOR_ROLE",
      "outputs": [
        {
          "internalType": "bytes32",
          "name": "",
          "type": "bytes32"
        }
      ],
      "stateMutability": "view",
      "type": "function",
      "constant": true
    },
    {
      "inputs": [],
      "name": "MIN_HEALTH_FACTOR",
      "outputs": [
        {
          "internalType": "uint256",
          "name": "",
          "type": "uint256"
        }
      ],
      "stateMutability": "view",
      "type": "function",
      "constant": true
    },
    {
      "inputs": [],
      "name": "SUPER_ADMIN_ROLE",
      "outputs": [
        {
          "internalType": "bytes32",
          "name": "",
          "type": "bytes32"
        }
      ],
      "stateMutability": "view",
      "type": "function",
      "constant": true
    },
    {
      "inputs": [],
      "name": "UPGRADE_INTERFACE_VERSION",
      "outputs": [
        {
          "internalType": "string",
          "name": "",
          "type": "string"
        }
      ],
      "stateMutability": "view",
      "type": "function",
      "constant": true
    },
    {
      "inputs": [
        {
          "internalType": "address",
          "name": "",
          "type": "address"
        }
      ],
      "name": "blacklisted",
      "outputs": [
        {
          "internalType": "bool",
          "name": "",
          "type": "bool"
        }
      ],
      "stateMutability": "view",
      "type": "function",
      "constant": true
    },
    {
      "inputs": [
        {
          "internalType": "bytes32",
          "name": "role",
          "type": "bytes32"
        }
      ],
      "name": "getRoleAdmin",
      "outputs": [
        {
          "internalType": "bytes32",
          "name": "",
          "type": "bytes32"
        }
      ],
      "stateMutability": "view",
      "type": "function",
      "constant": true
    },
    {
      "inputs": [
        {
          "internalType": "bytes32",
          "name": "role",
          "type": "bytes32"
        },
        {
          "internalType": "address",
          "name": "account",
          "type": "address"
        }
      ],
      "name": "grantRole",
      "outputs": [],
      "stateMutability": "nonpayable",
      "type": "function"
    },
    {
      "inputs": [
        {
          "internalType": "bytes32",
          "name": "role",
          "type": "bytes32"
        },
        {
          "internalType": "address",
          "name": "account",
          "type": "address"
        }
      ],
      "name": "hasRole",
      "outputs": [
        {
          "internalType": "bool",
          "name": "",
          "type": "bool"
        }
      ],
      "stateMutability": "view",
      "type": "function",
      "constant": true
    },
    {
      "inputs": [],
      "name": "paused",
      "outputs": [
        {
          "internalType": "bool",
          "name": "",
          "type": "bool"
        }
      ],
      "stateMutability": "view",
      "type": "function",
      "constant": true
    },
    {
      "inputs": [],
      "name": "proxiableUUID",
      "outputs": [
        {
          "internalType": "bytes32",
          "name": "",
          "type": "bytes32"
        }
      ],
      "stateMutability": "view",
      "type": "function",
      "constant": true
    },
    {
      "inputs": [
        {
          "internalType": "bytes32",
          "name": "role",
          "type": "bytes32"
        },
        {
          "internalType": "address",
          "name": "callerConfirmation",
          "type": "address"
        }
      ],
      "name": "renounceRole",
      "outputs": [],
      "stateMutability": "nonpayable",
      "type": "function"
    },
    {
      "inputs": [
        {
          "internalType": "bytes32",
          "name": "role",
          "type": "bytes32"
        },
        {
          "internalType": "address",
          "name": "account",
          "type": "address"
        }
      ],
      "name": "revokeRole",
      "outputs": [],
      "stateMutability": "nonpayable",
      "type": "function"
    },
    {
      "inputs": [
        {
          "internalType": "bytes4",
          "name": "interfaceId",
          "type": "bytes4"
        }
      ],
      "name": "supportsInterface",
      "outputs": [
        {
          "internalType": "bool",
          "name": "",
          "type": "bool"
        }
      ],
      "stateMutability": "view",
      "type": "function",
      "constant": true
    },
    {
      "inputs": [],
      "name": "totalBorrows",
      "outputs": [
        {
          "internalType": "uint256",
          "name": "",
          "type": "uint256"
        }
      ],
      "stateMutability": "view",
      "type": "function",
      "constant": true
    },
    {
      "inputs": [
        {
          "internalType": "address",
          "name": "newImplementation",
          "type": "address"
        },
        {
          "internalType": "bytes",
          "name": "data",
          "type": "bytes"
        }
      ],
      "name": "upgradeToAndCall",
      "outputs": [],
      "stateMutability": "payable",
      "type": "function",
      "payable": true
    },
    {
      "inputs": [
        {
          "internalType": "address",
          "name": "",
          "type": "address"
        }
      ],
      "name": "userBorrows",
      "outputs": [
        {
          "internalType": "uint256",
          "name": "",
          "type": "uint256"
        }
      ],
      "stateMutability": "view",
      "type": "function",
      "constant": true
    },
    {
      "inputs": [
        {
          "internalType": "address",
          "name": "",
          "type": "address"
        }
      ],
      "name": "userDeposits",
      "outputs": [
        {
          "internalType": "uint256",
          "name": "",
          "type": "uint256"
        }
      ],
      "stateMutability": "view",
      "type": "function",
      "constant": true
    },
    {
      "stateMutability": "payable",
      "type": "receive",
      "payable": true
    },
    {
      "inputs": [
        {
          "internalType": "address",
          "name": "admin",
          "type": "address"
        }
      ],
      "name": "initialize",
      "outputs": [],
      "stateMutability": "nonpayable",
      "type": "function"
    },
    {
      "inputs": [],
      "name": "deposit",
      "outputs": [],
      "stateMutability": "payable",
      "type": "function",
      "payable": true
    },
    {
      "inputs": [
        {
          "internalType": "uint256",
          "name": "_amount",
          "type": "uint256"
        }
      ],
      "name": "withdraw",
      "outputs": [],
      "stateMutability": "nonpayable",
      "type": "function"
    },
    {
      "inputs": [
        {
          "internalType": "uint256",
          "name": "_amount",
          "type": "uint256"
        }
      ],
      "name": "borrow",
      "outputs": [],
      "stateMutability": "nonpayable",
      "type": "function"
    },
    {
      "inputs": [],
      "name": "repay",
      "outputs": [],
      "stateMutability": "payable",
      "type": "function",
      "payable": true
    },
    {
      "inputs": [
        {
          "internalType": "address",
          "name": "_user",
          "type": "address"
        }
      ],
      "name": "liquidate",
      "outputs": [],
      "stateMutability": "payable",
      "type": "function",
      "payable": true
    },
    {
      "inputs": [],
      "name": "getTotalReserves",
      "outputs": [
        {
          "internalType": "uint256",
          "name": "",
          "type": "uint256"
        }
      ],
      "stateMutability": "view",
      "type": "function",
      "constant": true
    },
    {
      "inputs": [],
      "name": "getTotalBorrows",
      "outputs": [
        {
          "internalType": "uint256",
          "name": "",
          "type": "uint256"
        }
      ],
      "stateMutability": "view",
      "type": "function",
      "constant": true
    },
    {
      "inputs": [
        {
          "internalType": "address",
          "name": "_user",
          "type": "address"
        }
      ],
      "name": "getHealthFactor",
      "outputs": [
        {
          "internalType": "uint256",
          "name": "",
          "type": "uint256"
        }
      ],
      "stateMutability": "view",
      "type": "function",
      "constant": true
    },
    {
      "inputs": [
        {
          "internalType": "address",
          "name": "_user",
          "type": "address"
        },
        {
          "internalType": "bool",
          "name": "_status",
          "type": "bool"
        }
      ],
      "name": "setBlacklist",
      "outputs": [],
      "stateMutability": "nonpayable",
      "type": "function"
    },
    {
      "inputs": [],
      "name": "togglePause",
      "outputs": [],
      "stateMutability": "nonpayable",
      "type": "function"
    }
  ],
  "bytecode": "0x60a06040523073ffffffffffffffffffffffffffffffffffffffff1660809073ffffffffffffffffffffffffffffffffffffffff1681525034801562000043575f80fd5b50620000546200005a60201b60201c565b620001c4565b5f6200006b6200015e60201b60201c565b9050805f0160089054906101000a900460ff1615620000b6576040517ff92ee8a900000000000000000000000000000000000000000000000000000000815260040160405180910390fd5b67ffffffffffffffff8016815f015f9054906101000a900467ffffffffffffffff1667ffffffffffffffff16146200015b5767ffffffffffffffff815f015f6101000a81548167ffffffffffffffff021916908367ffffffffffffffff1602179055507fc7f505b2f371ae2175ee4913f4499e1f2633a7b5936321eed1cdaeb6115181d267ffffffffffffffff604051620001529190620001a9565b60405180910390a15b50565b5f7ff0c57e16840df040f15088dc2f81fe391c3923bec73e23a9662efc9c229c6a00905090565b5f67ffffffffffffffff82169050919050565b620001a38162000185565b82525050565b5f602082019050620001be5f83018462000198565b92915050565b60805161335d620001eb5f395f8181611db301528181611e080152611fc7015261335d5ff3fe6080604052600436106101e6575f3560e01c806352d1902d11610101578063c4ae316811610094578063d0e30db011610063578063d0e30db014610687578063d547741f14610691578063dbac26e9146106b9578063fe6bcd7c146106f5576101ed565b8063c4ae3168146105f7578063c4d66de81461060d578063c5ebeaec14610635578063cc484c5c1461065d576101ed565b806391d14854116100d057806391d148541461053d578063a217fddf14610579578063ad3cb1cc146105a3578063b5627e42146105cd576101ed565b806352d1902d146104835780635c975abb146104ad57806377593cc4146104d757806390a8ae9b14610513576101ed565b80632f2ff15d11610179578063402d888311610148578063402d8883146104095780634460bdd61461041357806347bd37181461043d5780634f1ef28614610467576101ed565b80632f2ff15d146103735780632f8655681461039b5780633574d4c4146103b757806336568abe146103e1576101ed565b806317f49e05116101b557806317f49e05146102bb578063242693d3146102e5578063248a9ca31461030f5780632e1a7d4d1461034b576101ed565b806301ffc9a7146101f15780630ba36dcd1461022d578063153b0d1e1461026957806316d8887a14610291576101ed565b366101ed57005b5f80fd5b3480156101fc575f80fd5b506102176004803603810190610212919061269e565b610731565b60405161022491906126e3565b60405180910390f35b348015610238575f80fd5b50610253600480360381019061024e9190612756565b6107aa565b6040516102609190612799565b60405180910390f35b348015610274575f80fd5b5061028f600480360381019061028a91906127dc565b6107be565b005b34801561029c575f80fd5b506102a5610841565b6040516102b29190612832565b60405180910390f35b3480156102c6575f80fd5b506102cf610865565b6040516102dc9190612799565b60405180910390f35b3480156102f0575f80fd5b506102f961086a565b6040516103069190612799565b60405180910390f35b34801561031a575f80fd5b5061033560048036038101906103309190612875565b610871565b6040516103429190612832565b60405180910390f35b348015610356575f80fd5b50610371600480360381019061036c91906128ca565b61089b565b005b34801561037e575f80fd5b50610399600480360381019061039491906128f5565b610bd3565b005b6103b560048036038101906103b09190612756565b610bf5565b005b3480156103c2575f80fd5b506103cb610f4a565b6040516103d89190612799565b60405180910390f35b3480156103ec575f80fd5b50610407600480360381019061040291906128f5565b610f4f565b005b610411610fca565b005b34801561041e575f80fd5b5061042761114f565b6040516104349190612832565b60405180910390f35b348015610448575f80fd5b50610451611173565b60405161045e9190612799565b60405180910390f35b610481600480360381019061047c9190612a6f565b611179565b005b34801561048e575f80fd5b50610497611198565b6040516104a49190612832565b60405180910390f35b3480156104b8575f80fd5b506104c16111c9565b6040516104ce91906126e3565b60405180910390f35b3480156104e2575f80fd5b506104fd60048036038101906104f89190612756565b6111eb565b60405161050a9190612799565b60405180910390f35b34801561051e575f80fd5b50610527611200565b6040516105349190612799565b60405180910390f35b348015610548575f80fd5b50610563600480360381019061055e91906128f5565b611205565b60405161057091906126e3565b60405180910390f35b348015610584575f80fd5b5061058d611276565b60405161059a9190612832565b60405180910390f35b3480156105ae575f80fd5b506105b761127c565b6040516105c49190612b43565b60405180910390f35b3480156105d8575f80fd5b506105e16112b5565b6040516105ee9190612799565b60405180910390f35b348015610602575f80fd5b5061060b6112c1565b005b348015610618575f80fd5b50610633600480360381019061062e9190612756565b611310565b005b348015610640575f80fd5b5061065b600480360381019061065691906128ca565b6114e0565b005b348015610668575f80fd5b506106716117cb565b60405161067e9190612799565b60405180910390f35b61068f6117d4565b005b34801561069c575f80fd5b506106b760048036038101906106b291906128f5565b61194a565b005b3480156106c4575f80fd5b506106df60048036038101906106da9190612756565b61196c565b6040516106ec91906126e3565b60405180910390f35b348015610700575f80fd5b5061071b60048036038101906107169190612756565b611989565b6040516107289190612799565b60405180910390f35b5f7f7965db0b000000000000000000000000000000000000000000000000000000007bffffffffffffffffffffffffffffffffffffffffffffffffffffffff1916827bffffffffffffffffffffffffffffffffffffffffffffffffffffffff191614806107a357506107a282611a6a565b5b9050919050565b5f602052805f5260405f205f915090505481565b7f7613a25ecc738585a232ad50a301178f12b3ba8887d13e138b523c4269c476896107e881611ad3565b8160025f8573ffffffffffffffffffffffffffffffffffffffff1673ffffffffffffffffffffffffffffffffffffffff1681526020019081526020015f205f6101000a81548160ff021916908315150217905550505050565b7f5e17fc5225d4a099df75359ce1f405503ca79498a8dc46a7d583235a0ee45c1681565b605081565b5f47905090565b5f8061087b611ae7565b9050805f015f8481526020019081526020015f2060010154915050919050565b6108a3611b0e565b6108ab611b4f565b805f803373ffffffffffffffffffffffffffffffffffffffff1673ffffffffffffffffffffffffffffffffffffffff1681526020019081526020015f2054101561092a576040517f08c379a000000000000000000000000000000000000000000000000000000000815260040161092190612bad565b60405180910390fd5b5f60015f3373ffffffffffffffffffffffffffffffffffffffff1673ffffffffffffffffffffffffffffffffffffffff1681526020019081526020015f20541115610a7f575f815f803373ffffffffffffffffffffffffffffffffffffffff1673ffffffffffffffffffffffffffffffffffffffff1681526020019081526020015f20546109b89190612bf8565b90505f606460015f3373ffffffffffffffffffffffffffffffffffffffff1673ffffffffffffffffffffffffffffffffffffffff1681526020019081526020015f2054610a059190612c2b565b670de0b6b3a7640000605584610a1b9190612c2b565b610a259190612c2b565b610a2f9190612c99565b9050670de0b6b3a7640000811015610a7c576040517f08c379a0000000000000000000000000000000000000000000000000000000008152600401610a7390612d39565b60405180910390fd5b50505b805f803373ffffffffffffffffffffffffffffffffffffffff1673ffffffffffffffffffffffffffffffffffffffff1681526020019081526020015f205f828254610aca9190612bf8565b925050819055505f3373ffffffffffffffffffffffffffffffffffffffff1682604051610af690612d84565b5f6040518083038185875af1925050503d805f8114610b30576040519150601f19603f3d011682016040523d82523d5f602084013e610b35565b606091505b5050905080610b79576040517f08c379a0000000000000000000000000000000000000000000000000000000008152600401610b7090612de2565b60405180910390fd5b3373ffffffffffffffffffffffffffffffffffffffff167f7084f5476618d8e60b11ef0d7d3f06914655adb8793e28ff7f018d4c76d505d583604051610bbf9190612799565b60405180910390a250610bd0611ba3565b50565b610bdc82610871565b610be581611ad3565b610bef8383611bba565b50505050565b610bfd611b4f565b610c277f5e17fc5225d4a099df75359ce1f405503ca79498a8dc46a7d583235a0ee45c1633611205565b610c66576040517f08c379a0000000000000000000000000000000000000000000000000000000008152600401610c5d90612e4a565b60405180910390fd5b5f610c7082611989565b9050670de0b6b3a76400008110610cbc576040517f08c379a0000000000000000000000000000000000000000000000000000000008152600401610cb390612eb2565b60405180910390fd5b5f60015f8473ffffffffffffffffffffffffffffffffffffffff1673ffffffffffffffffffffffffffffffffffffffff1681526020019081526020015f2054905080341015610d40576040517f08c379a0000000000000000000000000000000000000000000000000000000008152600401610d3790612f1a565b60405180910390fd5b5f6064600a6064610d519190612f38565b83610d5c9190612c2b565b610d669190612c99565b9050805f808673ffffffffffffffffffffffffffffffffffffffff1673ffffffffffffffffffffffffffffffffffffffff1681526020019081526020015f20541015610de7576040517f08c379a0000000000000000000000000000000000000000000000000000000008152600401610dde90612fb5565b60405180910390fd5b8160035f828254610df89190612bf8565b925050819055505f60015f8673ffffffffffffffffffffffffffffffffffffffff1673ffffffffffffffffffffffffffffffffffffffff1681526020019081526020015f2081905550805f808673ffffffffffffffffffffffffffffffffffffffff1673ffffffffffffffffffffffffffffffffffffffff1681526020019081526020015f205f828254610e8c9190612bf8565b925050819055503373ffffffffffffffffffffffffffffffffffffffff166108fc8290811502906040515f60405180830381858888f19350505050158015610ed6573d5f803e3d5ffd5b503373ffffffffffffffffffffffffffffffffffffffff168473ffffffffffffffffffffffffffffffffffffffff167fde0aa27286f5cb3a4ed853dc4823ead62d63e92cdf13de09d6aece56970721a483604051610f349190612799565b60405180910390a3505050610f47611ba3565b50565b600a81565b610f57611cb2565b73ffffffffffffffffffffffffffffffffffffffff168173ffffffffffffffffffffffffffffffffffffffff1614610fbb576040517f6697b23200000000000000000000000000000000000000000000000000000000815260040160405180910390fd5b610fc58282611cb9565b505050565b610fd2611b0e565b5f3411611014576040517f08c379a000000000000000000000000000000000000000000000000000000000815260040161100b9061301d565b60405180910390fd5b3460015f3373ffffffffffffffffffffffffffffffffffffffff1673ffffffffffffffffffffffffffffffffffffffff1681526020019081526020015f20541015611094576040517f08c379a000000000000000000000000000000000000000000000000000000000815260040161108b90613085565b60405180910390fd5b3460015f3373ffffffffffffffffffffffffffffffffffffffff1673ffffffffffffffffffffffffffffffffffffffff1681526020019081526020015f205f8282546110e09190612bf8565b925050819055503460035f8282546110f89190612bf8565b925050819055503373ffffffffffffffffffffffffffffffffffffffff167f0516911bcc3a0a7412a44601057c0a0a1ec628bde049a84284bc428866534488346040516111459190612799565b60405180910390a2565b7f7613a25ecc738585a232ad50a301178f12b3ba8887d13e138b523c4269c4768981565b60035481565b611181611db1565b61118a82611e97565b6111948282611ea7565b5050565b5f6111a1611fc5565b7f360894a13ba1a3210667c828492db98dca3e2076cc3735a920a3ca505d382bbc5f1b905090565b5f806111d361204c565b9050805f015f9054906101000a900460ff1691505090565b6001602052805f5260405f205f915090505481565b605581565b5f8061120f611ae7565b9050805f015f8581526020019081526020015f205f015f8473ffffffffffffffffffffffffffffffffffffffff1673ffffffffffffffffffffffffffffffffffffffff1681526020019081526020015f205f9054906101000a900460ff1691505092915050565b5f801b81565b6040518060400160405280600581526020017f352e302e3000000000000000000000000000000000000000000000000000000081525081565b670de0b6b3a764000081565b7f7613a25ecc738585a232ad50a301178f12b3ba8887d13e138b523c4269c476896112eb81611ad3565b6112f36111c9565b611304576112ff612073565b61130d565b61130c6120e2565b5b50565b5f611319612150565b90505f815f0160089054906101000a900460ff161590505f825f015f9054906101000a900467ffffffffffffffff1690505f808267ffffffffffffffff161480156113615750825b90505f60018367ffffffffffffffff1614801561139457505f3073ffffffffffffffffffffffffffffffffffffffff163b145b9050811580156113a2575080155b156113d9576040517ff92ee8a900000000000000000000000000000000000000000000000000000000815260040160405180910390fd5b6001855f015f6101000a81548167ffffffffffffffff021916908367ffffffffffffffff1602179055508315611426576001855f0160086101000a81548160ff0219169083151502179055505b61142e612177565b611436612181565b61143e612193565b6114466121a5565b6114525f801b87611bba565b5061147d7f7613a25ecc738585a232ad50a301178f12b3ba8887d13e138b523c4269c4768987611bba565b5083156114d8575f855f0160086101000a81548160ff0219169083151502179055507fc7f505b2f371ae2175ee4913f4499e1f2633a7b5936321eed1cdaeb6115181d260016040516114cf91906130f8565b60405180910390a15b505050505050565b6114e8611b0e565b6114f0611b4f565b60025f3373ffffffffffffffffffffffffffffffffffffffff1673ffffffffffffffffffffffffffffffffffffffff1681526020019081526020015f205f9054906101000a900460ff161561157a576040517f08c379a00000000000000000000000000000000000000000000000000000000081526004016115719061315b565b60405180910390fd5b5f606460505f803373ffffffffffffffffffffffffffffffffffffffff1673ffffffffffffffffffffffffffffffffffffffff1681526020019081526020015f20546115c69190612c2b565b6115d09190612c99565b9050808260015f3373ffffffffffffffffffffffffffffffffffffffff1673ffffffffffffffffffffffffffffffffffffffff1681526020019081526020015f205461161c9190612f38565b111561165d576040517f08c379a0000000000000000000000000000000000000000000000000000000008152600401611654906131c3565b60405180910390fd5b8160015f3373ffffffffffffffffffffffffffffffffffffffff1673ffffffffffffffffffffffffffffffffffffffff1681526020019081526020015f205f8282546116a99190612f38565b925050819055508160035f8282546116c19190612f38565b925050819055505f3373ffffffffffffffffffffffffffffffffffffffff16836040516116ed90612d84565b5f6040518083038185875af1925050503d805f8114611727576040519150601f19603f3d011682016040523d82523d5f602084013e61172c565b606091505b5050905080611770576040517f08c379a000000000000000000000000000000000000000000000000000000000815260040161176790612de2565b60405180910390fd5b3373ffffffffffffffffffffffffffffffffffffffff167fac59582e5396aca512fa873a2047e7f4c80f8f55d4a06cb34a78a0187f62719f846040516117b69190612799565b60405180910390a250506117c8611ba3565b50565b5f600354905090565b6117dc611b0e565b60025f3373ffffffffffffffffffffffffffffffffffffffff1673ffffffffffffffffffffffffffffffffffffffff1681526020019081526020015f205f9054906101000a900460ff1615611866576040517f08c379a000000000000000000000000000000000000000000000000000000000815260040161185d9061315b565b60405180910390fd5b5f34116118a8576040517f08c379a000000000000000000000000000000000000000000000000000000000815260040161189f9061322b565b60405180910390fd5b345f803373ffffffffffffffffffffffffffffffffffffffff1673ffffffffffffffffffffffffffffffffffffffff1681526020019081526020015f205f8282546118f39190612f38565b925050819055503373ffffffffffffffffffffffffffffffffffffffff167f2da466a7b24304f47e87fa2e1e5a81b9831ce54fec19055ce277ca2f39ba42c4346040516119409190612799565b60405180910390a2565b61195382610871565b61195c81611ad3565b6119668383611cb9565b50505050565b6002602052805f5260405f205f915054906101000a900460ff1681565b5f8060015f8473ffffffffffffffffffffffffffffffffffffffff1673ffffffffffffffffffffffffffffffffffffffff1681526020019081526020015f205490505f81036119e45768056bc75e2d63100000915050611a65565b5f805f8573ffffffffffffffffffffffffffffffffffffffff1673ffffffffffffffffffffffffffffffffffffffff1681526020019081526020015f205490505f6064605583611a349190612c2b565b611a3e9190612c99565b905082670de0b6b3a764000082611a559190612c2b565b611a5f9190612c99565b93505050505b919050565b5f7f01ffc9a7000000000000000000000000000000000000000000000000000000007bffffffffffffffffffffffffffffffffffffffffffffffffffffffff1916827bffffffffffffffffffffffffffffffffffffffffffffffffffffffff1916149050919050565b611ae481611adf611cb2565b6121af565b50565b5f7f02dd7bc7dec4dceedda775e58dd541e08a116c6c53815c0bd028192f7b626800905090565b611b166111c9565b15611b4d576040517fd93c066500000000000000000000000000000000000000000000000000000000815260040160405180910390fd5b565b5f611b58612200565b90506002815f015403611b97576040517f3ee5aeb500000000000000000000000000000000000000000000000000000000815260040160405180910390fd5b6002815f018190555050565b5f611bac612200565b90506001815f018190555050565b5f80611bc4611ae7565b9050611bd08484611205565b611ca7576001815f015f8681526020019081526020015f205f015f8573ffffffffffffffffffffffffffffffffffffffff1673ffffffffffffffffffffffffffffffffffffffff1681526020019081526020015f205f6101000a81548160ff021916908315150217905550611c43611cb2565b73ffffffffffffffffffffffffffffffffffffffff168373ffffffffffffffffffffffffffffffffffffffff16857f2f8788117e7eff1d82e926ec794901d17c78024a50270940304540a733656f0d60405160405180910390a46001915050611cac565b5f9150505b92915050565b5f33905090565b5f80611cc3611ae7565b9050611ccf8484611205565b15611da6575f815f015f8681526020019081526020015f205f015f8573ffffffffffffffffffffffffffffffffffffffff1673ffffffffffffffffffffffffffffffffffffffff1681526020019081526020015f205f6101000a81548160ff021916908315150217905550611d42611cb2565b73ffffffffffffffffffffffffffffffffffffffff168373ffffffffffffffffffffffffffffffffffffffff16857ff6391f5c32d9c69d2a47ea670b442974b53935d1edc7fd64eb21e047a839171b60405160405180910390a46001915050611dab565b5f9150505b92915050565b7f000000000000000000000000000000000000000000000000000000000000000073ffffffffffffffffffffffffffffffffffffffff163073ffffffffffffffffffffffffffffffffffffffff161480611e5e57507f000000000000000000000000000000000000000000000000000000000000000073ffffffffffffffffffffffffffffffffffffffff16611e45612227565b73ffffffffffffffffffffffffffffffffffffffff1614155b15611e95576040517fe07c8dba00000000000000000000000000000000000000000000000000000000815260040160405180910390fd5b565b5f801b611ea381611ad3565b5050565b8173ffffffffffffffffffffffffffffffffffffffff166352d1902d6040518163ffffffff1660e01b8152600401602060405180830381865afa925050508015611f0f57506040513d601f19601f82011682018060405250810190611f0c919061325d565b60015b611f5057816040517f4c9c8ce3000000000000000000000000000000000000000000000000000000008152600401611f479190613297565b60405180910390fd5b7f360894a13ba1a3210667c828492db98dca3e2076cc3735a920a3ca505d382bbc5f1b8114611fb657806040517faa1d49a4000000000000000000000000000000000000000000000000000000008152600401611fad9190612832565b60405180910390fd5b611fc0838361227a565b505050565b7f000000000000000000000000000000000000000000000000000000000000000073ffffffffffffffffffffffffffffffffffffffff163073ffffffffffffffffffffffffffffffffffffffff161461204a576040517fe07c8dba00000000000000000000000000000000000000000000000000000000815260040160405180910390fd5b565b5f7fcd5ed15c6e187e77e9aee88184c21f4f2182ab5827cb3b7e07fbedcd63f03300905090565b61207b611b0e565b5f61208461204c565b90506001815f015f6101000a81548160ff0219169083151502179055507f62e78cea01bee320cd4e420270b5ea74000d11b0c9f74754ebdbfc544b05a2586120ca611cb2565b6040516120d79190613297565b60405180910390a150565b6120ea6122ec565b5f6120f361204c565b90505f815f015f6101000a81548160ff0219169083151502179055507f5db9ee0a495bf2e6ff9c91a7834c1ba4fdd244a5e8aa4e537bd38aeae4b073aa612138611cb2565b6040516121459190613297565b60405180910390a150565b5f7ff0c57e16840df040f15088dc2f81fe391c3923bec73e23a9662efc9c229c6a00905090565b61217f61232c565b565b61218961232c565b61219161236c565b565b61219b61232c565b6121a361238b565b565b6121ad61232c565b565b6121b98282611205565b6121fc5780826040517fe2517d3f0000000000000000000000000000000000000000000000000000000081526004016121f39291906132b0565b60405180910390fd5b5050565b5f7f9b779b17422d0df92223018b32b4d1fa46e071723d6817e2486d003becc55f00905090565b5f6122537f360894a13ba1a3210667c828492db98dca3e2076cc3735a920a3ca505d382bbc5f1b6123bb565b5f015f9054906101000a900473ffffffffffffffffffffffffffffffffffffffff16905090565b612283826123c4565b8173ffffffffffffffffffffffffffffffffffffffff167fbc7cd75a20ee27fd9adebab32041f755214dbc6bffa90cc0225b39da2e5c2d3b60405160405180910390a25f815111156122df576122d9828261248d565b506122e8565b6122e761250d565b5b5050565b6122f46111c9565b61232a576040517f8dfc202b00000000000000000000000000000000000000000000000000000000815260040160405180910390fd5b565b612334612549565b61236a576040517fd7e6bcf800000000000000000000000000000000000000000000000000000000815260040160405180910390fd5b565b61237461232c565b5f61237d612200565b90506001815f018190555050565b61239361232c565b5f61239c61204c565b90505f815f015f6101000a81548160ff02191690831515021790555050565b5f819050919050565b5f8173ffffffffffffffffffffffffffffffffffffffff163b0361241f57806040517f4c9c8ce30000000000000000000000000000000000000000000000000000000081526004016124169190613297565b60405180910390fd5b8061244b7f360894a13ba1a3210667c828492db98dca3e2076cc3735a920a3ca505d382bbc5f1b6123bb565b5f015f6101000a81548173ffffffffffffffffffffffffffffffffffffffff021916908373ffffffffffffffffffffffffffffffffffffffff16021790555050565b60605f808473ffffffffffffffffffffffffffffffffffffffff16846040516124b69190613311565b5f60405180830381855af49150503d805f81146124ee576040519150601f19603f3d011682016040523d82523d5f602084013e6124f3565b606091505b5091509150612503858383612567565b9250505092915050565b5f341115612547576040517fb398979f00000000000000000000000000000000000000000000000000000000815260040160405180910390fd5b565b5f612552612150565b5f0160089054906101000a900460ff16905090565b60608261257c57612577826125f4565b6125ec565b5f82511480156125a257505f8473ffffffffffffffffffffffffffffffffffffffff163b145b156125e457836040517f9996b3150000000000000000000000000000000000000000000000000000000081526004016125db9190613297565b60405180910390fd5b8190506125ed565b5b9392505050565b5f815111156126065780518082602001fd5b6040517f1425ea4200000000000000000000000000000000000000000000000000000000815260040160405180910390fd5b5f604051905090565b5f80fd5b5f80fd5b5f7fffffffff0000000000000000000000000000000000000000000000000000000082169050919050565b61267d81612649565b8114612687575f80fd5b50565b5f8135905061269881612674565b92915050565b5f602082840312156126b3576126b2612641565b5b5f6126c08482850161268a565b91505092915050565b5f8115159050919050565b6126dd816126c9565b82525050565b5f6020820190506126f65f8301846126d4565b92915050565b5f73ffffffffffffffffffffffffffffffffffffffff82169050919050565b5f612725826126fc565b9050919050565b6127358161271b565b811461273f575f80fd5b50565b5f813590506127508161272c565b92915050565b5f6020828403121561276b5761276a612641565b5b5f61277884828501612742565b91505092915050565b5f819050919050565b61279381612781565b82525050565b5f6020820190506127ac5f83018461278a565b92915050565b6127bb816126c9565b81146127c5575f80fd5b50565b5f813590506127d6816127b2565b92915050565b5f80604083850312156127f2576127f1612641565b5b5f6127ff85828601612742565b9250506020612810858286016127c8565b9150509250929050565b5f819050919050565b61282c8161281a565b82525050565b5f6020820190506128455f830184612823565b92915050565b6128548161281a565b811461285e575f80fd5b50565b5f8135905061286f8161284b565b92915050565b5f6020828403121561288a57612889612641565b5b5f61289784828501612861565b91505092915050565b6128a981612781565b81146128b3575f80fd5b50565b5f813590506128c4816128a0565b92915050565b5f602082840312156128df576128de612641565b5b5f6128ec848285016128b6565b91505092915050565b5f806040838503121561290b5761290a612641565b5b5f61291885828601612861565b925050602061292985828601612742565b9150509250929050565b5f80fd5b5f80fd5b5f601f19601f8301169050919050565b7f4e487b71000000000000000000000000000000000000000000000000000000005f52604160045260245ffd5b6129818261293b565b810181811067ffffffffffffffff821117156129a05761299f61294b565b5b80604052505050565b5f6129b2612638565b90506129be8282612978565b919050565b5f67ffffffffffffffff8211156129dd576129dc61294b565b5b6129e68261293b565b9050602081019050919050565b828183375f83830152505050565b5f612a13612a0e846129c3565b6129a9565b905082815260208101848484011115612a2f57612a2e612937565b5b612a3a8482856129f3565b509392505050565b5f82601f830112612a5657612a55612933565b5b8135612a66848260208601612a01565b91505092915050565b5f8060408385031215612a8557612a84612641565b5b5f612a9285828601612742565b925050602083013567ffffffffffffffff811115612ab357612ab2612645565b5b612abf85828601612a42565b9150509250929050565b5f81519050919050565b5f82825260208201905092915050565b5f5b83811015612b00578082015181840152602081019050612ae5565b5f8484015250505050565b5f612b1582612ac9565b612b1f8185612ad3565b9350612b2f818560208601612ae3565b612b388161293b565b840191505092915050565b5f6020820190508181035f830152612b5b8184612b0b565b905092915050565b7f496e73756666696369656e742062616c616e63650000000000000000000000005f82015250565b5f612b97601483612ad3565b9150612ba282612b63565b602082019050919050565b5f6020820190508181035f830152612bc481612b8b565b9050919050565b7f4e487b71000000000000000000000000000000000000000000000000000000005f52601160045260245ffd5b5f612c0282612781565b9150612c0d83612781565b9250828203905081811115612c2557612c24612bcb565b5b92915050565b5f612c3582612781565b9150612c4083612781565b9250828202612c4e81612781565b91508282048414831517612c6557612c64612bcb565b5b5092915050565b7f4e487b71000000000000000000000000000000000000000000000000000000005f52601260045260245ffd5b5f612ca382612781565b9150612cae83612781565b925082612cbe57612cbd612c6c565b5b828204905092915050565b7f5769746864726177616c207269736b793a20484620776f756c64206265203c205f8201527f312e300000000000000000000000000000000000000000000000000000000000602082015250565b5f612d23602383612ad3565b9150612d2e82612cc9565b604082019050919050565b5f6020820190508181035f830152612d5081612d17565b9050919050565b5f81905092915050565b50565b5f612d6f5f83612d57565b9150612d7a82612d61565b5f82019050919050565b5f612d8e82612d64565b9150819050919050565b7f5472616e73666572206661696c656400000000000000000000000000000000005f82015250565b5f612dcc600f83612ad3565b9150612dd782612d98565b602082019050919050565b5f6020820190508181035f830152612df981612dc0565b9050919050565b7f43616c6c6572206973206e6f74206c697175696461746f7200000000000000005f82015250565b5f612e34601883612ad3565b9150612e3f82612e00565b602082019050919050565b5f6020820190508181035f830152612e6181612e28565b9050919050565b7f55736572206973207361666500000000000000000000000000000000000000005f82015250565b5f612e9c600c83612ad3565b9150612ea782612e68565b602082019050919050565b5f6020820190508181035f830152612ec981612e90565b9050919050565b7f496e73756666696369656e7420726570617920616d6f756e74000000000000005f82015250565b5f612f04601983612ad3565b9150612f0f82612ed0565b602082019050919050565b5f6020820190508181035f830152612f3181612ef8565b9050919050565b5f612f4282612781565b9150612f4d83612781565b9250828201905080821115612f6557612f64612bcb565b5b92915050565b7f496e736f6c76656e7420706f736974696f6e00000000000000000000000000005f82015250565b5f612f9f601283612ad3565b9150612faa82612f6b565b602082019050919050565b5f6020820190508181035f830152612fcc81612f93565b9050919050565b7f526570617920616d6f756e74206d757374206265203e203000000000000000005f82015250565b5f613007601883612ad3565b915061301282612fd3565b602082019050919050565b5f6020820190508181035f83015261303481612ffb565b9050919050565b7f4f7665722d7265706179696e67206465627400000000000000000000000000005f82015250565b5f61306f601283612ad3565b915061307a8261303b565b602082019050919050565b5f6020820190508181035f83015261309c81613063565b9050919050565b5f819050919050565b5f67ffffffffffffffff82169050919050565b5f819050919050565b5f6130e26130dd6130d8846130a3565b6130bf565b6130ac565b9050919050565b6130f2816130c8565b82525050565b5f60208201905061310b5f8301846130e9565b92915050565b7f5573657220626c61636b6c6973746564000000000000000000000000000000005f82015250565b5f613145601083612ad3565b915061315082613111565b602082019050919050565b5f6020820190508181035f83015261317281613139565b9050919050565b7f496e73756666696369656e7420636f6c6c61746572616c0000000000000000005f82015250565b5f6131ad601783612ad3565b91506131b882613179565b602082019050919050565b5f6020820190508181035f8301526131da816131a1565b9050919050565b7f416d6f756e74206d757374206265203e203000000000000000000000000000005f82015250565b5f613215601283612ad3565b9150613220826131e1565b602082019050919050565b5f6020820190508181035f83015261324281613209565b9050919050565b5f815190506132578161284b565b92915050565b5f6020828403121561327257613271612641565b5b5f61327f84828501613249565b91505092915050565b6132918161271b565b82525050565b5f6020820190506132aa5f830184613288565b92915050565b5f6040820190506132c35f830185613288565b6132d06020830184612823565b9392505050565b5f81519050919050565b5f6132eb826132d7565b6132f58185612d57565b9350613305818560208601612ae3565b80840191505092915050565b5f61331c82846132e1565b91508190509291505056fea2646970667358221220ea1b39dd596c6b0e3d7579bae69f5395254cadb8b41d8656ec291186afe76ce264736f6c63430008140033",
  "immutableReferences": {
    "636": [
      {
        "length": 32,
        "start": 7603
      },
      {
        "length": 32,
        "start": 7688
      },
      {
        "length": 32,
        "start": 8135
      }
    ]
  },
  "source": "// SPDX-License-Identifier: MIT\npragma solidity ^0.8.20;\n\nimport \"@openzeppelin/contracts-upgradeable/proxy/utils/UUPSUpgradeable.sol\";\nimport \"@openzeppelin/contracts-upgradeable/access/AccessControlUpgradeable.sol\";\nimport \"@openzeppelin/contracts-upgradeable/utils/PausableUpgradeable.sol\";\nimport \"@openzeppelin/contracts-upgradeable/proxy/utils/Initializable.sol\";\nimport \"@openzeppelin/contracts-upgradeable/utils/ReentrancyGuardUpgradeable.sol\";\n\n/**\n * @title LendingPoolUpgradeable\n * @dev Core Protocol Contract: Implements Health Factor Math, Interest Simulation, and Role-Based Liquidation.\n */\ncontract LendingPoolUpgradeable is \n    Initializable,\n    UUPSUpgradeable, \n    AccessControlUpgradeable, \n    ReentrancyGuardUpgradeable, \n    PausableUpgradeable \n{\n    // --- Role Definitions ---\n    bytes32 public constant SUPER_ADMIN_ROLE = keccak256(\"SUPER_ADMIN_ROLE\");\n    bytes32 public constant LIQUIDATOR_ROLE = keccak256(\"LIQUIDATOR_ROLE\");\n\n    // --- State Variables ---\n    mapping(address => uint256) public userDeposits;\n    mapping(address => uint256) public userBorrows;\n    mapping(address => bool) public blacklisted;\n    \n    // Global tracking for Auditor Dashboard & Liquidity Charts\n    uint256 public totalBorrows; \n\n    // --- Financial Parameters ---\n    uint256 public constant COLLATERAL_FACTOR = 80;    // Max LTV (80%)\n    uint256 public constant LIQUIDATION_THRESHOLD = 85; // 85%\n    uint256 public constant LIQUIDATION_BONUS = 10;    // 10% bonus for liquidators\n    uint256 public constant MIN_HEALTH_FACTOR = 1e18;  // 1.0 represented in Wad (18 decimals)\n\n    // --- Events ---\n    event Deposited(address indexed user, uint256 amount);\n    event Withdrawn(address indexed user, uint256 amount);\n    event Borrowed(address indexed user, uint256 amount);\n    event Repaid(address indexed user, uint256 amount);\n    event Liquidated(address indexed user, address indexed liquidator, uint256 amountSeized);\n\n    /// @custom:oz-upgrades-unsafe-allow constructor\n    constructor() {\n        _disableInitializers();\n    }\n\n    function initialize(address admin) public initializer {\n        __AccessControl_init();\n        __ReentrancyGuard_init();\n        __Pausable_init();\n        __UUPSUpgradeable_init();\n        \n        _grantRole(DEFAULT_ADMIN_ROLE, admin);\n        _grantRole(SUPER_ADMIN_ROLE, admin);\n    }\n\n    function _authorizeUpgrade(address newImplementation) internal override onlyRole(DEFAULT_ADMIN_ROLE) {}\n\n    // --- Core Financial Functions ---\n\n    /**\n     * @dev Users deposit ETH to act as collateral.\n     */\n    function deposit() external payable whenNotPaused {\n        require(!blacklisted[msg.sender], \"User blacklisted\");\n        require(msg.value > 0, \"Amount must be > 0\");\n\n        userDeposits[msg.sender] += msg.value;\n        emit Deposited(msg.sender, msg.value);\n    }\n\n    /**\n     * @dev Lenders withdraw their deposited ETH.\n     * @notice Enforces Health Factor check to prevent withdrawing collateral used for active loans.\n     */\n    function withdraw(uint256 _amount) external whenNotPaused nonReentrant {\n        require(userDeposits[msg.sender] >= _amount, \"Insufficient balance\");\n        \n        // Safety check: Ensure withdrawal doesn't make an existing loan under-collateralized\n        if (userBorrows[msg.sender] > 0) {\n            uint256 remainingCollateral = userDeposits[msg.sender] - _amount;\n            // HF = (Collateral * Threshold) / Borrow\n            uint256 hf = (remainingCollateral * LIQUIDATION_THRESHOLD * 1e18) / (userBorrows[msg.sender] * 100);\n            require(hf >= MIN_HEALTH_FACTOR, \"Withdrawal risky: HF would be < 1.0\");\n        }\n\n        userDeposits[msg.sender] -= _amount;\n        \n        (bool success, ) = payable(msg.sender).call{value: _amount}(\"\");\n        require(success, \"Transfer failed\");\n        \n        emit Withdrawn(msg.sender, _amount);\n    }\n\n    /**\n     * @dev Users borrow ETH against their collateral.\n     * @notice Enforces the 80% LTV rule.\n     */\n    function borrow(uint256 _amount) external whenNotPaused nonReentrant {\n        require(!blacklisted[msg.sender], \"User blacklisted\");\n        \n        uint256 maxBorrow = (userDeposits[msg.sender] * COLLATERAL_FACTOR) / 100;\n        require(userBorrows[msg.sender] + _amount <= maxBorrow, \"Insufficient collateral\");\n\n        userBorrows[msg.sender] += _amount;\n        totalBorrows += _amount; // Global tracking\n        \n        (bool success, ) = payable(msg.sender).call{value: _amount}(\"\");\n        require(success, \"Transfer failed\");\n        \n        emit Borrowed(msg.sender, _amount);\n    }\n\n    /**\n     * @dev Users repay their debt to improve their Health Factor.\n     */\n    function repay() external payable whenNotPaused {\n        require(msg.value > 0, \"Repay amount must be > 0\");\n        require(userBorrows[msg.sender] >= msg.value, \"Over-repaying debt\");\n\n        userBorrows[msg.sender] -= msg.value;\n        totalBorrows -= msg.value; // Global tracking\n        \n        emit Repaid(msg.sender, msg.value);\n    }\n\n    /**\n     * @dev Liquidation logic: authorized liquidators can repay debt to seize collateral.\n     */\n    function liquidate(address _user) external payable nonReentrant {\n        require(hasRole(LIQUIDATOR_ROLE, msg.sender), \"Caller is not liquidator\");\n        uint256 hf = getHealthFactor(_user);\n        require(hf < MIN_HEALTH_FACTOR, \"User is safe\");\n\n        uint256 debt = userBorrows[_user];\n        require(msg.value >= debt, \"Insufficient repay amount\");\n\n        uint256 bonus = (debt * (100 + LIQUIDATION_BONUS)) / 100;\n        require(userDeposits[_user] >= bonus, \"Insolvent position\");\n\n        totalBorrows -= debt;\n        userBorrows[_user] = 0;\n        userDeposits[_user] -= bonus;\n\n        payable(msg.sender).transfer(bonus);\n        emit Liquidated(_user, msg.sender, bonus);\n    }\n\n    // --- Mathematical & Auditor View Functions ---\n\n    /**\n     * @dev Returns total ETH currently in the contract.\n     */\n    function getTotalReserves() public view returns (uint256) {\n        return address(this).balance;\n    }\n\n    /**\n     * @dev Returns total borrowed ETH across all users.\n     */\n    function getTotalBorrows() public view returns (uint256) {\n        return totalBorrows;\n    }\n\n    /**\n     * @dev Health Factor = (Collateral * Threshold) / Borrows.\n     * Scale: 1e18 = 1.0.\n     */\n    function getHealthFactor(address _user) public view returns (uint256) {\n        uint256 borrows = userBorrows[_user];\n        if (borrows == 0) return 100e18; // Safe\n\n        uint256 collateralValue = userDeposits[_user];\n        uint256 collateralAdjusted = (collateralValue * LIQUIDATION_THRESHOLD) / 100;\n\n        return (collateralAdjusted * 1e18) / borrows;\n    }\n\n    // --- Admin & Security ---\n\n    function setBlacklist(address _user, bool _status) external onlyRole(SUPER_ADMIN_ROLE) {\n        blacklisted[_user] = _status;\n    }\n\n    function togglePause() external onlyRole(SUPER_ADMIN_ROLE) {\n        paused() ? _unpause() : _pause();\n    }\n\n    receive() external payable {}\n}",
  "sourcePath": "D:\\Downloads\\Blockchain\\TY SEM2\\DeFiEnterprise\\blockchain\\contracts\\LendingPoolUpgradeable.sol",
  "compiler": {
    "name": "solc",
    "version": "0.8.20+commit.a1b79de6.Emscripten.clang"
  },
  "schemaVersion": "3.4.16",
  "updatedAt": "2026-03-30T06:25:46.839Z",
  "networkType": "ethereum",
  "devdoc": {
    "details": "Core Protocol Contract: Implements Health Factor Math, Interest Simulation, and Role-Based Liquidation.",
    "errors": {
      "AccessControlBadConfirmation()": [
        {
          "details": "The caller of a function is not the expected one. NOTE: Don't confuse with {AccessControlUnauthorizedAccount}."
        }
      ],
      "AccessControlUnauthorizedAccount(address,bytes32)": [
        {
          "details": "The `account` is missing a role."
        }
      ],
      "AddressEmptyCode(address)": [
        {
          "details": "There's no code at `target` (it is not a contract)."
        }
      ],
      "ERC1967InvalidImplementation(address)": [
        {
          "details": "The `implementation` of the proxy is invalid."
        }
      ],
      "ERC1967NonPayable()": [
        {
          "details": "An upgrade function sees `msg.value > 0` that may be lost."
        }
      ],
      "EnforcedPause()": [
        {
          "details": "The operation failed because the contract is paused."
        }
      ],
      "ExpectedPause()": [
        {
          "details": "The operation failed because the contract is not paused."
        }
      ],
      "FailedInnerCall()": [
        {
          "details": "A call to an address target failed. The target may have reverted."
        }
      ],
      "InvalidInitialization()": [
        {
          "details": "The contract is already initialized."
        }
      ],
      "NotInitializing()": [
        {
          "details": "The contract is not initializing."
        }
      ],
      "ReentrancyGuardReentrantCall()": [
        {
          "details": "Unauthorized reentrant call."
        }
      ],
      "UUPSUnauthorizedCallContext()": [
        {
          "details": "The call is from an unauthorized context."
        }
      ],
      "UUPSUnsupportedProxiableUUID(bytes32)": [
        {
          "details": "The storage `slot` is unsupported as a UUID."
        }
      ]
    },
    "events": {
      "Initialized(uint64)": {
        "details": "Triggered when the contract has been initialized or reinitialized."
      },
      "Paused(address)": {
        "details": "Emitted when the pause is triggered by `account`."
      },
      "RoleAdminChanged(bytes32,bytes32,bytes32)": {
        "details": "Emitted when `newAdminRole` is set as ``role``'s admin role, replacing `previousAdminRole` `DEFAULT_ADMIN_ROLE` is the starting admin for all roles, despite {RoleAdminChanged} not being emitted signaling this."
      },
      "RoleGranted(bytes32,address,address)": {
        "details": "Emitted when `account` is granted `role`. `sender` is the account that originated the contract call, an admin role bearer except when using {AccessControl-_setupRole}."
      },
      "RoleRevoked(bytes32,address,address)": {
        "details": "Emitted when `account` is revoked `role`. `sender` is the account that originated the contract call:   - if using `revokeRole`, it is the admin role bearer   - if using `renounceRole`, it is the role bearer (i.e. `account`)"
      },
      "Unpaused(address)": {
        "details": "Emitted when the pause is lifted by `account`."
      },
      "Upgraded(address)": {
        "details": "Emitted when the implementation is upgraded."
      }
    },
    "kind": "dev",
    "methods": {
      "borrow(uint256)": {
        "details": "Users borrow ETH against their collateral."
      },
      "constructor": {
        "custom:oz-upgrades-unsafe-allow": "constructor"
      },
      "deposit()": {
        "details": "Users deposit ETH to act as collateral."
      },
      "getHealthFactor(address)": {
        "details": "Health Factor = (Collateral * Threshold) / Borrows. Scale: 1e18 = 1.0."
      },
      "getRoleAdmin(bytes32)": {
        "details": "Returns the admin role that controls `role`. See {grantRole} and {revokeRole}. To change a role's admin, use {_setRoleAdmin}."
      },
      "getTotalBorrows()": {
        "details": "Returns total borrowed ETH across all users."
      },
      "getTotalReserves()": {
        "details": "Returns total ETH currently in the contract."
      },
      "grantRole(bytes32,address)": {
        "details": "Grants `role` to `account`. If `account` had not been already granted `role`, emits a {RoleGranted} event. Requirements: - the caller must have ``role``'s admin role. May emit a {RoleGranted} event."
      },
      "hasRole(bytes32,address)": {
        "details": "Returns `true` if `account` has been granted `role`."
      },
      "liquidate(address)": {
        "details": "Liquidation logic: authorized liquidators can repay debt to seize collateral."
      },
      "paused()": {
        "details": "Returns true if the contract is paused, and false otherwise."
      },
      "proxiableUUID()": {
        "details": "Implementation of the ERC1822 {proxiableUUID} function. This returns the storage slot used by the implementation. It is used to validate the implementation's compatibility when performing an upgrade. IMPORTANT: A proxy pointing at a proxiable contract should not be considered proxiable itself, because this risks bricking a proxy that upgrades to it, by delegating to itself until out of gas. Thus it is critical that this function revert if invoked through a proxy. This is guaranteed by the `notDelegated` modifier."
      },
      "renounceRole(bytes32,address)": {
        "details": "Revokes `role` from the calling account. Roles are often managed via {grantRole} and {revokeRole}: this function's purpose is to provide a mechanism for accounts to lose their privileges if they are compromised (such as when a trusted device is misplaced). If the calling account had been revoked `role`, emits a {RoleRevoked} event. Requirements: - the caller must be `callerConfirmation`. May emit a {RoleRevoked} event."
      },
      "repay()": {
        "details": "Users repay their debt to improve their Health Factor."
      },
      "revokeRole(bytes32,address)": {
        "details": "Revokes `role` from `account`. If `account` had been granted `role`, emits a {RoleRevoked} event. Requirements: - the caller must have ``role``'s admin role. May emit a {RoleRevoked} event."
      },
      "supportsInterface(bytes4)": {
        "details": "See {IERC165-supportsInterface}."
      },
      "upgradeToAndCall(address,bytes)": {
        "custom:oz-upgrades-unsafe-allow-reachable": "delegatecall",
        "details": "Upgrade the implementation of the proxy to `newImplementation`, and subsequently execute the function call encoded in `data`. Calls {_authorizeUpgrade}. Emits an {Upgraded} event."
      },
      "withdraw(uint256)": {
        "details": "Lenders withdraw their deposited ETH."
      }
    },
    "title": "LendingPoolUpgradeable",
    "version": 1
  },
  "userdoc": {
    "kind": "user",
    "methods": {
      "borrow(uint256)": {
        "notice": "Enforces the 80% LTV rule."
      },
      "withdraw(uint256)": {
        "notice": "Enforces Health Factor check to prevent withdrawing collateral used for active loans."
      }
    },
    "version": 1
  }
}