{
  "contractName": "Liquidation",
  "abi": [
    {
      "inputs": [
        {
          "internalType": "address payable",
          "name": "_pool",
          "type": "address"
        },
        {
          "internalType": "address",
          "name": "_admin",
          "type": "address"
        }
      ],
      "stateMutability": "nonpayable",
      "type": "constructor"
    },
    {
      "inputs": [],
      "name": "AccessControlBadConfirmation",
      "type": "error"
    },
    {
      "inputs": [
        {
          "internalType": "address",
          "name": "account",
          "type": "address"
        },
        {
          "internalType": "bytes32",
          "name": "neededRole",
          "type": "bytes32"
        }
      ],
      "name": "AccessControlUnauthorizedAccount",
      "type": "error"
    },
    {
      "anonymous": false,
      "inputs": [
        {
          "indexed": true,
          "internalType": "address",
          "name": "user",
          "type": "address"
        },
        {
          "indexed": true,
          "internalType": "address",
          "name": "liquidator",
          "type": "address"
        },
        {
          "indexed": false,
          "internalType": "uint256",
          "name": "amount",
          "type": "uint256"
        }
      ],
      "name": "LiquidationTriggered",
      "type": "event"
    },
    {
      "anonymous": false,
      "inputs": [
        {
          "indexed": true,
          "internalType": "bytes32",
          "name": "role",
          "type": "bytes32"
        },
        {
          "indexed": true,
          "internalType": "bytes32",
          "name": "previousAdminRole",
          "type": "bytes32"
        },
        {
          "indexed": true,
          "internalType": "bytes32",
          "name": "newAdminRole",
          "type": "bytes32"
        }
      ],
      "name": "RoleAdminChanged",
      "type": "event"
    },
    {
      "anonymous": false,
      "inputs": [
        {
          "indexed": true,
          "internalType": "bytes32",
          "name": "role",
          "type": "bytes32"
        },
        {
          "indexed": true,
          "internalType": "address",
          "name": "account",
          "type": "address"
        },
        {
          "indexed": true,
          "internalType": "address",
          "name": "sender",
          "type": "address"
        }
      ],
      "name": "RoleGranted",
      "type": "event"
    },
    {
      "anonymous": false,
      "inputs": [
        {
          "indexed": true,
          "internalType": "bytes32",
          "name": "role",
          "type": "bytes32"
        },
        {
          "indexed": true,
          "internalType": "address",
          "name": "account",
          "type": "address"
        },
        {
          "indexed": true,
          "internalType": "address",
          "name": "sender",
          "type": "address"
        }
      ],
      "name": "RoleRevoked",
      "type": "event"
    },
    {
      "inputs": [],
      "name": "DEFAULT_ADMIN_ROLE",
      "outputs": [
        {
          "internalType": "bytes32",
          "name": "",
          "type": "bytes32"
        }
      ],
      "stateMutability": "view",
      "type": "function",
      "constant": true
    },
    {
      "inputs": [],
      "name": "LIQUIDATOR_ROLE",
      "outputs": [
        {
          "internalType": "bytes32",
          "name": "",
          "type": "bytes32"
        }
      ],
      "stateMutability": "view",
      "type": "function",
      "constant": true
    },
    {
      "inputs": [
        {
          "internalType": "bytes32",
          "name": "role",
          "type": "bytes32"
        }
      ],
      "name": "getRoleAdmin",
      "outputs": [
        {
          "internalType": "bytes32",
          "name": "",
          "type": "bytes32"
        }
      ],
      "stateMutability": "view",
      "type": "function",
      "constant": true
    },
    {
      "inputs": [
        {
          "internalType": "bytes32",
          "name": "role",
          "type": "bytes32"
        },
        {
          "internalType": "address",
          "name": "account",
          "type": "address"
        }
      ],
      "name": "grantRole",
      "outputs": [],
      "stateMutability": "nonpayable",
      "type": "function"
    },
    {
      "inputs": [
        {
          "internalType": "bytes32",
          "name": "role",
          "type": "bytes32"
        },
        {
          "internalType": "address",
          "name": "account",
          "type": "address"
        }
      ],
      "name": "hasRole",
      "outputs": [
        {
          "internalType": "bool",
          "name": "",
          "type": "bool"
        }
      ],
      "stateMutability": "view",
      "type": "function",
      "constant": true
    },
    {
      "inputs": [],
      "name": "pool",
      "outputs": [
        {
          "internalType": "contract LendingPoolUpgradeable",
          "name": "",
          "type": "address"
        }
      ],
      "stateMutability": "view",
      "type": "function",
      "constant": true
    },
    {
      "inputs": [
        {
          "internalType": "bytes32",
          "name": "role",
          "type": "bytes32"
        },
        {
          "internalType": "address",
          "name": "callerConfirmation",
          "type": "address"
        }
      ],
      "name": "renounceRole",
      "outputs": [],
      "stateMutability": "nonpayable",
      "type": "function"
    },
    {
      "inputs": [
        {
          "internalType": "bytes32",
          "name": "role",
          "type": "bytes32"
        },
        {
          "internalType": "address",
          "name": "account",
          "type": "address"
        }
      ],
      "name": "revokeRole",
      "outputs": [],
      "stateMutability": "nonpayable",
      "type": "function"
    },
    {
      "inputs": [
        {
          "internalType": "bytes4",
          "name": "interfaceId",
          "type": "bytes4"
        }
      ],
      "name": "supportsInterface",
      "outputs": [
        {
          "internalType": "bool",
          "name": "",
          "type": "bool"
        }
      ],
      "stateMutability": "view",
      "type": "function",
      "constant": true
    },
    {
      "inputs": [
        {
          "internalType": "address",
          "name": "_user",
          "type": "address"
        }
      ],
      "name": "liquidatePosition",
      "outputs": [],
      "stateMutability": "nonpayable",
      "type": "function"
    }
  ],
  "bytecode": "0x608060405234801562000010575f80fd5b5060405162000fa738038062000fa783398181016040528101906200003691906200029f565b8160015f6101000a81548173ffffffffffffffffffffffffffffffffffffffff021916908373ffffffffffffffffffffffffffffffffffffffff1602179055506200008a5f801b826200009360201b60201c565b505050620002e4565b5f620000a683836200018e60201b60201c565b620001845760015f808581526020019081526020015f205f015f8473ffffffffffffffffffffffffffffffffffffffff1673ffffffffffffffffffffffffffffffffffffffff1681526020019081526020015f205f6101000a81548160ff02191690831515021790555062000120620001f160201b60201c565b73ffffffffffffffffffffffffffffffffffffffff168273ffffffffffffffffffffffffffffffffffffffff16847f2f8788117e7eff1d82e926ec794901d17c78024a50270940304540a733656f0d60405160405180910390a46001905062000188565b5f90505b92915050565b5f805f8481526020019081526020015f205f015f8373ffffffffffffffffffffffffffffffffffffffff1673ffffffffffffffffffffffffffffffffffffffff1681526020019081526020015f205f9054906101000a900460ff16905092915050565b5f33905090565b5f80fd5b5f73ffffffffffffffffffffffffffffffffffffffff82169050919050565b5f6200022782620001fc565b9050919050565b62000239816200021b565b811462000244575f80fd5b50565b5f8151905062000257816200022e565b92915050565b5f6200026982620001fc565b9050919050565b6200027b816200025d565b811462000286575f80fd5b50565b5f81519050620002998162000270565b92915050565b5f8060408385031215620002b857620002b7620001f8565b5b5f620002c78582860162000247565b9250506020620002da8582860162000289565b9150509250929050565b610cb580620002f25f395ff3fe608060405234801561000f575f80fd5b506004361061009c575f3560e01c806336568abe1161006457806336568abe146101585780637498a0f01461017457806391d1485414610190578063a217fddf146101c0578063d547741f146101de5761009c565b806301ffc9a7146100a057806316d8887a146100d057806316f0115b146100ee578063248a9ca31461010c5780632f2ff15d1461013c575b5f80fd5b6100ba60048036038101906100b59190610917565b6101fa565b6040516100c7919061095c565b60405180910390f35b6100d8610273565b6040516100e5919061098d565b60405180910390f35b6100f6610297565b6040516101039190610a20565b60405180910390f35b61012660048036038101906101219190610a63565b6102bc565b604051610133919061098d565b60405180910390f35b61015660048036038101906101519190610ac9565b6102d8565b005b610172600480360381019061016d9190610ac9565b6102fa565b005b61018e60048036038101906101899190610b07565b610375565b005b6101aa60048036038101906101a59190610ac9565b61058c565b6040516101b7919061095c565b60405180910390f35b6101c86105ef565b6040516101d5919061098d565b60405180910390f35b6101f860048036038101906101f39190610ac9565b6105f5565b005b5f7f7965db0b000000000000000000000000000000000000000000000000000000007bffffffffffffffffffffffffffffffffffffffffffffffffffffffff1916827bffffffffffffffffffffffffffffffffffffffffffffffffffffffff1916148061026c575061026b82610617565b5b9050919050565b7f5e17fc5225d4a099df75359ce1f405503ca79498a8dc46a7d583235a0ee45c1681565b60015f9054906101000a900473ffffffffffffffffffffffffffffffffffffffff1681565b5f805f8381526020019081526020015f20600101549050919050565b6102e1826102bc565b6102ea81610680565b6102f48383610694565b50505050565b61030261077d565b73ffffffffffffffffffffffffffffffffffffffff168173ffffffffffffffffffffffffffffffffffffffff1614610366576040517f6697b23200000000000000000000000000000000000000000000000000000000815260040160405180910390fd5b6103708282610784565b505050565b7f5e17fc5225d4a099df75359ce1f405503ca79498a8dc46a7d583235a0ee45c1661039f81610680565b5f60015f9054906101000a900473ffffffffffffffffffffffffffffffffffffffff1673ffffffffffffffffffffffffffffffffffffffff1663fe6bcd7c846040518263ffffffff1660e01b81526004016103fa9190610b41565b602060405180830381865afa158015610415573d5f803e3d5ffd5b505050506040513d601f19601f820116820180604052508101906104399190610b8d565b9050670de0b6b3a76400008110610485576040517f08c379a000000000000000000000000000000000000000000000000000000000815260040161047c90610c12565b60405180910390fd5b5f60015f9054906101000a900473ffffffffffffffffffffffffffffffffffffffff1673ffffffffffffffffffffffffffffffffffffffff166377593cc4856040518263ffffffff1660e01b81526004016104e09190610b41565b602060405180830381865afa1580156104fb573d5f803e3d5ffd5b505050506040513d601f19601f8201168201806040525081019061051f9190610b8d565b90503373ffffffffffffffffffffffffffffffffffffffff168473ffffffffffffffffffffffffffffffffffffffff167f600579f09aa94491feb9e44835ed73dff27bb45ea68b6c98a47a04d9b381c23e8360405161057e9190610c3f565b60405180910390a350505050565b5f805f8481526020019081526020015f205f015f8373ffffffffffffffffffffffffffffffffffffffff1673ffffffffffffffffffffffffffffffffffffffff1681526020019081526020015f205f9054906101000a900460ff16905092915050565b5f801b81565b6105fe826102bc565b61060781610680565b6106118383610784565b50505050565b5f7f01ffc9a7000000000000000000000000000000000000000000000000000000007bffffffffffffffffffffffffffffffffffffffffffffffffffffffff1916827bffffffffffffffffffffffffffffffffffffffffffffffffffffffff1916149050919050565b6106918161068c61077d565b61086d565b50565b5f61069f838361058c565b6107735760015f808581526020019081526020015f205f015f8473ffffffffffffffffffffffffffffffffffffffff1673ffffffffffffffffffffffffffffffffffffffff1681526020019081526020015f205f6101000a81548160ff02191690831515021790555061071061077d565b73ffffffffffffffffffffffffffffffffffffffff168273ffffffffffffffffffffffffffffffffffffffff16847f2f8788117e7eff1d82e926ec794901d17c78024a50270940304540a733656f0d60405160405180910390a460019050610777565b5f90505b92915050565b5f33905090565b5f61078f838361058c565b15610863575f805f8581526020019081526020015f205f015f8473ffffffffffffffffffffffffffffffffffffffff1673ffffffffffffffffffffffffffffffffffffffff1681526020019081526020015f205f6101000a81548160ff02191690831515021790555061080061077d565b73ffffffffffffffffffffffffffffffffffffffff168273ffffffffffffffffffffffffffffffffffffffff16847ff6391f5c32d9c69d2a47ea670b442974b53935d1edc7fd64eb21e047a839171b60405160405180910390a460019050610867565b5f90505b92915050565b610877828261058c565b6108ba5780826040517fe2517d3f0000000000000000000000000000000000000000000000000000000081526004016108b1929190610c58565b60405180910390fd5b5050565b5f80fd5b5f7fffffffff0000000000000000000000000000000000000000000000000000000082169050919050565b6108f6816108c2565b8114610900575f80fd5b50565b5f81359050610911816108ed565b92915050565b5f6020828403121561092c5761092b6108be565b5b5f61093984828501610903565b91505092915050565b5f8115159050919050565b61095681610942565b82525050565b5f60208201905061096f5f83018461094d565b92915050565b5f819050919050565b61098781610975565b82525050565b5f6020820190506109a05f83018461097e565b92915050565b5f73ffffffffffffffffffffffffffffffffffffffff82169050919050565b5f819050919050565b5f6109e86109e36109de846109a6565b6109c5565b6109a6565b9050919050565b5f6109f9826109ce565b9050919050565b5f610a0a826109ef565b9050919050565b610a1a81610a00565b82525050565b5f602082019050610a335f830184610a11565b92915050565b610a4281610975565b8114610a4c575f80fd5b50565b5f81359050610a5d81610a39565b92915050565b5f60208284031215610a7857610a776108be565b5b5f610a8584828501610a4f565b91505092915050565b5f610a98826109a6565b9050919050565b610aa881610a8e565b8114610ab2575f80fd5b50565b5f81359050610ac381610a9f565b92915050565b5f8060408385031215610adf57610ade6108be565b5b5f610aec85828601610a4f565b9250506020610afd85828601610ab5565b9150509250929050565b5f60208284031215610b1c57610b1b6108be565b5b5f610b2984828501610ab5565b91505092915050565b610b3b81610a8e565b82525050565b5f602082019050610b545f830184610b32565b92915050565b5f819050919050565b610b6c81610b5a565b8114610b76575f80fd5b50565b5f81519050610b8781610b63565b92915050565b5f60208284031215610ba257610ba16108be565b5b5f610baf84828501610b79565b91505092915050565b5f82825260208201905092915050565b7f506f736974696f6e206973206865616c746879000000000000000000000000005f82015250565b5f610bfc601383610bb8565b9150610c0782610bc8565b602082019050919050565b5f6020820190508181035f830152610c2981610bf0565b9050919050565b610c3981610b5a565b82525050565b5f602082019050610c525f830184610c30565b92915050565b5f604082019050610c6b5f830185610b32565b610c78602083018461097e565b939250505056fea26469706673582212207335d845b923a30917d0f002d086e313eab0d603220cfa976215575b2a7b6c6464736f6c63430008140033",
  "immutableReferences": {},
  "source": "// SPDX-License-Identifier: MIT\npragma solidity ^0.8.20;\n\nimport \"./LendingPoolUpgradeable.sol\";\nimport \"@openzeppelin/contracts/access/AccessControl.sol\";\n\ncontract Liquidation is AccessControl {\n    LendingPoolUpgradeable public pool;\n    bytes32 public constant LIQUIDATOR_ROLE = keccak256(\"LIQUIDATOR_ROLE\");\n\n    constructor(address payable _pool, address _admin) {\n        pool = LendingPoolUpgradeable(_pool);\n        _grantRole(DEFAULT_ADMIN_ROLE, _admin);\n    }\n\n    /**\n     * @dev Liquidates a position if Health Factor < 1.\n     * Liquidator pays the debt and receives collateral + bonus.\n     */\n    function liquidatePosition(address _user) external onlyRole(LIQUIDATOR_ROLE) {\n        uint256 hf = pool.getHealthFactor(_user);\n        require(hf < 1e18, \"Position is healthy\");\n\n        uint256 debt = pool.userBorrows(_user);\n        // Logic to transfer debt from msg.sender and collateral to msg.sender\n        // This is a simplified simulation of the Aave liquidation call\n        emit LiquidationTriggered(_user, msg.sender, debt);\n    }\n\n    event LiquidationTriggered(address indexed user, address indexed liquidator, uint256 amount);\n}",
  "sourcePath": "D:\\Downloads\\Blockchain\\TY SEM2\\DeFiEnterprise\\blockchain\\contracts\\Liquidation.sol",
  "compiler": {
    "name": "solc",
    "version": "0.8.20+commit.a1b79de6.Emscripten.clang"
  },
  "schemaVersion": "3.4.16",
  "updatedAt": "2026-03-30T06:25:46.921Z",
  "networkType": "ethereum",
  "devdoc": {
    "errors": {
      "AccessControlBadConfirmation()": [
        {
          "details": "The caller of a function is not the expected one. NOTE: Don't confuse with {AccessControlUnauthorizedAccount}."
        }
      ],
      "AccessControlUnauthorizedAccount(address,bytes32)": [
        {
          "details": "The `account` is missing a role."
        }
      ]
    },
    "events": {
      "RoleAdminChanged(bytes32,bytes32,bytes32)": {
        "details": "Emitted when `newAdminRole` is set as ``role``'s admin role, replacing `previousAdminRole` `DEFAULT_ADMIN_ROLE` is the starting admin for all roles, despite {RoleAdminChanged} not being emitted signaling this."
      },
      "RoleGranted(bytes32,address,address)": {
        "details": "Emitted when `account` is granted `role`. `sender` is the account that originated the contract call, an admin role bearer except when using {AccessControl-_setupRole}."
      },
      "RoleRevoked(bytes32,address,address)": {
        "details": "Emitted when `account` is revoked `role`. `sender` is the account that originated the contract call:   - if using `revokeRole`, it is the admin role bearer   - if using `renounceRole`, it is the role bearer (i.e. `account`)"
      }
    },
    "kind": "dev",
    "methods": {
      "getRoleAdmin(bytes32)": {
        "details": "Returns the admin role that controls `role`. See {grantRole} and {revokeRole}. To change a role's admin, use {_setRoleAdmin}."
      },
      "grantRole(bytes32,address)": {
        "details": "Grants `role` to `account`. If `account` had not been already granted `role`, emits a {RoleGranted} event. Requirements: - the caller must have ``role``'s admin role. May emit a {RoleGranted} event."
      },
      "hasRole(bytes32,address)": {
        "details": "Returns `true` if `account` has been granted `role`."
      },
      "liquidatePosition(address)": {
        "details": "Liquidates a position if Health Factor < 1. Liquidator pays the debt and receives collateral + bonus."
      },
      "renounceRole(bytes32,address)": {
        "details": "Revokes `role` from the calling account. Roles are often managed via {grantRole} and {revokeRole}: this function's purpose is to provide a mechanism for accounts to lose their privileges if they are compromised (such as when a trusted device is misplaced). If the calling account had been revoked `role`, emits a {RoleRevoked} event. Requirements: - the caller must be `callerConfirmation`. May emit a {RoleRevoked} event."
      },
      "revokeRole(bytes32,address)": {
        "details": "Revokes `role` from `account`. If `account` had been granted `role`, emits a {RoleRevoked} event. Requirements: - the caller must have ``role``'s admin role. May emit a {RoleRevoked} event."
      },
      "supportsInterface(bytes4)": {
        "details": "See {IERC165-supportsInterface}."
      }
    },
    "version": 1
  },
  "userdoc": {
    "kind": "user",
    "methods": {},
    "version": 1
  }
}