{
  "contractName": "Oracle",
  "abi": [
    {
      "inputs": [],
      "stateMutability": "nonpayable",
      "type": "constructor"
    },
    {
      "inputs": [
        {
          "internalType": "address",
          "name": "owner",
          "type": "address"
        }
      ],
      "name": "OwnableInvalidOwner",
      "type": "error"
    },
    {
      "inputs": [
        {
          "internalType": "address",
          "name": "account",
          "type": "address"
        }
      ],
      "name": "OwnableUnauthorizedAccount",
      "type": "error"
    },
    {
      "anonymous": false,
      "inputs": [
        {
          "indexed": true,
          "internalType": "address",
          "name": "previousOwner",
          "type": "address"
        },
        {
          "indexed": true,
          "internalType": "address",
          "name": "newOwner",
          "type": "address"
        }
      ],
      "name": "OwnershipTransferred",
      "type": "event"
    },
    {
      "anonymous": false,
      "inputs": [
        {
          "indexed": false,
          "internalType": "string",
          "name": "symbol",
          "type": "string"
        },
        {
          "indexed": false,
          "internalType": "uint256",
          "name": "price",
          "type": "uint256"
        },
        {
          "indexed": false,
          "internalType": "uint256",
          "name": "timestamp",
          "type": "uint256"
        }
      ],
      "name": "PriceUpdated",
      "type": "event"
    },
    {
      "inputs": [],
      "name": "owner",
      "outputs": [
        {
          "internalType": "address",
          "name": "",
          "type": "address"
        }
      ],
      "stateMutability": "view",
      "type": "function",
      "constant": true
    },
    {
      "inputs": [],
      "name": "renounceOwnership",
      "outputs": [],
      "stateMutability": "nonpayable",
      "type": "function"
    },
    {
      "inputs": [
        {
          "internalType": "address",
          "name": "newOwner",
          "type": "address"
        }
      ],
      "name": "transferOwnership",
      "outputs": [],
      "stateMutability": "nonpayable",
      "type": "function"
    },
    {
      "inputs": [
        {
          "internalType": "string",
          "name": "_symbol",
          "type": "string"
        },
        {
          "internalType": "uint256",
          "name": "_price",
          "type": "uint256"
        }
      ],
      "name": "setPrice",
      "outputs": [],
      "stateMutability": "nonpayable",
      "type": "function"
    },
    {
      "inputs": [
        {
          "internalType": "string",
          "name": "_symbol",
          "type": "string"
        }
      ],
      "name": "getPrice",
      "outputs": [
        {
          "internalType": "uint256",
          "name": "",
          "type": "uint256"
        }
      ],
      "stateMutability": "view",
      "type": "function",
      "constant": true
    }
  ],
  "bytecode": "0x608060405234801561000f575f80fd5b50335f73ffffffffffffffffffffffffffffffffffffffff168173ffffffffffffffffffffffffffffffffffffffff1603610081575f6040517f1e4fbdf70000000000000000000000000000000000000000000000000000000081526004016100789190610196565b60405180910390fd5b6100908161009660201b60201c565b506101af565b5f805f9054906101000a900473ffffffffffffffffffffffffffffffffffffffff169050815f806101000a81548173ffffffffffffffffffffffffffffffffffffffff021916908373ffffffffffffffffffffffffffffffffffffffff1602179055508173ffffffffffffffffffffffffffffffffffffffff168173ffffffffffffffffffffffffffffffffffffffff167f8be0079c531659141344cd1fd0a4f28419497f9722a3daafe3b4186f6b6457e060405160405180910390a35050565b5f73ffffffffffffffffffffffffffffffffffffffff82169050919050565b5f61018082610157565b9050919050565b61019081610176565b82525050565b5f6020820190506101a95f830184610187565b92915050565b6108a4806101bc5f395ff3fe608060405234801561000f575f80fd5b5060043610610055575f3560e01c806322e0119214610059578063524f388914610075578063715018a6146100a55780638da5cb5b146100af578063f2fde38b146100cd575b5f80fd5b610073600480360381019061006e919061058a565b6100e9565b005b61008f600480360381019061008a91906105e4565b610176565b60405161009c919061063a565b60405180910390f35b6100ad6101fd565b005b6100b7610210565b6040516100c49190610692565b60405180910390f35b6100e760048036038101906100e291906106d5565b610237565b005b6100f16102bb565b80600183604051610102919061076c565b90815260200160405180910390208190555042600283604051610125919061076c565b9081526020016040518091039020819055507f6e838f2a03741f5f2aff5480963b672fb0dd8430a4dc75db9b67ce009733c9fe82824260405161016a939291906107ca565b60405180910390a15050565b5f80600183604051610188919061076c565b908152602001604051809103902054116101d7576040517f08c379a00000000000000000000000000000000000000000000000000000000081526004016101ce90610850565b60405180910390fd5b6001826040516101e7919061076c565b9081526020016040518091039020549050919050565b6102056102bb565b61020e5f610342565b565b5f805f9054906101000a900473ffffffffffffffffffffffffffffffffffffffff16905090565b61023f6102bb565b5f73ffffffffffffffffffffffffffffffffffffffff168173ffffffffffffffffffffffffffffffffffffffff16036102af575f6040517f1e4fbdf70000000000000000000000000000000000000000000000000000000081526004016102a69190610692565b60405180910390fd5b6102b881610342565b50565b6102c3610403565b73ffffffffffffffffffffffffffffffffffffffff166102e1610210565b73ffffffffffffffffffffffffffffffffffffffff161461034057610304610403565b6040517f118cdaa70000000000000000000000000000000000000000000000000000000081526004016103379190610692565b60405180910390fd5b565b5f805f9054906101000a900473ffffffffffffffffffffffffffffffffffffffff169050815f806101000a81548173ffffffffffffffffffffffffffffffffffffffff021916908373ffffffffffffffffffffffffffffffffffffffff1602179055508173ffffffffffffffffffffffffffffffffffffffff168173ffffffffffffffffffffffffffffffffffffffff167f8be0079c531659141344cd1fd0a4f28419497f9722a3daafe3b4186f6b6457e060405160405180910390a35050565b5f33905090565b5f604051905090565b5f80fd5b5f80fd5b5f80fd5b5f80fd5b5f601f19601f8301169050919050565b7f4e487b71000000000000000000000000000000000000000000000000000000005f52604160045260245ffd5b61046982610423565b810181811067ffffffffffffffff8211171561048857610487610433565b5b80604052505050565b5f61049a61040a565b90506104a68282610460565b919050565b5f67ffffffffffffffff8211156104c5576104c4610433565b5b6104ce82610423565b9050602081019050919050565b828183375f83830152505050565b5f6104fb6104f6846104ab565b610491565b9050828152602081018484840111156105175761051661041f565b5b6105228482856104db565b509392505050565b5f82601f83011261053e5761053d61041b565b5b813561054e8482602086016104e9565b91505092915050565b5f819050919050565b61056981610557565b8114610573575f80fd5b50565b5f8135905061058481610560565b92915050565b5f80604083850312156105a05761059f610413565b5b5f83013567ffffffffffffffff8111156105bd576105bc610417565b5b6105c98582860161052a565b92505060206105da85828601610576565b9150509250929050565b5f602082840312156105f9576105f8610413565b5b5f82013567ffffffffffffffff81111561061657610615610417565b5b6106228482850161052a565b91505092915050565b61063481610557565b82525050565b5f60208201905061064d5f83018461062b565b92915050565b5f73ffffffffffffffffffffffffffffffffffffffff82169050919050565b5f61067c82610653565b9050919050565b61068c81610672565b82525050565b5f6020820190506106a55f830184610683565b92915050565b6106b481610672565b81146106be575f80fd5b50565b5f813590506106cf816106ab565b92915050565b5f602082840312156106ea576106e9610413565b5b5f6106f7848285016106c1565b91505092915050565b5f81519050919050565b5f81905092915050565b5f5b83811015610731578082015181840152602081019050610716565b5f8484015250505050565b5f61074682610700565b610750818561070a565b9350610760818560208601610714565b80840191505092915050565b5f610777828461073c565b915081905092915050565b5f82825260208201905092915050565b5f61079c82610700565b6107a68185610782565b93506107b6818560208601610714565b6107bf81610423565b840191505092915050565b5f6060820190508181035f8301526107e28186610792565b90506107f1602083018561062b565b6107fe604083018461062b565b949350505050565b7f5072696365206e6f7420617661696c61626c65000000000000000000000000005f82015250565b5f61083a601383610782565b915061084582610806565b602082019050919050565b5f6020820190508181035f8301526108678161082e565b905091905056fea2646970667358221220df6e3897420e388611853da4fbe014be627bab2fbaa2409cf75eac66e21d170264736f6c63430008140033",
  "immutableReferences": {},
  "source": "// SPDX-License-Identifier: MIT\npragma solidity ^0.8.20;\n\nimport \"@openzeppelin/contracts/access/Ownable.sol\";\n\ncontract Oracle is Ownable {\n    mapping(string => uint256) private prices;\n    mapping(string => uint256) private lastUpdated;\n\n    event PriceUpdated(string symbol, uint256 price, uint256 timestamp);\n\n    constructor() Ownable(msg.sender) {}\n\n    function setPrice(string memory _symbol, uint256 _price) external onlyOwner {\n        prices[_symbol] = _price;\n        lastUpdated[_symbol] = block.timestamp;\n        emit PriceUpdated(_symbol, _price, block.timestamp);\n    }\n\n    function getPrice(string memory _symbol) external view returns (uint256) {\n        require(prices[_symbol] > 0, \"Price not available\");\n        return prices[_symbol];\n    }\n}",
  "sourcePath": "D:\\Downloads\\Blockchain\\TY SEM2\\DeFiEnterprise\\blockchain\\contracts\\Oracle.sol",
  "compiler": {
    "name": "solc",
    "version": "0.8.20+commit.a1b79de6.Emscripten.clang"
  },
  "schemaVersion": "3.4.16",
  "updatedAt": "2026-03-30T06:25:46.927Z",
  "networkType": "ethereum",
  "devdoc": {
    "errors": {
      "OwnableInvalidOwner(address)": [
        {
          "details": "The owner is not a valid owner account. (eg. `address(0)`)"
        }
      ],
      "OwnableUnauthorizedAccount(address)": [
        {
          "details": "The caller account is not authorized to perform an operation."
        }
      ]
    },
    "kind": "dev",
    "methods": {
      "owner()": {
        "details": "Returns the address of the current owner."
      },
      "renounceOwnership()": {
        "details": "Leaves the contract without owner. It will not be possible to call `onlyOwner` functions. Can only be called by the current owner. NOTE: Renouncing ownership will leave the contract without an owner, thereby disabling any functionality that is only available to the owner."
      },
      "transferOwnership(address)": {
        "details": "Transfers ownership of the contract to a new account (`newOwner`). Can only be called by the current owner."
      }
    },
    "version": 1
  },
  "userdoc": {
    "kind": "user",
    "methods": {},
    "version": 1
  }
}