{
  "contractName": "ShardedPool",
  "abi": [
    {
      "inputs": [],
      "stateMutability": "nonpayable",
      "type": "constructor"
    },
    {
      "inputs": [
        {
          "internalType": "enum ShardedPool.ShardType",
          "name": "",
          "type": "uint8"
        }
      ],
      "name": "shards",
      "outputs": [
        {
          "internalType": "uint256",
          "name": "totalLiquidity",
          "type": "uint256"
        },
        {
          "internalType": "uint256",
          "name": "interestRate",
          "type": "uint256"
        },
        {
          "internalType": "uint256",
          "name": "collateralFactor",
          "type": "uint256"
        },
        {
          "internalType": "bool",
          "name": "isActive",
          "type": "bool"
        }
      ],
      "stateMutability": "view",
      "type": "function",
      "constant": true
    },
    {
      "inputs": [
        {
          "internalType": "enum ShardedPool.ShardType",
          "name": "_type",
          "type": "uint8"
        },
        {
          "internalType": "uint256",
          "name": "_amount",
          "type": "uint256"
        },
        {
          "internalType": "bool",
          "name": "_isAdd",
          "type": "bool"
        }
      ],
      "name": "updateLiquidity",
      "outputs": [],
      "stateMutability": "nonpayable",
      "type": "function"
    },
    {
      "inputs": [
        {
          "internalType": "enum ShardedPool.ShardType",
          "name": "_type",
          "type": "uint8"
        }
      ],
      "name": "getShardInfo",
      "outputs": [
        {
          "components": [
            {
              "internalType": "uint256",
              "name": "totalLiquidity",
              "type": "uint256"
            },
            {
              "internalType": "uint256",
              "name": "interestRate",
              "type": "uint256"
            },
            {
              "internalType": "uint256",
              "name": "collateralFactor",
              "type": "uint256"
            },
            {
              "internalType": "bool",
              "name": "isActive",
              "type": "bool"
            }
          ],
          "internalType": "struct ShardedPool.Shard",
          "name": "",
          "type": "tuple"
        }
      ],
      "stateMutability": "view",
      "type": "function",
      "constant": true
    }
  ],
  "bytecode": "0x608060405234801561000f575f80fd5b5060405180608001604052805f81526020016101f4815260200160508152602001600115158152505f8080600281111561004c5761004b6101e1565b5b600281111561005e5761005d6101e1565b5b81526020019081526020015f205f820151815f015560208201518160010155604082015181600201556060820151816003015f6101000a81548160ff02191690831515021790555090505060405180608001604052805f815260200161012c8152602001605a8152602001600115158152505f80600160028111156100e6576100e56101e1565b5b60028111156100f8576100f76101e1565b5b81526020019081526020015f205f820151815f015560208201518160010155604082015181600201556060820151816003015f6101000a81548160ff02191690831515021790555090505060405180608001604052805f81526020016105dc815260200160328152602001600115158152505f8060028081111561017f5761017e6101e1565b5b6002811115610191576101906101e1565b5b81526020019081526020015f205f820151815f015560208201518160010155604082015181600201556060820151816003015f6101000a81548160ff02191690831515021790555090505061020e565b7f4e487b71000000000000000000000000000000000000000000000000000000005f52602160045260245ffd5b6104658061021b5f395ff3fe608060405234801561000f575f80fd5b506004361061003f575f3560e01c80632a9a5f1d1461004357806366a2d9ec1461005f578063c895911f1461008f575b5f80fd5b61005d6004803603810190610058919061029c565b6100c2565b005b610079600480360381019061007491906102ec565b61012b565b6040516100869190610388565b60405180910390f35b6100a960048036038101906100a491906102ec565b6101b0565b6040516100b994939291906103bf565b60405180910390f35b5f805f8560028111156100d8576100d7610402565b5b60028111156100ea576100e9610402565b5b81526020019081526020015f20905081156101145782815f015f8282540192505081905550610125565b82815f015f82825403925050819055505b50505050565b6101336101e7565b5f8083600281111561014857610147610402565b5b600281111561015a57610159610402565b5b81526020019081526020015f206040518060800160405290815f82015481526020016001820154815260200160028201548152602001600382015f9054906101000a900460ff1615151515815250509050919050565b5f602052805f5260405f205f91509050805f015490806001015490806002015490806003015f9054906101000a900460ff16905084565b60405180608001604052805f81526020015f81526020015f81526020015f151581525090565b5f80fd5b6003811061021d575f80fd5b50565b5f8135905061022e81610211565b92915050565b5f819050919050565b61024681610234565b8114610250575f80fd5b50565b5f813590506102618161023d565b92915050565b5f8115159050919050565b61027b81610267565b8114610285575f80fd5b50565b5f8135905061029681610272565b92915050565b5f805f606084860312156102b3576102b261020d565b5b5f6102c086828701610220565b93505060206102d186828701610253565b92505060406102e286828701610288565b9150509250925092565b5f602082840312156103015761030061020d565b5b5f61030e84828501610220565b91505092915050565b61032081610234565b82525050565b61032f81610267565b82525050565b608082015f8201516103495f850182610317565b50602082015161035c6020850182610317565b50604082015161036f6040850182610317565b5060608201516103826060850182610326565b50505050565b5f60808201905061039b5f830184610335565b92915050565b6103aa81610234565b82525050565b6103b981610267565b82525050565b5f6080820190506103d25f8301876103a1565b6103df60208301866103a1565b6103ec60408301856103a1565b6103f960608301846103b0565b95945050505050565b7f4e487b71000000000000000000000000000000000000000000000000000000005f52602160045260245ffdfea26469706673582212203543a19a9e3f73eb9dbb9836d6b03632985cd8cf26a5d426ecc082f2b5f07bf464736f6c63430008140033",
  "immutableReferences": {},
  "source": "// SPDX-License-Identifier: MIT\npragma solidity ^0.8.20;\n\n/**\n * @title ShardedPool\n * @dev Implements Pool Segmentation (Sharding) to isolate risk.\n * Each shard has independent liquidity and risk parameters.\n */\ncontract ShardedPool {\n    enum ShardType { ETH, STABLE, HIGH_RISK }\n\n    struct Shard {\n        uint256 totalLiquidity;\n        uint256 interestRate; // Base in BP (1/100th of percent)\n        uint256 collateralFactor;\n        bool isActive;\n    }\n\n    mapping(ShardType => Shard) public shards;\n\n    constructor() {\n        shards[ShardType.ETH] = Shard(0, 500, 80, true);         // 5% Int, 80% LTV\n        shards[ShardType.STABLE] = Shard(0, 300, 90, true);      // 3% Int, 90% LTV\n        shards[ShardType.HIGH_RISK] = Shard(0, 1500, 50, true);  // 15% Int, 50% LTV\n    }\n\n    // Gas Optimized using calldata and unchecked math\n    function updateLiquidity(ShardType _type, uint256 _amount, bool _isAdd) external {\n        Shard storage shard = shards[_type];\n        unchecked {\n            if (_isAdd) {\n                shard.totalLiquidity += _amount;\n            } else {\n                shard.totalLiquidity -= _amount;\n            }\n        }\n    }\n\n    function getShardInfo(ShardType _type) external view returns (Shard memory) {\n        return shards[_type];\n    }\n}",
  "sourcePath": "D:\\Downloads\\Blockchain\\TY SEM2\\DeFiEnterprise\\blockchain\\contracts\\ShardedPool.sol",
  "compiler": {
    "name": "solc",
    "version": "0.8.20+commit.a1b79de6.Emscripten.clang"
  },
  "schemaVersion": "3.4.16",
  "updatedAt": "2026-03-30T06:25:46.889Z",
  "networkType": "ethereum",
  "devdoc": {
    "details": "Implements Pool Segmentation (Sharding) to isolate risk. Each shard has independent liquidity and risk parameters.",
    "kind": "dev",
    "methods": {},
    "title": "ShardedPool",
    "version": 1
  },
  "userdoc": {
    "kind": "user",
    "methods": {},
    "version": 1
  }
}