{
  "contractName": "StateChannel",
  "abi": [
    {
      "inputs": [],
      "name": "ECDSAInvalidSignature",
      "type": "error"
    },
    {
      "inputs": [
        {
          "internalType": "uint256",
          "name": "length",
          "type": "uint256"
        }
      ],
      "name": "ECDSAInvalidSignatureLength",
      "type": "error"
    },
    {
      "inputs": [
        {
          "internalType": "bytes32",
          "name": "s",
          "type": "bytes32"
        }
      ],
      "name": "ECDSAInvalidSignatureS",
      "type": "error"
    },
    {
      "inputs": [],
      "name": "ReentrancyGuardReentrantCall",
      "type": "error"
    },
    {
      "anonymous": false,
      "inputs": [
        {
          "indexed": true,
          "internalType": "bytes32",
          "name": "channelId",
          "type": "bytes32"
        },
        {
          "indexed": false,
          "internalType": "uint256",
          "name": "finalBalance",
          "type": "uint256"
        }
      ],
      "name": "ChannelClosed",
      "type": "event"
    },
    {
      "anonymous": false,
      "inputs": [
        {
          "indexed": true,
          "internalType": "bytes32",
          "name": "channelId",
          "type": "bytes32"
        },
        {
          "indexed": false,
          "internalType": "address",
          "name": "borrower",
          "type": "address"
        },
        {
          "indexed": false,
          "internalType": "uint256",
          "name": "amount",
          "type": "uint256"
        }
      ],
      "name": "ChannelOpened",
      "type": "event"
    },
    {
      "inputs": [
        {
          "internalType": "bytes32",
          "name": "",
          "type": "bytes32"
        }
      ],
      "name": "channels",
      "outputs": [
        {
          "internalType": "address",
          "name": "borrower",
          "type": "address"
        },
        {
          "internalType": "address",
          "name": "lender",
          "type": "address"
        },
        {
          "internalType": "uint256",
          "name": "balance",
          "type": "uint256"
        },
        {
          "internalType": "uint256",
          "name": "expiration",
          "type": "uint256"
        }
      ],
      "stateMutability": "view",
      "type": "function",
      "constant": true
    },
    {
      "inputs": [
        {
          "internalType": "address",
          "name": "_lender",
          "type": "address"
        },
        {
          "internalType": "uint256",
          "name": "_duration",
          "type": "uint256"
        }
      ],
      "name": "openChannel",
      "outputs": [],
      "stateMutability": "payable",
      "type": "function",
      "payable": true
    },
    {
      "inputs": [
        {
          "internalType": "bytes32",
          "name": "_id",
          "type": "bytes32"
        },
        {
          "internalType": "uint256",
          "name": "_finalBalance",
          "type": "uint256"
        },
        {
          "internalType": "bytes",
          "name": "_signature",
          "type": "bytes"
        }
      ],
      "name": "closeChannel",
      "outputs": [],
      "stateMutability": "nonpayable",
      "type": "function"
    }
  ],
  "bytecode": "0x608060405234801561000f575f80fd5b5060015f81905550610f8f806100245f395ff3fe608060405260043610610033575f3560e01c806324f453d1146100375780637a7ebd7b14610053578063bac068ce14610092575b5f80fd5b610051600480360381019061004c9190610962565b6100ba565b005b34801561005e575f80fd5b50610079600480360381019061007491906109d3565b610231565b6040516100899493929190610a1c565b60405180910390f35b34801561009d575f80fd5b506100b860048036038101906100b39190610b9b565b61029b565b005b5f3383426040516020016100d093929190610c6c565b60405160208183030381529060405280519060200120905060405180608001604052803373ffffffffffffffffffffffffffffffffffffffff1681526020018473ffffffffffffffffffffffffffffffffffffffff168152602001348152602001834261013d9190610cd5565b81525060015f8381526020019081526020015f205f820151815f015f6101000a81548173ffffffffffffffffffffffffffffffffffffffff021916908373ffffffffffffffffffffffffffffffffffffffff1602179055506020820151816001015f6101000a81548173ffffffffffffffffffffffffffffffffffffffff021916908373ffffffffffffffffffffffffffffffffffffffff1602179055506040820151816002015560608201518160030155905050807fcc727cffb5e41959612a93089e3b4b002a3e386e1f8006d2212eafcf5a0d153b3334604051610224929190610d08565b60405180910390a2505050565b6001602052805f5260405f205f91509050805f015f9054906101000a900473ffffffffffffffffffffffffffffffffffffffff1690806001015f9054906101000a900473ffffffffffffffffffffffffffffffffffffffff16908060020154908060030154905084565b6102a361057c565b5f60015f8581526020019081526020015f20905080600301544211156102fe576040517f08c379a00000000000000000000000000000000000000000000000000000000081526004016102f590610d89565b60405180910390fd5b5f8484604051602001610312929190610dc7565b6040516020818303038152906040528051906020012090505f610334826105c0565b90505f61034a85836105f390919063ffffffff16565b9050835f015f9054906101000a900473ffffffffffffffffffffffffffffffffffffffff1673ffffffffffffffffffffffffffffffffffffffff168173ffffffffffffffffffffffffffffffffffffffff16146103dc576040517f08c379a00000000000000000000000000000000000000000000000000000000081526004016103d390610e3c565b60405180910390fd5b836001015f9054906101000a900473ffffffffffffffffffffffffffffffffffffffff1673ffffffffffffffffffffffffffffffffffffffff166108fc8790811502906040515f60405180830381858888f19350505050158015610442573d5f803e3d5ffd5b505f8685600201546104549190610e5a565b90505f8111156104c557845f015f9054906101000a900473ffffffffffffffffffffffffffffffffffffffff1673ffffffffffffffffffffffffffffffffffffffff166108fc8290811502906040515f60405180830381858888f193505050501580156104c3573d5f803e3d5ffd5b505b60015f8981526020019081526020015f205f8082015f6101000a81549073ffffffffffffffffffffffffffffffffffffffff0219169055600182015f6101000a81549073ffffffffffffffffffffffffffffffffffffffff0219169055600282015f9055600382015f90555050877f74e9aa18d6bb2c4887e76896296ce0a296a2e8315bb319b08b7607ff92fbef79886040516105629190610e8d565b60405180910390a2505050505061057761061d565b505050565b60025f54036105b7576040517f3ee5aeb500000000000000000000000000000000000000000000000000000000815260040160405180910390fd5b60025f81905550565b5f7f19457468657265756d205369676e6564204d6573736167653a0a3332000000005f5281601c52603c5f209050919050565b5f805f806106018686610626565b925092509250610611828261067b565b82935050505092915050565b60015f81905550565b5f805f6041845103610666575f805f602087015192506040870151915060608701515f1a9050610658888285856107dd565b955095509550505050610674565b5f600285515f1b9250925092505b9250925092565b5f600381111561068e5761068d610ea6565b5b8260038111156106a1576106a0610ea6565b5b03156107d957600160038111156106bb576106ba610ea6565b5b8260038111156106ce576106cd610ea6565b5b03610705576040517ff645eedf00000000000000000000000000000000000000000000000000000000815260040160405180910390fd5b6002600381111561071957610718610ea6565b5b82600381111561072c5761072b610ea6565b5b0361077057805f1c6040517ffce698f70000000000000000000000000000000000000000000000000000000081526004016107679190610e8d565b60405180910390fd5b60038081111561078357610782610ea6565b5b82600381111561079657610795610ea6565b5b036107d857806040517fd78bce0c0000000000000000000000000000000000000000000000000000000081526004016107cf9190610ee2565b60405180910390fd5b5b5050565b5f805f7f7fffffffffffffffffffffffffffffff5d576e7357a4501ddfe92f46681b20a0845f1c1115610819575f6003859250925092506108ba565b5f6001888888886040515f815260200160405260405161083c9493929190610f16565b6020604051602081039080840390855afa15801561085c573d5f803e3d5ffd5b5050506020604051035190505f73ffffffffffffffffffffffffffffffffffffffff168173ffffffffffffffffffffffffffffffffffffffff16036108ad575f60015f801b935093509350506108ba565b805f805f1b935093509350505b9450945094915050565b5f604051905090565b5f80fd5b5f80fd5b5f73ffffffffffffffffffffffffffffffffffffffff82169050919050565b5f6108fe826108d5565b9050919050565b61090e816108f4565b8114610918575f80fd5b50565b5f8135905061092981610905565b92915050565b5f819050919050565b6109418161092f565b811461094b575f80fd5b50565b5f8135905061095c81610938565b92915050565b5f8060408385031215610978576109776108cd565b5b5f6109858582860161091b565b92505060206109968582860161094e565b9150509250929050565b5f819050919050565b6109b2816109a0565b81146109bc575f80fd5b50565b5f813590506109cd816109a9565b92915050565b5f602082840312156109e8576109e76108cd565b5b5f6109f5848285016109bf565b91505092915050565b610a07816108f4565b82525050565b610a168161092f565b82525050565b5f608082019050610a2f5f8301876109fe565b610a3c60208301866109fe565b610a496040830185610a0d565b610a566060830184610a0d565b95945050505050565b5f80fd5b5f80fd5b5f601f19601f8301169050919050565b7f4e487b71000000000000000000000000000000000000000000000000000000005f52604160045260245ffd5b610aad82610a67565b810181811067ffffffffffffffff82111715610acc57610acb610a77565b5b80604052505050565b5f610ade6108c4565b9050610aea8282610aa4565b919050565b5f67ffffffffffffffff821115610b0957610b08610a77565b5b610b1282610a67565b9050602081019050919050565b828183375f83830152505050565b5f610b3f610b3a84610aef565b610ad5565b905082815260208101848484011115610b5b57610b5a610a63565b5b610b66848285610b1f565b509392505050565b5f82601f830112610b8257610b81610a5f565b5b8135610b92848260208601610b2d565b91505092915050565b5f805f60608486031215610bb257610bb16108cd565b5b5f610bbf868287016109bf565b9350506020610bd08682870161094e565b925050604084013567ffffffffffffffff811115610bf157610bf06108d1565b5b610bfd86828701610b6e565b9150509250925092565b5f8160601b9050919050565b5f610c1d82610c07565b9050919050565b5f610c2e82610c13565b9050919050565b610c46610c41826108f4565b610c24565b82525050565b5f819050919050565b610c66610c618261092f565b610c4c565b82525050565b5f610c778286610c35565b601482019150610c878285610c35565b601482019150610c978284610c55565b602082019150819050949350505050565b7f4e487b71000000000000000000000000000000000000000000000000000000005f52601160045260245ffd5b5f610cdf8261092f565b9150610cea8361092f565b9250828201905080821115610d0257610d01610ca8565b5b92915050565b5f604082019050610d1b5f8301856109fe565b610d286020830184610a0d565b9392505050565b5f82825260208201905092915050565b7f4368616e6e656c206578706972656400000000000000000000000000000000005f82015250565b5f610d73600f83610d2f565b9150610d7e82610d3f565b602082019050919050565b5f6020820190508181035f830152610da081610d67565b9050919050565b5f819050919050565b610dc1610dbc826109a0565b610da7565b82525050565b5f610dd28285610db0565b602082019150610de28284610c55565b6020820191508190509392505050565b7f496e76616c6964207369676e61747572650000000000000000000000000000005f82015250565b5f610e26601183610d2f565b9150610e3182610df2565b602082019050919050565b5f6020820190508181035f830152610e5381610e1a565b9050919050565b5f610e648261092f565b9150610e6f8361092f565b9250828203905081811115610e8757610e86610ca8565b5b92915050565b5f602082019050610ea05f830184610a0d565b92915050565b7f4e487b71000000000000000000000000000000000000000000000000000000005f52602160045260245ffd5b610edc816109a0565b82525050565b5f602082019050610ef55f830184610ed3565b92915050565b5f60ff82169050919050565b610f1081610efb565b82525050565b5f608082019050610f295f830187610ed3565b610f366020830186610f07565b610f436040830185610ed3565b610f506060830184610ed3565b9594505050505056fea2646970667358221220834485ca32688d0f1f1f2ba639799a1f811de2defd74a8fd62c27ad199d98feb64736f6c63430008140033",
  "immutableReferences": {},
  "source": "// MODIFIED CODE: Fixed the extension from .js to .sol\n// SPDX-License-Identifier: MIT\npragma solidity ^0.8.20;\n\nimport \"@openzeppelin/contracts/utils/cryptography/ECDSA.sol\";\nimport \"@openzeppelin/contracts/utils/cryptography/MessageHashUtils.sol\"; // CHANGED .js to .sol\nimport \"@openzeppelin/contracts/utils/ReentrancyGuard.sol\";\n\ncontract StateChannel is ReentrancyGuard {\n    using ECDSA for bytes32;\n\n    struct Channel {\n        address borrower;\n        address lender;\n        uint256 balance;\n        uint256 expiration;\n    }\n\n    mapping(bytes32 => Channel) public channels;\n\n    event ChannelOpened(bytes32 indexed channelId, address borrower, uint256 amount);\n    event ChannelClosed(bytes32 indexed channelId, uint256 finalBalance);\n\n    function openChannel(address _lender, uint256 _duration) external payable {\n        bytes32 id = keccak256(abi.encodePacked(msg.sender, _lender, block.timestamp));\n        channels[id] = Channel(msg.sender, _lender, msg.value, block.timestamp + _duration);\n        emit ChannelOpened(id, msg.sender, msg.value);\n    }\n\n    function closeChannel(bytes32 _id, uint256 _finalBalance, bytes memory _signature) external nonReentrant {\n        Channel storage channel = channels[_id];\n        require(block.timestamp <= channel.expiration, \"Channel expired\");\n        \n        // Correct usage of MessageHashUtils for OpenZeppelin v5\n        bytes32 digest = keccak256(abi.encodePacked(_id, _finalBalance));\n        bytes32 ethSignedMessageHash = MessageHashUtils.toEthSignedMessageHash(digest);\n        \n        address signer = ethSignedMessageHash.recover(_signature);\n        require(signer == channel.borrower, \"Invalid signature\");\n\n        payable(channel.lender).transfer(_finalBalance);\n        uint256 refund = channel.balance - _finalBalance;\n        if (refund > 0) payable(channel.borrower).transfer(refund);\n\n        delete channels[_id];\n        emit ChannelClosed(_id, _finalBalance);\n    }\n}\n    ",
  "sourcePath": "D:\\Downloads\\Blockchain\\TY SEM2\\DeFiEnterprise\\blockchain\\contracts\\StateChannel.sol",
  "compiler": {
    "name": "solc",
    "version": "0.8.20+commit.a1b79de6.Emscripten.clang"
  },
  "schemaVersion": "3.4.16",
  "updatedAt": "2026-03-30T06:25:46.883Z",
  "networkType": "ethereum",
  "devdoc": {
    "errors": {
      "ECDSAInvalidSignature()": [
        {
          "details": "The signature derives the `address(0)`."
        }
      ],
      "ECDSAInvalidSignatureLength(uint256)": [
        {
          "details": "The signature has an invalid length."
        }
      ],
      "ECDSAInvalidSignatureS(bytes32)": [
        {
          "details": "The signature has an S value that is in the upper half order."
        }
      ],
      "ReentrancyGuardReentrantCall()": [
        {
          "details": "Unauthorized reentrant call."
        }
      ]
    },
    "kind": "dev",
    "methods": {},
    "version": 1
  },
  "userdoc": {
    "kind": "user",
    "methods": {},
    "version": 1
  }
}