{
  "contractName": "AccessControlManager",
  "abi": [
    {
      "inputs": [
        {
          "internalType": "address",
          "name": "superAdmin",
          "type": "address"
        }
      ],
      "stateMutability": "nonpayable",
      "type": "constructor"
    },
    {
      "inputs": [],
      "name": "AccessControlBadConfirmation",
      "type": "error"
    },
    {
      "inputs": [
        {
          "internalType": "address",
          "name": "account",
          "type": "address"
        },
        {
          "internalType": "bytes32",
          "name": "neededRole",
          "type": "bytes32"
        }
      ],
      "name": "AccessControlUnauthorizedAccount",
      "type": "error"
    },
    {
      "anonymous": false,
      "inputs": [
        {
          "indexed": true,
          "internalType": "bytes32",
          "name": "role",
          "type": "bytes32"
        },
        {
          "indexed": true,
          "internalType": "bytes32",
          "name": "previousAdminRole",
          "type": "bytes32"
        },
        {
          "indexed": true,
          "internalType": "bytes32",
          "name": "newAdminRole",
          "type": "bytes32"
        }
      ],
      "name": "RoleAdminChanged",
      "type": "event"
    },
    {
      "anonymous": false,
      "inputs": [
        {
          "indexed": true,
          "internalType": "bytes32",
          "name": "role",
          "type": "bytes32"
        },
        {
          "indexed": true,
          "internalType": "address",
          "name": "account",
          "type": "address"
        },
        {
          "indexed": true,
          "internalType": "address",
          "name": "sender",
          "type": "address"
        }
      ],
      "name": "RoleGranted",
      "type": "event"
    },
    {
      "anonymous": false,
      "inputs": [
        {
          "indexed": true,
          "internalType": "bytes32",
          "name": "role",
          "type": "bytes32"
        },
        {
          "indexed": true,
          "internalType": "address",
          "name": "account",
          "type": "address"
        },
        {
          "indexed": true,
          "internalType": "address",
          "name": "sender",
          "type": "address"
        }
      ],
      "name": "RoleRevoked",
      "type": "event"
    },
    {
      "inputs": [],
      "name": "AUDITOR_ROLE",
      "outputs": [
        {
          "internalType": "bytes32",
          "name": "",
          "type": "bytes32"
        }
      ],
      "stateMutability": "view",
      "type": "function",
      "constant": true
    },
    {
      "inputs": [],
      "name": "BORROWER_ROLE",
      "outputs": [
        {
          "internalType": "bytes32",
          "name": "",
          "type": "bytes32"
        }
      ],
      "stateMutability": "view",
      "type": "function",
      "constant": true
    },
    {
      "inputs": [],
      "name": "DAO_MEMBER_ROLE",
      "outputs": [
        {
          "internalType": "bytes32",
          "name": "",
          "type": "bytes32"
        }
      ],
      "stateMutability": "view",
      "type": "function",
      "constant": true
    },
    {
      "inputs": [],
      "name": "DEFAULT_ADMIN_ROLE",
      "outputs": [
        {
          "internalType": "bytes32",
          "name": "",
          "type": "bytes32"
        }
      ],
      "stateMutability": "view",
      "type": "function",
      "constant": true
    },
    {
      "inputs": [],
      "name": "LENDER_ROLE",
      "outputs": [
        {
          "internalType": "bytes32",
          "name": "",
          "type": "bytes32"
        }
      ],
      "stateMutability": "view",
      "type": "function",
      "constant": true
    },
    {
      "inputs": [],
      "name": "LIQUIDATOR_ROLE",
      "outputs": [
        {
          "internalType": "bytes32",
          "name": "",
          "type": "bytes32"
        }
      ],
      "stateMutability": "view",
      "type": "function",
      "constant": true
    },
    {
      "inputs": [],
      "name": "SUPER_ADMIN_ROLE",
      "outputs": [
        {
          "internalType": "bytes32",
          "name": "",
          "type": "bytes32"
        }
      ],
      "stateMutability": "view",
      "type": "function",
      "constant": true
    },
    {
      "inputs": [
        {
          "internalType": "bytes32",
          "name": "role",
          "type": "bytes32"
        }
      ],
      "name": "getRoleAdmin",
      "outputs": [
        {
          "internalType": "bytes32",
          "name": "",
          "type": "bytes32"
        }
      ],
      "stateMutability": "view",
      "type": "function",
      "constant": true
    },
    {
      "inputs": [
        {
          "internalType": "bytes32",
          "name": "role",
          "type": "bytes32"
        },
        {
          "internalType": "address",
          "name": "account",
          "type": "address"
        }
      ],
      "name": "grantRole",
      "outputs": [],
      "stateMutability": "nonpayable",
      "type": "function"
    },
    {
      "inputs": [
        {
          "internalType": "bytes32",
          "name": "role",
          "type": "bytes32"
        },
        {
          "internalType": "address",
          "name": "account",
          "type": "address"
        }
      ],
      "name": "hasRole",
      "outputs": [
        {
          "internalType": "bool",
          "name": "",
          "type": "bool"
        }
      ],
      "stateMutability": "view",
      "type": "function",
      "constant": true
    },
    {
      "inputs": [
        {
          "internalType": "bytes32",
          "name": "role",
          "type": "bytes32"
        },
        {
          "internalType": "address",
          "name": "callerConfirmation",
          "type": "address"
        }
      ],
      "name": "renounceRole",
      "outputs": [],
      "stateMutability": "nonpayable",
      "type": "function"
    },
    {
      "inputs": [
        {
          "internalType": "bytes32",
          "name": "role",
          "type": "bytes32"
        },
        {
          "internalType": "address",
          "name": "account",
          "type": "address"
        }
      ],
      "name": "revokeRole",
      "outputs": [],
      "stateMutability": "nonpayable",
      "type": "function"
    },
    {
      "inputs": [
        {
          "internalType": "bytes4",
          "name": "interfaceId",
          "type": "bytes4"
        }
      ],
      "name": "supportsInterface",
      "outputs": [
        {
          "internalType": "bool",
          "name": "",
          "type": "bool"
        }
      ],
      "stateMutability": "view",
      "type": "function",
      "constant": true
    },
    {
      "inputs": [
        {
          "internalType": "bytes32",
          "name": "role",
          "type": "bytes32"
        },
        {
          "internalType": "address",
          "name": "account",
          "type": "address"
        },
        {
          "internalType": "bool",
          "name": "grant",
          "type": "bool"
        }
      ],
      "name": "forceManageRole",
      "outputs": [],
      "stateMutability": "nonpayable",
      "type": "function"
    }
  ],
  "bytecode": "0x608060405234801562000010575f80fd5b5060405162000fa938038062000fa9833981810160405281019062000036919062000465565b6200004a5f801b826200021f60201b60201c565b506200007d7f7613a25ecc738585a232ad50a301178f12b3ba8887d13e138b523c4269c47689826200021f60201b60201c565b50620000d07fc60d7a62d8843f2b14bc63f2a5240b187980481ad8c001a3caf4916aef3f667e7f7613a25ecc738585a232ad50a301178f12b3ba8887d13e138b523c4269c476896200031a60201b60201c565b620001227f2344277e405079ec07749d374ba0b5862a4e45a6a05ac889dbb4a991c6f9354d7f7613a25ecc738585a232ad50a301178f12b3ba8887d13e138b523c4269c476896200031a60201b60201c565b620001747f5e17fc5225d4a099df75359ce1f405503ca79498a8dc46a7d583235a0ee45c167f7613a25ecc738585a232ad50a301178f12b3ba8887d13e138b523c4269c476896200031a60201b60201c565b620001c67ff29a78c020ddf311f61483cfe182d6d833b80b74c6044ef77e24d033c4266a4c7f7613a25ecc738585a232ad50a301178f12b3ba8887d13e138b523c4269c476896200031a60201b60201c565b620002187f59a1c48e5837ad7a7f3dcedcbe129bf3249ec4fbf651fd4f5e2600ead39fe2f57f7613a25ecc738585a232ad50a301178f12b3ba8887d13e138b523c4269c476896200031a60201b60201c565b5062000495565b5f6200023283836200037a60201b60201c565b620003105760015f808581526020019081526020015f205f015f8473ffffffffffffffffffffffffffffffffffffffff1673ffffffffffffffffffffffffffffffffffffffff1681526020019081526020015f205f6101000a81548160ff021916908315150217905550620002ac620003dd60201b60201c565b73ffffffffffffffffffffffffffffffffffffffff168273ffffffffffffffffffffffffffffffffffffffff16847f2f8788117e7eff1d82e926ec794901d17c78024a50270940304540a733656f0d60405160405180910390a46001905062000314565b5f90505b92915050565b5f6200032c83620003e460201b60201c565b9050815f808581526020019081526020015f20600101819055508181847fbd79b86ffe0ab8e8776151514217cd7cacd52c909f66475c3af44e129f0b00ff60405160405180910390a4505050565b5f805f8481526020019081526020015f205f015f8373ffffffffffffffffffffffffffffffffffffffff1673ffffffffffffffffffffffffffffffffffffffff1681526020019081526020015f205f9054906101000a900460ff16905092915050565b5f33905090565b5f805f8381526020019081526020015f20600101549050919050565b5f80fd5b5f73ffffffffffffffffffffffffffffffffffffffff82169050919050565b5f6200042f8262000404565b9050919050565b620004418162000423565b81146200044c575f80fd5b50565b5f815190506200045f8162000436565b92915050565b5f602082840312156200047d576200047c62000400565b5b5f6200048c848285016200044f565b91505092915050565b610b0680620004a35f395ff3fe608060405234801561000f575f80fd5b50600436106100e7575f3560e01c806336568abe1161008a57806391d148541161006457806391d1485414610237578063a217fddf14610267578063cdc345b214610285578063d547741f146102a1576100e7565b806336568abe146101df5780634460bdd6146101fb5780636e1d616e14610219576100e7565b806316d8887a116100c657806316d8887a14610157578063248a9ca31461017557806327543a9a146101a55780632f2ff15d146101c3576100e7565b8062abafe1146100eb57806301ffc9a7146101095780630e7b949e14610139575b5f80fd5b6100f36102bd565b6040516101009190610863565b60405180910390f35b610123600480360381019061011e91906108d5565b6102e1565b604051610130919061091a565b60405180910390f35b61014161035a565b60405161014e9190610863565b60405180910390f35b61015f61037e565b60405161016c9190610863565b60405180910390f35b61018f600480360381019061018a919061095d565b6103a2565b60405161019c9190610863565b60405180910390f35b6101ad6103be565b6040516101ba9190610863565b60405180910390f35b6101dd60048036038101906101d891906109e2565b6103e2565b005b6101f960048036038101906101f491906109e2565b610404565b005b61020361047f565b6040516102109190610863565b60405180910390f35b6102216104a3565b60405161022e9190610863565b60405180910390f35b610251600480360381019061024c91906109e2565b6104c7565b60405161025e919061091a565b60405180910390f35b61026f61052a565b60405161027c9190610863565b60405180910390f35b61029f600480360381019061029a9190610a4a565b610530565b005b6102bb60048036038101906102b691906109e2565b610582565b005b7fc60d7a62d8843f2b14bc63f2a5240b187980481ad8c001a3caf4916aef3f667e81565b5f7f7965db0b000000000000000000000000000000000000000000000000000000007bffffffffffffffffffffffffffffffffffffffffffffffffffffffff1916827bffffffffffffffffffffffffffffffffffffffffffffffffffffffff191614806103535750610352826105a4565b5b9050919050565b7f2344277e405079ec07749d374ba0b5862a4e45a6a05ac889dbb4a991c6f9354d81565b7f5e17fc5225d4a099df75359ce1f405503ca79498a8dc46a7d583235a0ee45c1681565b5f805f8381526020019081526020015f20600101549050919050565b7ff29a78c020ddf311f61483cfe182d6d833b80b74c6044ef77e24d033c4266a4c81565b6103eb826103a2565b6103f48161060d565b6103fe8383610621565b50505050565b61040c61070a565b73ffffffffffffffffffffffffffffffffffffffff168173ffffffffffffffffffffffffffffffffffffffff1614610470576040517f6697b23200000000000000000000000000000000000000000000000000000000815260040160405180910390fd5b61047a8282610711565b505050565b7f7613a25ecc738585a232ad50a301178f12b3ba8887d13e138b523c4269c4768981565b7f59a1c48e5837ad7a7f3dcedcbe129bf3249ec4fbf651fd4f5e2600ead39fe2f581565b5f805f8481526020019081526020015f205f015f8373ffffffffffffffffffffffffffffffffffffffff1673ffffffffffffffffffffffffffffffffffffffff1681526020019081526020015f205f9054906101000a900460ff16905092915050565b5f801b81565b7f7613a25ecc738585a232ad50a301178f12b3ba8887d13e138b523c4269c4768961055a8161060d565b81156105705761056a8484610621565b5061057c565b61057a8484610711565b505b50505050565b61058b826103a2565b6105948161060d565b61059e8383610711565b50505050565b5f7f01ffc9a7000000000000000000000000000000000000000000000000000000007bffffffffffffffffffffffffffffffffffffffffffffffffffffffff1916827bffffffffffffffffffffffffffffffffffffffffffffffffffffffff1916149050919050565b61061e8161061961070a565b6107fa565b50565b5f61062c83836104c7565b6107005760015f808581526020019081526020015f205f015f8473ffffffffffffffffffffffffffffffffffffffff1673ffffffffffffffffffffffffffffffffffffffff1681526020019081526020015f205f6101000a81548160ff02191690831515021790555061069d61070a565b73ffffffffffffffffffffffffffffffffffffffff168273ffffffffffffffffffffffffffffffffffffffff16847f2f8788117e7eff1d82e926ec794901d17c78024a50270940304540a733656f0d60405160405180910390a460019050610704565b5f90505b92915050565b5f33905090565b5f61071c83836104c7565b156107f0575f805f8581526020019081526020015f205f015f8473ffffffffffffffffffffffffffffffffffffffff1673ffffffffffffffffffffffffffffffffffffffff1681526020019081526020015f205f6101000a81548160ff02191690831515021790555061078d61070a565b73ffffffffffffffffffffffffffffffffffffffff168273ffffffffffffffffffffffffffffffffffffffff16847ff6391f5c32d9c69d2a47ea670b442974b53935d1edc7fd64eb21e047a839171b60405160405180910390a4600190506107f4565b5f90505b92915050565b61080482826104c7565b6108475780826040517fe2517d3f00000000000000000000000000000000000000000000000000000000815260040161083e929190610aa9565b60405180910390fd5b5050565b5f819050919050565b61085d8161084b565b82525050565b5f6020820190506108765f830184610854565b92915050565b5f80fd5b5f7fffffffff0000000000000000000000000000000000000000000000000000000082169050919050565b6108b481610880565b81146108be575f80fd5b50565b5f813590506108cf816108ab565b92915050565b5f602082840312156108ea576108e961087c565b5b5f6108f7848285016108c1565b91505092915050565b5f8115159050919050565b61091481610900565b82525050565b5f60208201905061092d5f83018461090b565b92915050565b61093c8161084b565b8114610946575f80fd5b50565b5f8135905061095781610933565b92915050565b5f602082840312156109725761097161087c565b5b5f61097f84828501610949565b91505092915050565b5f73ffffffffffffffffffffffffffffffffffffffff82169050919050565b5f6109b182610988565b9050919050565b6109c1816109a7565b81146109cb575f80fd5b50565b5f813590506109dc816109b8565b92915050565b5f80604083850312156109f8576109f761087c565b5b5f610a0585828601610949565b9250506020610a16858286016109ce565b9150509250929050565b610a2981610900565b8114610a33575f80fd5b50565b5f81359050610a4481610a20565b92915050565b5f805f60608486031215610a6157610a6061087c565b5b5f610a6e86828701610949565b9350506020610a7f868287016109ce565b9250506040610a9086828701610a36565b9150509250925092565b610aa3816109a7565b82525050565b5f604082019050610abc5f830185610a9a565b610ac96020830184610854565b939250505056fea26469706673582212207abffd6e482c740534e616c61be91460021bab0a395fc93676fedb6511c8710764736f6c63430008140033",
  "immutableReferences": {},
  "source": "// SPDX-License-Identifier: MIT\npragma solidity ^0.8.20;\n\nimport \"@openzeppelin/contracts/access/AccessControl.sol\";\n\ncontract AccessControlManager is AccessControl {\n    // Roles\n    bytes32 public constant SUPER_ADMIN_ROLE = keccak256(\"SUPER_ADMIN_ROLE\");\n    bytes32 public constant LENDER_ROLE = keccak256(\"LENDER_ROLE\");\n    bytes32 public constant BORROWER_ROLE = keccak256(\"BORROWER_ROLE\");\n    bytes32 public constant LIQUIDATOR_ROLE = keccak256(\"LIQUIDATOR_ROLE\");\n    bytes32 public constant DAO_MEMBER_ROLE = keccak256(\"DAO_MEMBER_ROLE\");\n    bytes32 public constant AUDITOR_ROLE = keccak256(\"AUDITOR_ROLE\");\n\n    constructor(address superAdmin) {\n        // SuperAdmin is the root of the DEFAULT_ADMIN_ROLE\n        _grantRole(DEFAULT_ADMIN_ROLE, superAdmin);\n        _grantRole(SUPER_ADMIN_ROLE, superAdmin);\n        \n        // Allow SUPER_ADMIN to manage all other roles\n        _setRoleAdmin(LENDER_ROLE, SUPER_ADMIN_ROLE);\n        _setRoleAdmin(BORROWER_ROLE, SUPER_ADMIN_ROLE);\n        _setRoleAdmin(LIQUIDATOR_ROLE, SUPER_ADMIN_ROLE);\n        _setRoleAdmin(DAO_MEMBER_ROLE, SUPER_ADMIN_ROLE);\n        _setRoleAdmin(AUDITOR_ROLE, SUPER_ADMIN_ROLE);\n    }\n\n    /**\n     * @dev SuperAdmin can instantly revoke or grant roles to anyone\n     */\n    function forceManageRole(bytes32 role, address account, bool grant) external onlyRole(SUPER_ADMIN_ROLE) {\n        if (grant) {\n            _grantRole(role, account);\n        } else {\n            _revokeRole(role, account);\n        }\n    }\n}",
  "sourcePath": "D:\\Downloads\\Blockchain\\TY SEM2\\DeFiEnterprise\\blockchain\\contracts\\AccessControlManager.sol",
  "compiler": {
    "name": "solc",
    "version": "0.8.20+commit.a1b79de6.Emscripten.clang"
  },
  "schemaVersion": "3.4.16",
  "updatedAt": "2026-03-30T06:25:46.822Z",
  "networkType": "ethereum",
  "devdoc": {
    "errors": {
      "AccessControlBadConfirmation()": [
        {
          "details": "The caller of a function is not the expected one. NOTE: Don't confuse with {AccessControlUnauthorizedAccount}."
        }
      ],
      "AccessControlUnauthorizedAccount(address,bytes32)": [
        {
          "details": "The `account` is missing a role."
        }
      ]
    },
    "events": {
      "RoleAdminChanged(bytes32,bytes32,bytes32)": {
        "details": "Emitted when `newAdminRole` is set as ``role``'s admin role, replacing `previousAdminRole` `DEFAULT_ADMIN_ROLE` is the starting admin for all roles, despite {RoleAdminChanged} not being emitted signaling this."
      },
      "RoleGranted(bytes32,address,address)": {
        "details": "Emitted when `account` is granted `role`. `sender` is the account that originated the contract call, an admin role bearer except when using {AccessControl-_setupRole}."
      },
      "RoleRevoked(bytes32,address,address)": {
        "details": "Emitted when `account` is revoked `role`. `sender` is the account that originated the contract call:   - if using `revokeRole`, it is the admin role bearer   - if using `renounceRole`, it is the role bearer (i.e. `account`)"
      }
    },
    "kind": "dev",
    "methods": {
      "forceManageRole(bytes32,address,bool)": {
        "details": "SuperAdmin can instantly revoke or grant roles to anyone"
      },
      "getRoleAdmin(bytes32)": {
        "details": "Returns the admin role that controls `role`. See {grantRole} and {revokeRole}. To change a role's admin, use {_setRoleAdmin}."
      },
      "grantRole(bytes32,address)": {
        "details": "Grants `role` to `account`. If `account` had not been already granted `role`, emits a {RoleGranted} event. Requirements: - the caller must have ``role``'s admin role. May emit a {RoleGranted} event."
      },
      "hasRole(bytes32,address)": {
        "details": "Returns `true` if `account` has been granted `role`."
      },
      "renounceRole(bytes32,address)": {
        "details": "Revokes `role` from the calling account. Roles are often managed via {grantRole} and {revokeRole}: this function's purpose is to provide a mechanism for accounts to lose their privileges if they are compromised (such as when a trusted device is misplaced). If the calling account had been revoked `role`, emits a {RoleRevoked} event. Requirements: - the caller must be `callerConfirmation`. May emit a {RoleRevoked} event."
      },
      "revokeRole(bytes32,address)": {
        "details": "Revokes `role` from `account`. If `account` had been granted `role`, emits a {RoleRevoked} event. Requirements: - the caller must have ``role``'s admin role. May emit a {RoleRevoked} event."
      },
      "supportsInterface(bytes4)": {
        "details": "See {IERC165-supportsInterface}."
      }
    },
    "version": 1
  },
  "userdoc": {
    "kind": "user",
    "methods": {},
    "version": 1
  }
}