{
  "contractName": "AtomicSwap",
  "abi": [
    {
      "anonymous": false,
      "inputs": [
        {
          "indexed": true,
          "internalType": "bytes32",
          "name": "id",
          "type": "bytes32"
        },
        {
          "indexed": false,
          "internalType": "uint256",
          "name": "amount",
          "type": "uint256"
        },
        {
          "indexed": false,
          "internalType": "bytes32",
          "name": "hashLock",
          "type": "bytes32"
        }
      ],
      "name": "SwapLocked",
      "type": "event"
    },
    {
      "anonymous": false,
      "inputs": [
        {
          "indexed": true,
          "internalType": "bytes32",
          "name": "id",
          "type": "bytes32"
        },
        {
          "indexed": false,
          "internalType": "bytes32",
          "name": "secret",
          "type": "bytes32"
        }
      ],
      "name": "SwapRedeemed",
      "type": "event"
    },
    {
      "inputs": [
        {
          "internalType": "bytes32",
          "name": "",
          "type": "bytes32"
        }
      ],
      "name": "swaps",
      "outputs": [
        {
          "internalType": "uint256",
          "name": "amount",
          "type": "uint256"
        },
        {
          "internalType": "bytes32",
          "name": "hashLock",
          "type": "bytes32"
        },
        {
          "internalType": "uint256",
          "name": "timelock",
          "type": "uint256"
        },
        {
          "internalType": "address payable",
          "name": "sender",
          "type": "address"
        },
        {
          "internalType": "address payable",
          "name": "receiver",
          "type": "address"
        },
        {
          "internalType": "bool",
          "name": "redeemed",
          "type": "bool"
        },
        {
          "internalType": "bool",
          "name": "refunded",
          "type": "bool"
        }
      ],
      "stateMutability": "view",
      "type": "function",
      "constant": true
    },
    {
      "inputs": [
        {
          "internalType": "address payable",
          "name": "_receiver",
          "type": "address"
        },
        {
          "internalType": "bytes32",
          "name": "_hashLock",
          "type": "bytes32"
        },
        {
          "internalType": "uint256",
          "name": "_duration",
          "type": "uint256"
        }
      ],
      "name": "lock",
      "outputs": [
        {
          "internalType": "bytes32",
          "name": "id",
          "type": "bytes32"
        }
      ],
      "stateMutability": "payable",
      "type": "function",
      "payable": true
    },
    {
      "inputs": [
        {
          "internalType": "bytes32",
          "name": "_id",
          "type": "bytes32"
        },
        {
          "internalType": "bytes32",
          "name": "_secret",
          "type": "bytes32"
        }
      ],
      "name": "redeem",
      "outputs": [],
      "stateMutability": "nonpayable",
      "type": "function"
    },
    {
      "inputs": [
        {
          "internalType": "bytes32",
          "name": "_id",
          "type": "bytes32"
        }
      ],
      "name": "refund",
      "outputs": [],
      "stateMutability": "nonpayable",
      "type": "function"
    }
  ],
  "bytecode": "0x608060405234801561000f575f80fd5b50610cf78061001d5f395ff3fe60806040526004361061003e575f3560e01c80637249fbb614610042578063a80de0e81461006a578063b31597ad1461009a578063eb84e7f2146100c2575b5f80fd5b34801561004d575f80fd5b50610068600480360381019061006391906106d9565b610104565b005b610084600480360381019061007f9190610791565b610255565b60405161009191906107f0565b60405180910390f35b3480156100a5575f80fd5b506100c060048036038101906100bb9190610809565b610431565b005b3480156100cd575f80fd5b506100e860048036038101906100e391906106d9565b61060d565b6040516100fb979695949392919061087f565b60405180910390f35b5f805f8381526020019081526020015f2090508060020154421161015d576040517f08c379a000000000000000000000000000000000000000000000000000000000815260040161015490610946565b60405180910390fd5b8060040160149054906101000a900460ff1615801561018b57508060040160159054906101000a900460ff16155b6101ca576040517f08c379a00000000000000000000000000000000000000000000000000000000081526004016101c1906109ae565b60405180910390fd5b60018160040160156101000a81548160ff021916908315150217905550806003015f9054906101000a900473ffffffffffffffffffffffffffffffffffffffff1673ffffffffffffffffffffffffffffffffffffffff166108fc825f015490811502906040515f60405180830381858888f19350505050158015610250573d5f803e3d5ffd5b505050565b5f338434854260405160200161026f959493929190610a8a565b6040516020818303038152906040528051906020012090506040518060e0016040528034815260200184815260200183426102aa9190610b15565b81526020013373ffffffffffffffffffffffffffffffffffffffff1681526020018573ffffffffffffffffffffffffffffffffffffffff1681526020015f151581526020015f15158152505f808381526020019081526020015f205f820151815f015560208201518160010155604082015181600201556060820151816003015f6101000a81548173ffffffffffffffffffffffffffffffffffffffff021916908373ffffffffffffffffffffffffffffffffffffffff1602179055506080820151816004015f6101000a81548173ffffffffffffffffffffffffffffffffffffffff021916908373ffffffffffffffffffffffffffffffffffffffff16021790555060a08201518160040160146101000a81548160ff02191690831515021790555060c08201518160040160156101000a81548160ff021916908315150217905550905050807f41ba6ea04edea62e9f50f38bd126e35acb9c03a2e98e797f04f07f3cb04cdc153485604051610422929190610b48565b60405180910390a29392505050565b5f805f8481526020019081526020015f20905080600101548260405160200161045a9190610b6f565b60405160208183030381529060405280519060200120146104b0576040517f08c379a00000000000000000000000000000000000000000000000000000000081526004016104a790610bd3565b60405180910390fd5b8060040160149054906101000a900460ff1615610502576040517f08c379a00000000000000000000000000000000000000000000000000000000081526004016104f990610c3b565b60405180910390fd5b8060020154421115610549576040517f08c379a000000000000000000000000000000000000000000000000000000000815260040161054090610ca3565b60405180910390fd5b60018160040160146101000a81548160ff021916908315150217905550806004015f9054906101000a900473ffffffffffffffffffffffffffffffffffffffff1673ffffffffffffffffffffffffffffffffffffffff166108fc825f015490811502906040515f60405180830381858888f193505050501580156105cf573d5f803e3d5ffd5b50827f5998dddc670a21d983a1c5e883050a483c96f4f95ef42a8825ddf63c29647af38360405161060091906107f0565b60405180910390a2505050565b5f602052805f5260405f205f91509050805f015490806001015490806002015490806003015f9054906101000a900473ffffffffffffffffffffffffffffffffffffffff1690806004015f9054906101000a900473ffffffffffffffffffffffffffffffffffffffff16908060040160149054906101000a900460ff16908060040160159054906101000a900460ff16905087565b5f80fd5b5f819050919050565b6106b8816106a6565b81146106c2575f80fd5b50565b5f813590506106d3816106af565b92915050565b5f602082840312156106ee576106ed6106a2565b5b5f6106fb848285016106c5565b91505092915050565b5f73ffffffffffffffffffffffffffffffffffffffff82169050919050565b5f61072d82610704565b9050919050565b61073d81610723565b8114610747575f80fd5b50565b5f8135905061075881610734565b92915050565b5f819050919050565b6107708161075e565b811461077a575f80fd5b50565b5f8135905061078b81610767565b92915050565b5f805f606084860312156107a8576107a76106a2565b5b5f6107b58682870161074a565b93505060206107c6868287016106c5565b92505060406107d78682870161077d565b9150509250925092565b6107ea816106a6565b82525050565b5f6020820190506108035f8301846107e1565b92915050565b5f806040838503121561081f5761081e6106a2565b5b5f61082c858286016106c5565b925050602061083d858286016106c5565b9150509250929050565b6108508161075e565b82525050565b61085f81610723565b82525050565b5f8115159050919050565b61087981610865565b82525050565b5f60e0820190506108925f83018a610847565b61089f60208301896107e1565b6108ac6040830188610847565b6108b96060830187610856565b6108c66080830186610856565b6108d360a0830185610870565b6108e060c0830184610870565b98975050505050505050565b5f82825260208201905092915050565b7f4e6f7420657870697265640000000000000000000000000000000000000000005f82015250565b5f610930600b836108ec565b915061093b826108fc565b602082019050919050565b5f6020820190508181035f83015261095d81610924565b9050919050565b7f496e76616c6964207374617465000000000000000000000000000000000000005f82015250565b5f610998600d836108ec565b91506109a382610964565b602082019050919050565b5f6020820190508181035f8301526109c58161098c565b9050919050565b5f6109d682610704565b9050919050565b5f8160601b9050919050565b5f6109f3826109dd565b9050919050565b5f610a04826109e9565b9050919050565b610a1c610a17826109cc565b6109fa565b82525050565b5f610a2c826109e9565b9050919050565b610a44610a3f82610723565b610a22565b82525050565b5f819050919050565b610a64610a5f8261075e565b610a4a565b82525050565b5f819050919050565b610a84610a7f826106a6565b610a6a565b82525050565b5f610a958288610a0b565b601482019150610aa58287610a33565b601482019150610ab58286610a53565b602082019150610ac58285610a73565b602082019150610ad58284610a53565b6020820191508190509695505050505050565b7f4e487b71000000000000000000000000000000000000000000000000000000005f52601160045260245ffd5b5f610b1f8261075e565b9150610b2a8361075e565b9250828201905080821115610b4257610b41610ae8565b5b92915050565b5f604082019050610b5b5f830185610847565b610b6860208301846107e1565b9392505050565b5f610b7a8284610a73565b60208201915081905092915050565b7f496e76616c6964207365637265740000000000000000000000000000000000005f82015250565b5f610bbd600e836108ec565b9150610bc882610b89565b602082019050919050565b5f6020820190508181035f830152610bea81610bb1565b9050919050565b7f416c72656164792072656465656d6564000000000000000000000000000000005f82015250565b5f610c256010836108ec565b9150610c3082610bf1565b602082019050919050565b5f6020820190508181035f830152610c5281610c19565b9050919050565b7f45787069726564000000000000000000000000000000000000000000000000005f82015250565b5f610c8d6007836108ec565b9150610c9882610c59565b602082019050919050565b5f6020820190508181035f830152610cba81610c81565b905091905056fea26469706673582212201f9106605235ecd22df2cc10a1429abce576b89cb0c3a69dd7dd38a0a3feae6864736f6c63430008140033",
  "immutableReferences": {},
  "source": "// SPDX-License-Identifier: MIT\npragma solidity ^0.8.20;\n\n/**\n * @title AtomicSwap\n * @dev Cross-chain exchange simulation using Hash-Locked Timelock Contracts (HTLC).\n */\ncontract AtomicSwap {\n    struct Swap {\n        uint256 amount;\n        bytes32 hashLock;\n        uint256 timelock;\n        address payable sender;\n        address payable receiver;\n        bool redeemed;\n        bool refunded;\n    }\n\n    mapping(bytes32 => Swap) public swaps;\n\n    event SwapLocked(bytes32 indexed id, uint256 amount, bytes32 hashLock);\n    event SwapRedeemed(bytes32 indexed id, bytes32 secret);\n\n    function lock(address payable _receiver, bytes32 _hashLock, uint256 _duration) external payable returns (bytes32 id) {\n        id = keccak256(abi.encodePacked(msg.sender, _receiver, msg.value, _hashLock, block.timestamp));\n        swaps[id] = Swap({\n            amount: msg.value,\n            hashLock: _hashLock,\n            timelock: block.timestamp + _duration,\n            sender: payable(msg.sender),\n            receiver: _receiver,\n            redeemed: false,\n            refunded: false\n        });\n        emit SwapLocked(id, msg.value, _hashLock);\n    }\n\n    function redeem(bytes32 _id, bytes32 _secret) external {\n        Swap storage swap = swaps[_id];\n        require(keccak256(abi.encodePacked(_secret)) == swap.hashLock, \"Invalid secret\");\n        require(!swap.redeemed, \"Already redeemed\");\n        require(block.timestamp <= swap.timelock, \"Expired\");\n\n        swap.redeemed = true;\n        swap.receiver.transfer(swap.amount);\n        emit SwapRedeemed(_id, _secret);\n    }\n\n    function refund(bytes32 _id) external {\n        Swap storage swap = swaps[_id];\n        require(block.timestamp > swap.timelock, \"Not expired\");\n        require(!swap.redeemed && !swap.refunded, \"Invalid state\");\n\n        swap.refunded = true;\n        swap.sender.transfer(swap.amount);\n    }\n}",
  "sourcePath": "D:\\Downloads\\Blockchain\\TY SEM2\\DeFiEnterprise\\blockchain\\contracts\\AtomicSwap.sol",
  "compiler": {
    "name": "solc",
    "version": "0.8.20+commit.a1b79de6.Emscripten.clang"
  },
  "schemaVersion": "3.4.16",
  "updatedAt": "2026-03-30T06:25:46.896Z",
  "networkType": "ethereum",
  "devdoc": {
    "details": "Cross-chain exchange simulation using Hash-Locked Timelock Contracts (HTLC).",
    "kind": "dev",
    "methods": {},
    "title": "AtomicSwap",
    "version": 1
  },
  "userdoc": {
    "kind": "user",
    "methods": {},
    "version": 1
  }
}