{
  "contractName": "Bridge",
  "abi": [
    {
      "inputs": [
        {
          "internalType": "address",
          "name": "admin",
          "type": "address"
        }
      ],
      "stateMutability": "nonpayable",
      "type": "constructor"
    },
    {
      "inputs": [],
      "name": "AccessControlBadConfirmation",
      "type": "error"
    },
    {
      "inputs": [
        {
          "internalType": "address",
          "name": "account",
          "type": "address"
        },
        {
          "internalType": "bytes32",
          "name": "neededRole",
          "type": "bytes32"
        }
      ],
      "name": "AccessControlUnauthorizedAccount",
      "type": "error"
    },
    {
      "inputs": [],
      "name": "ReentrancyGuardReentrantCall",
      "type": "error"
    },
    {
      "anonymous": false,
      "inputs": [
        {
          "indexed": true,
          "internalType": "address",
          "name": "user",
          "type": "address"
        },
        {
          "indexed": false,
          "internalType": "address",
          "name": "token",
          "type": "address"
        },
        {
          "indexed": false,
          "internalType": "uint256",
          "name": "amount",
          "type": "uint256"
        },
        {
          "indexed": false,
          "internalType": "uint256",
          "name": "targetChainId",
          "type": "uint256"
        }
      ],
      "name": "Deposit",
      "type": "event"
    },
    {
      "anonymous": false,
      "inputs": [
        {
          "indexed": true,
          "internalType": "address",
          "name": "user",
          "type": "address"
        },
        {
          "indexed": false,
          "internalType": "address",
          "name": "token",
          "type": "address"
        },
        {
          "indexed": false,
          "internalType": "uint256",
          "name": "amount",
          "type": "uint256"
        }
      ],
      "name": "Release",
      "type": "event"
    },
    {
      "anonymous": false,
      "inputs": [
        {
          "indexed": true,
          "internalType": "bytes32",
          "name": "role",
          "type": "bytes32"
        },
        {
          "indexed": true,
          "internalType": "bytes32",
          "name": "previousAdminRole",
          "type": "bytes32"
        },
        {
          "indexed": true,
          "internalType": "bytes32",
          "name": "newAdminRole",
          "type": "bytes32"
        }
      ],
      "name": "RoleAdminChanged",
      "type": "event"
    },
    {
      "anonymous": false,
      "inputs": [
        {
          "indexed": true,
          "internalType": "bytes32",
          "name": "role",
          "type": "bytes32"
        },
        {
          "indexed": true,
          "internalType": "address",
          "name": "account",
          "type": "address"
        },
        {
          "indexed": true,
          "internalType": "address",
          "name": "sender",
          "type": "address"
        }
      ],
      "name": "RoleGranted",
      "type": "event"
    },
    {
      "anonymous": false,
      "inputs": [
        {
          "indexed": true,
          "internalType": "bytes32",
          "name": "role",
          "type": "bytes32"
        },
        {
          "indexed": true,
          "internalType": "address",
          "name": "account",
          "type": "address"
        },
        {
          "indexed": true,
          "internalType": "address",
          "name": "sender",
          "type": "address"
        }
      ],
      "name": "RoleRevoked",
      "type": "event"
    },
    {
      "inputs": [],
      "name": "DEFAULT_ADMIN_ROLE",
      "outputs": [
        {
          "internalType": "bytes32",
          "name": "",
          "type": "bytes32"
        }
      ],
      "stateMutability": "view",
      "type": "function",
      "constant": true
    },
    {
      "inputs": [],
      "name": "RELAYER_ROLE",
      "outputs": [
        {
          "internalType": "bytes32",
          "name": "",
          "type": "bytes32"
        }
      ],
      "stateMutability": "view",
      "type": "function",
      "constant": true
    },
    {
      "inputs": [
        {
          "internalType": "bytes32",
          "name": "role",
          "type": "bytes32"
        }
      ],
      "name": "getRoleAdmin",
      "outputs": [
        {
          "internalType": "bytes32",
          "name": "",
          "type": "bytes32"
        }
      ],
      "stateMutability": "view",
      "type": "function",
      "constant": true
    },
    {
      "inputs": [
        {
          "internalType": "bytes32",
          "name": "role",
          "type": "bytes32"
        },
        {
          "internalType": "address",
          "name": "account",
          "type": "address"
        }
      ],
      "name": "grantRole",
      "outputs": [],
      "stateMutability": "nonpayable",
      "type": "function"
    },
    {
      "inputs": [
        {
          "internalType": "bytes32",
          "name": "role",
          "type": "bytes32"
        },
        {
          "internalType": "address",
          "name": "account",
          "type": "address"
        }
      ],
      "name": "hasRole",
      "outputs": [
        {
          "internalType": "bool",
          "name": "",
          "type": "bool"
        }
      ],
      "stateMutability": "view",
      "type": "function",
      "constant": true
    },
    {
      "inputs": [
        {
          "internalType": "bytes32",
          "name": "role",
          "type": "bytes32"
        },
        {
          "internalType": "address",
          "name": "callerConfirmation",
          "type": "address"
        }
      ],
      "name": "renounceRole",
      "outputs": [],
      "stateMutability": "nonpayable",
      "type": "function"
    },
    {
      "inputs": [
        {
          "internalType": "bytes32",
          "name": "role",
          "type": "bytes32"
        },
        {
          "internalType": "address",
          "name": "account",
          "type": "address"
        }
      ],
      "name": "revokeRole",
      "outputs": [],
      "stateMutability": "nonpayable",
      "type": "function"
    },
    {
      "inputs": [
        {
          "internalType": "bytes4",
          "name": "interfaceId",
          "type": "bytes4"
        }
      ],
      "name": "supportsInterface",
      "outputs": [
        {
          "internalType": "bool",
          "name": "",
          "type": "bool"
        }
      ],
      "stateMutability": "view",
      "type": "function",
      "constant": true
    },
    {
      "stateMutability": "payable",
      "type": "receive",
      "payable": true
    },
    {
      "inputs": [
        {
          "internalType": "address",
          "name": "_token",
          "type": "address"
        },
        {
          "internalType": "uint256",
          "name": "_amount",
          "type": "uint256"
        },
        {
          "internalType": "uint256",
          "name": "_targetChainId",
          "type": "uint256"
        }
      ],
      "name": "lockToken",
      "outputs": [],
      "stateMutability": "payable",
      "type": "function",
      "payable": true
    },
    {
      "inputs": [
        {
          "internalType": "address",
          "name": "_token",
          "type": "address"
        },
        {
          "internalType": "address",
          "name": "_receiver",
          "type": "address"
        },
        {
          "internalType": "uint256",
          "name": "_amount",
          "type": "uint256"
        }
      ],
      "name": "releaseToken",
      "outputs": [],
      "stateMutability": "nonpayable",
      "type": "function"
    }
  ],
  "bytecode": "0x608060405234801562000010575f80fd5b506040516200110538038062001105833981810160405281019062000036919062000223565b60018081905550620000515f801b826200005960201b60201c565b505062000253565b5f6200006c83836200015460201b60201c565b6200014a5760015f808581526020019081526020015f205f015f8473ffffffffffffffffffffffffffffffffffffffff1673ffffffffffffffffffffffffffffffffffffffff1681526020019081526020015f205f6101000a81548160ff021916908315150217905550620000e6620001b760201b60201c565b73ffffffffffffffffffffffffffffffffffffffff168273ffffffffffffffffffffffffffffffffffffffff16847f2f8788117e7eff1d82e926ec794901d17c78024a50270940304540a733656f0d60405160405180910390a4600190506200014e565b5f90505b92915050565b5f805f8481526020019081526020015f205f015f8373ffffffffffffffffffffffffffffffffffffffff1673ffffffffffffffffffffffffffffffffffffffff1681526020019081526020015f205f9054906101000a900460ff16905092915050565b5f33905090565b5f80fd5b5f73ffffffffffffffffffffffffffffffffffffffff82169050919050565b5f620001ed82620001c2565b9050919050565b620001ff81620001e1565b81146200020a575f80fd5b50565b5f815190506200021d81620001f4565b92915050565b5f602082840312156200023b576200023a620001be565b5b5f6200024a848285016200020d565b91505092915050565b610ea480620002615f395ff3fe608060405260043610610094575f3560e01c8063839972f911610058578063839972f91461018f57806391d14854146101ab578063926d7d7f146101e7578063a217fddf14610211578063d547741f1461023b5761009b565b806301ffc9a71461009f578063248a9ca3146100db5780632f2ff15d1461011757806336568abe1461013f5780636d098560146101675761009b565b3661009b57005b5f80fd5b3480156100aa575f80fd5b506100c560048036038101906100c09190610a7c565b610263565b6040516100d29190610ac1565b60405180910390f35b3480156100e6575f80fd5b5061010160048036038101906100fc9190610b0d565b6102dc565b60405161010e9190610b47565b60405180910390f35b348015610122575f80fd5b5061013d60048036038101906101389190610bba565b6102f8565b005b34801561014a575f80fd5b5061016560048036038101906101609190610bba565b61031a565b005b348015610172575f80fd5b5061018d60048036038101906101889190610c2b565b610395565b005b6101a960048036038101906101a49190610c7b565b61051e565b005b3480156101b6575f80fd5b506101d160048036038101906101cc9190610bba565b61067e565b6040516101de9190610ac1565b60405180910390f35b3480156101f2575f80fd5b506101fb6106e1565b6040516102089190610b47565b60405180910390f35b34801561021c575f80fd5b50610225610705565b6040516102329190610b47565b60405180910390f35b348015610246575f80fd5b50610261600480360381019061025c9190610bba565b61070b565b005b5f7f7965db0b000000000000000000000000000000000000000000000000000000007bffffffffffffffffffffffffffffffffffffffffffffffffffffffff1916827bffffffffffffffffffffffffffffffffffffffffffffffffffffffff191614806102d557506102d48261072d565b5b9050919050565b5f805f8381526020019081526020015f20600101549050919050565b610301826102dc565b61030a81610796565b61031483836107aa565b50505050565b610322610893565b73ffffffffffffffffffffffffffffffffffffffff168173ffffffffffffffffffffffffffffffffffffffff1614610386576040517f6697b23200000000000000000000000000000000000000000000000000000000815260040160405180910390fd5b610390828261089a565b505050565b7fe2b7fb3b832174769106daebcfd6d1970523240dda11281102db9363b83b0dc46103bf81610796565b6103c7610983565b5f73ffffffffffffffffffffffffffffffffffffffff168473ffffffffffffffffffffffffffffffffffffffff1603610443578273ffffffffffffffffffffffffffffffffffffffff166108fc8390811502906040515f60405180830381858888f1935050505015801561043d573d5f803e3d5ffd5b506104c0565b8373ffffffffffffffffffffffffffffffffffffffff1663a9059cbb84846040518363ffffffff1660e01b815260040161047e929190610ce9565b6020604051808303815f875af115801561049a573d5f803e3d5ffd5b505050506040513d601f19601f820116820180604052508101906104be9190610d3a565b505b8273ffffffffffffffffffffffffffffffffffffffff167fcb54aad3bd772fcfe1bc124e01bd1a91a91c9d80126d8b3014c4d9e687d5ca488584604051610508929190610ce9565b60405180910390a26105186109c9565b50505050565b610526610983565b5f73ffffffffffffffffffffffffffffffffffffffff168373ffffffffffffffffffffffffffffffffffffffff16036105a05781341461059b576040517f08c379a000000000000000000000000000000000000000000000000000000000815260040161059290610dbf565b60405180910390fd5b61061f565b8273ffffffffffffffffffffffffffffffffffffffff166323b872dd3330856040518463ffffffff1660e01b81526004016105dd93929190610ddd565b6020604051808303815f875af11580156105f9573d5f803e3d5ffd5b505050506040513d601f19601f8201168201806040525081019061061d9190610d3a565b505b3373ffffffffffffffffffffffffffffffffffffffff167fdcbc1c05240f31ff3ad067ef1ee35ce4997762752e3a095284754544f4c709d784848460405161066993929190610e12565b60405180910390a26106796109c9565b505050565b5f805f8481526020019081526020015f205f015f8373ffffffffffffffffffffffffffffffffffffffff1673ffffffffffffffffffffffffffffffffffffffff1681526020019081526020015f205f9054906101000a900460ff16905092915050565b7fe2b7fb3b832174769106daebcfd6d1970523240dda11281102db9363b83b0dc481565b5f801b81565b610714826102dc565b61071d81610796565b610727838361089a565b50505050565b5f7f01ffc9a7000000000000000000000000000000000000000000000000000000007bffffffffffffffffffffffffffffffffffffffffffffffffffffffff1916827bffffffffffffffffffffffffffffffffffffffffffffffffffffffff1916149050919050565b6107a7816107a2610893565b6109d2565b50565b5f6107b5838361067e565b6108895760015f808581526020019081526020015f205f015f8473ffffffffffffffffffffffffffffffffffffffff1673ffffffffffffffffffffffffffffffffffffffff1681526020019081526020015f205f6101000a81548160ff021916908315150217905550610826610893565b73ffffffffffffffffffffffffffffffffffffffff168273ffffffffffffffffffffffffffffffffffffffff16847f2f8788117e7eff1d82e926ec794901d17c78024a50270940304540a733656f0d60405160405180910390a46001905061088d565b5f90505b92915050565b5f33905090565b5f6108a5838361067e565b15610979575f805f8581526020019081526020015f205f015f8473ffffffffffffffffffffffffffffffffffffffff1673ffffffffffffffffffffffffffffffffffffffff1681526020019081526020015f205f6101000a81548160ff021916908315150217905550610916610893565b73ffffffffffffffffffffffffffffffffffffffff168273ffffffffffffffffffffffffffffffffffffffff16847ff6391f5c32d9c69d2a47ea670b442974b53935d1edc7fd64eb21e047a839171b60405160405180910390a46001905061097d565b5f90505b92915050565b6002600154036109bf576040517f3ee5aeb500000000000000000000000000000000000000000000000000000000815260040160405180910390fd5b6002600181905550565b60018081905550565b6109dc828261067e565b610a1f5780826040517fe2517d3f000000000000000000000000000000000000000000000000000000008152600401610a16929190610e47565b60405180910390fd5b5050565b5f80fd5b5f7fffffffff0000000000000000000000000000000000000000000000000000000082169050919050565b610a5b81610a27565b8114610a65575f80fd5b50565b5f81359050610a7681610a52565b92915050565b5f60208284031215610a9157610a90610a23565b5b5f610a9e84828501610a68565b91505092915050565b5f8115159050919050565b610abb81610aa7565b82525050565b5f602082019050610ad45f830184610ab2565b92915050565b5f819050919050565b610aec81610ada565b8114610af6575f80fd5b50565b5f81359050610b0781610ae3565b92915050565b5f60208284031215610b2257610b21610a23565b5b5f610b2f84828501610af9565b91505092915050565b610b4181610ada565b82525050565b5f602082019050610b5a5f830184610b38565b92915050565b5f73ffffffffffffffffffffffffffffffffffffffff82169050919050565b5f610b8982610b60565b9050919050565b610b9981610b7f565b8114610ba3575f80fd5b50565b5f81359050610bb481610b90565b92915050565b5f8060408385031215610bd057610bcf610a23565b5b5f610bdd85828601610af9565b9250506020610bee85828601610ba6565b9150509250929050565b5f819050919050565b610c0a81610bf8565b8114610c14575f80fd5b50565b5f81359050610c2581610c01565b92915050565b5f805f60608486031215610c4257610c41610a23565b5b5f610c4f86828701610ba6565b9350506020610c6086828701610ba6565b9250506040610c7186828701610c17565b9150509250925092565b5f805f60608486031215610c9257610c91610a23565b5b5f610c9f86828701610ba6565b9350506020610cb086828701610c17565b9250506040610cc186828701610c17565b9150509250925092565b610cd481610b7f565b82525050565b610ce381610bf8565b82525050565b5f604082019050610cfc5f830185610ccb565b610d096020830184610cda565b9392505050565b610d1981610aa7565b8114610d23575f80fd5b50565b5f81519050610d3481610d10565b92915050565b5f60208284031215610d4f57610d4e610a23565b5b5f610d5c84828501610d26565b91505092915050565b5f82825260208201905092915050565b7f496e636f72726563742045544820616d6f756e742073656e74000000000000005f82015250565b5f610da9601983610d65565b9150610db482610d75565b602082019050919050565b5f6020820190508181035f830152610dd681610d9d565b9050919050565b5f606082019050610df05f830186610ccb565b610dfd6020830185610ccb565b610e0a6040830184610cda565b949350505050565b5f606082019050610e255f830186610ccb565b610e326020830185610cda565b610e3f6040830184610cda565b949350505050565b5f604082019050610e5a5f830185610ccb565b610e676020830184610b38565b939250505056fea2646970667358221220e4c6430f75c9fab8d8eb3fa5d032b0c2ef405b99e866f34f8ebf56c313ec798664736f6c63430008140033",
  "immutableReferences": {},
  "source": "// SPDX-License-Identifier: MIT\npragma solidity ^0.8.20;\n\nimport \"@openzeppelin/contracts/token/ERC20/IERC20.sol\";\nimport \"@openzeppelin/contracts/access/AccessControl.sol\";\nimport \"@openzeppelin/contracts/utils/ReentrancyGuard.sol\";\n\ncontract Bridge is AccessControl, ReentrancyGuard {\n    bytes32 public constant RELAYER_ROLE = keccak256(\"RELAYER_ROLE\");\n\n    event Deposit(address indexed user, address token, uint256 amount, uint256 targetChainId);\n    event Release(address indexed user, address token, uint256 amount);\n\n    constructor(address admin) {\n        _grantRole(DEFAULT_ADMIN_ROLE, admin);\n    }\n\n    // UPDATED: Now handles both ETH and ERC20\n    function lockToken(address _token, uint256 _amount, uint256 _targetChainId) external payable nonReentrant {\n        if (_token == address(0)) {\n            // Handle Native ETH\n            require(msg.value == _amount, \"Incorrect ETH amount sent\");\n        } else {\n            // Handle ERC20\n            IERC20(_token).transferFrom(msg.sender, address(this), _amount);\n        }\n        \n        emit Deposit(msg.sender, _token, _amount, _targetChainId);\n    }\n\n    function releaseToken(address _token, address _receiver, uint256 _amount) external onlyRole(RELAYER_ROLE) nonReentrant {\n        if (_token == address(0)) {\n            payable(_receiver).transfer(_amount);\n        } else {\n            IERC20(_token).transfer(_receiver, _amount);\n        }\n        emit Release(_receiver, _token, _amount);\n    }\n\n    // Allow contract to receive ETH\n    receive() external payable {}\n}",
  "sourcePath": "D:\\Downloads\\Blockchain\\TY SEM2\\DeFiEnterprise\\blockchain\\contracts\\Bridge.sol",
  "compiler": {
    "name": "solc",
    "version": "0.8.20+commit.a1b79de6.Emscripten.clang"
  },
  "schemaVersion": "3.4.16",
  "updatedAt": "2026-03-30T06:25:46.878Z",
  "networkType": "ethereum",
  "devdoc": {
    "errors": {
      "AccessControlBadConfirmation()": [
        {
          "details": "The caller of a function is not the expected one. NOTE: Don't confuse with {AccessControlUnauthorizedAccount}."
        }
      ],
      "AccessControlUnauthorizedAccount(address,bytes32)": [
        {
          "details": "The `account` is missing a role."
        }
      ],
      "ReentrancyGuardReentrantCall()": [
        {
          "details": "Unauthorized reentrant call."
        }
      ]
    },
    "events": {
      "RoleAdminChanged(bytes32,bytes32,bytes32)": {
        "details": "Emitted when `newAdminRole` is set as ``role``'s admin role, replacing `previousAdminRole` `DEFAULT_ADMIN_ROLE` is the starting admin for all roles, despite {RoleAdminChanged} not being emitted signaling this."
      },
      "RoleGranted(bytes32,address,address)": {
        "details": "Emitted when `account` is granted `role`. `sender` is the account that originated the contract call, an admin role bearer except when using {AccessControl-_setupRole}."
      },
      "RoleRevoked(bytes32,address,address)": {
        "details": "Emitted when `account` is revoked `role`. `sender` is the account that originated the contract call:   - if using `revokeRole`, it is the admin role bearer   - if using `renounceRole`, it is the role bearer (i.e. `account`)"
      }
    },
    "kind": "dev",
    "methods": {
      "getRoleAdmin(bytes32)": {
        "details": "Returns the admin role that controls `role`. See {grantRole} and {revokeRole}. To change a role's admin, use {_setRoleAdmin}."
      },
      "grantRole(bytes32,address)": {
        "details": "Grants `role` to `account`. If `account` had not been already granted `role`, emits a {RoleGranted} event. Requirements: - the caller must have ``role``'s admin role. May emit a {RoleGranted} event."
      },
      "hasRole(bytes32,address)": {
        "details": "Returns `true` if `account` has been granted `role`."
      },
      "renounceRole(bytes32,address)": {
        "details": "Revokes `role` from the calling account. Roles are often managed via {grantRole} and {revokeRole}: this function's purpose is to provide a mechanism for accounts to lose their privileges if they are compromised (such as when a trusted device is misplaced). If the calling account had been revoked `role`, emits a {RoleRevoked} event. Requirements: - the caller must be `callerConfirmation`. May emit a {RoleRevoked} event."
      },
      "revokeRole(bytes32,address)": {
        "details": "Revokes `role` from `account`. If `account` had been granted `role`, emits a {RoleRevoked} event. Requirements: - the caller must have ``role``'s admin role. May emit a {RoleRevoked} event."
      },
      "supportsInterface(bytes4)": {
        "details": "See {IERC165-supportsInterface}."
      }
    },
    "version": 1
  },
  "userdoc": {
    "kind": "user",
    "methods": {},
    "version": 1
  }
}