{
  "contractName": "FlashLoan",
  "abi": [
    {
      "inputs": [
        {
          "internalType": "address",
          "name": "_pool",
          "type": "address"
        }
      ],
      "stateMutability": "nonpayable",
      "type": "constructor"
    },
    {
      "inputs": [],
      "name": "ReentrancyGuardReentrantCall",
      "type": "error"
    },
    {
      "anonymous": false,
      "inputs": [
        {
          "indexed": true,
          "internalType": "address",
          "name": "borrower",
          "type": "address"
        },
        {
          "indexed": false,
          "internalType": "uint256",
          "name": "amount",
          "type": "uint256"
        },
        {
          "indexed": false,
          "internalType": "uint256",
          "name": "fee",
          "type": "uint256"
        }
      ],
      "name": "FlashLoanExecuted",
      "type": "event"
    },
    {
      "inputs": [],
      "name": "FLASH_LOAN_FEE",
      "outputs": [
        {
          "internalType": "uint256",
          "name": "",
          "type": "uint256"
        }
      ],
      "stateMutability": "view",
      "type": "function",
      "constant": true
    },
    {
      "inputs": [],
      "name": "pool",
      "outputs": [
        {
          "internalType": "contract LendingPoolUpgradeable",
          "name": "",
          "type": "address"
        }
      ],
      "stateMutability": "view",
      "type": "function",
      "constant": true
    },
    {
      "stateMutability": "payable",
      "type": "receive",
      "payable": true
    },
    {
      "inputs": [
        {
          "internalType": "address",
          "name": "receiverAddress",
          "type": "address"
        },
        {
          "internalType": "uint256",
          "name": "amount",
          "type": "uint256"
        },
        {
          "internalType": "bytes",
          "name": "params",
          "type": "bytes"
        }
      ],
      "name": "executeFlashLoan",
      "outputs": [],
      "stateMutability": "nonpayable",
      "type": "function"
    }
  ],
  "bytecode": "0x608060405234801561000f575f80fd5b50604051610a2e380380610a2e833981810160405281019061003191906100dc565b60015f819055508060015f6101000a81548173ffffffffffffffffffffffffffffffffffffffff021916908373ffffffffffffffffffffffffffffffffffffffff16021790555050610107565b5f80fd5b5f73ffffffffffffffffffffffffffffffffffffffff82169050919050565b5f6100ab82610082565b9050919050565b6100bb816100a1565b81146100c5575f80fd5b50565b5f815190506100d6816100b2565b92915050565b5f602082840312156100f1576100f061007e565b5b5f6100fe848285016100c8565b91505092915050565b61091a806101145f395ff3fe608060405260043610610037575f3560e01c806316f0115b146100425780638ffaacaa1461006c578063f3df1253146100965761003e565b3661003e57005b5f80fd5b34801561004d575f80fd5b506100566100be565b60405161006391906103d0565b60405180910390f35b348015610077575f80fd5b506100806100e3565b60405161008d9190610401565b60405180910390f35b3480156100a1575f80fd5b506100bc60048036038101906100b791906104e8565b6100e8565b005b60015f9054906101000a900473ffffffffffffffffffffffffffffffffffffffff1681565b600981565b6100f0610309565b5f47905083811015610137576040517f08c379a000000000000000000000000000000000000000000000000000000000815260040161012e906105d9565b60405180910390fd5b5f6127106009866101489190610624565b6101529190610692565b90508573ffffffffffffffffffffffffffffffffffffffff166108fc8690811502906040515f60405180830381858888f19350505050158015610197573d5f803e3d5ffd5b508573ffffffffffffffffffffffffffffffffffffffff16630db7b028868387876040518563ffffffff1660e01b81526004016101d7949392919061071c565b6020604051808303815f875af11580156101f3573d5f803e3d5ffd5b505050506040513d601f19601f82011682018060405250810190610217919061078f565b610256576040517f08c379a000000000000000000000000000000000000000000000000000000000815260040161024d90610804565b60405180910390fd5b5f47905081836102669190610822565b8110156102a8576040517f08c379a000000000000000000000000000000000000000000000000000000000815260040161029f9061089f565b60405180910390fd5b8673ffffffffffffffffffffffffffffffffffffffff167f61268d74931c41c9775dffb6169a5208aab1d09cb2eb6aabe8b97162801e5dfa87846040516102f09291906108bd565b60405180910390a250505061030361034d565b50505050565b60025f5403610344576040517f3ee5aeb500000000000000000000000000000000000000000000000000000000815260040160405180910390fd5b60025f81905550565b60015f81905550565b5f73ffffffffffffffffffffffffffffffffffffffff82169050919050565b5f819050919050565b5f61039861039361038e84610356565b610375565b610356565b9050919050565b5f6103a98261037e565b9050919050565b5f6103ba8261039f565b9050919050565b6103ca816103b0565b82525050565b5f6020820190506103e35f8301846103c1565b92915050565b5f819050919050565b6103fb816103e9565b82525050565b5f6020820190506104145f8301846103f2565b92915050565b5f80fd5b5f80fd5b5f61042c82610356565b9050919050565b61043c81610422565b8114610446575f80fd5b50565b5f8135905061045781610433565b92915050565b610466816103e9565b8114610470575f80fd5b50565b5f813590506104818161045d565b92915050565b5f80fd5b5f80fd5b5f80fd5b5f8083601f8401126104a8576104a7610487565b5b8235905067ffffffffffffffff8111156104c5576104c461048b565b5b6020830191508360018202830111156104e1576104e061048f565b5b9250929050565b5f805f8060608587031215610500576104ff61041a565b5b5f61050d87828801610449565b945050602061051e87828801610473565b935050604085013567ffffffffffffffff81111561053f5761053e61041e565b5b61054b87828801610493565b925092505092959194509250565b5f82825260208201905092915050565b7f496e73756666696369656e74206c697175696469747920696e20466c617368205f8201527f50726f7669646572000000000000000000000000000000000000000000000000602082015250565b5f6105c3602883610559565b91506105ce82610569565b604082019050919050565b5f6020820190508181035f8301526105f0816105b7565b9050919050565b7f4e487b71000000000000000000000000000000000000000000000000000000005f52601160045260245ffd5b5f61062e826103e9565b9150610639836103e9565b9250828202610647816103e9565b9150828204841483151761065e5761065d6105f7565b5b5092915050565b7f4e487b71000000000000000000000000000000000000000000000000000000005f52601260045260245ffd5b5f61069c826103e9565b91506106a7836103e9565b9250826106b7576106b6610665565b5b828204905092915050565b5f82825260208201905092915050565b828183375f83830152505050565b5f601f19601f8301169050919050565b5f6106fb83856106c2565b93506107088385846106d2565b610711836106e0565b840190509392505050565b5f60608201905061072f5f8301876103f2565b61073c60208301866103f2565b818103604083015261074f8184866106f0565b905095945050505050565b5f8115159050919050565b61076e8161075a565b8114610778575f80fd5b50565b5f8151905061078981610765565b92915050565b5f602082840312156107a4576107a361041a565b5b5f6107b18482850161077b565b91505092915050565b7f466c617368206c6f616e20657865637574696f6e206661696c656400000000005f82015250565b5f6107ee601b83610559565b91506107f9826107ba565b602082019050919050565b5f6020820190508181035f83015261081b816107e2565b9050919050565b5f61082c826103e9565b9150610837836103e9565b925082820190508082111561084f5761084e6105f7565b5b92915050565b7f466c617368206c6f616e206e6f742072657061696420776974682066656500005f82015250565b5f610889601e83610559565b915061089482610855565b602082019050919050565b5f6020820190508181035f8301526108b68161087d565b9050919050565b5f6040820190506108d05f8301856103f2565b6108dd60208301846103f2565b939250505056fea2646970667358221220d38502c30addaf983d0e23bd6bd5889f882c84793a913797fe652914247d51ce64736f6c63430008140033",
  "immutableReferences": {},
  "source": "// SPDX-License-Identifier: MIT\npragma solidity ^0.8.20;\n\nimport \"@openzeppelin/contracts/utils/ReentrancyGuard.sol\";\nimport \"./LendingPoolUpgradeable.sol\";\n\ninterface IFlashLoanReceiver {\n    function executeOperation(uint256 amount, uint256 fee, bytes calldata params) external returns (bool);\n}\n\ncontract FlashLoan is ReentrancyGuard {\n    LendingPoolUpgradeable public pool;\n    uint256 public constant FLASH_LOAN_FEE = 9; // 0.09% fee\n\n    event FlashLoanExecuted(address indexed borrower, uint256 amount, uint256 fee);\n\n    constructor(address _pool) {\n        pool = LendingPoolUpgradeable(payable(_pool));\n    }\n\n    /**\n     * @dev The core flash loan function. \n     * If the receiver doesn't return the principal + fee, the whole TX reverts.\n     */\n    function executeFlashLoan(address receiverAddress, uint256 amount, bytes calldata params) external nonReentrant {\n        uint256 balanceBefore = address(this).balance;\n        require(balanceBefore >= amount, \"Insufficient liquidity in Flash Provider\");\n\n        uint256 fee = (amount * FLASH_LOAN_FEE) / 10000;\n\n        // 1. Transfer funds to borrower\n        payable(receiverAddress).transfer(amount);\n\n        // 2. Trigger borrower's logic\n        require(\n            IFlashLoanReceiver(receiverAddress).executeOperation(amount, fee, params),\n            \"Flash loan execution failed\"\n        );\n\n        // 3. Check for repayment\n        uint256 balanceAfter = address(this).balance;\n        require(balanceAfter >= balanceBefore + fee, \"Flash loan not repaid with fee\");\n\n        emit FlashLoanExecuted(receiverAddress, amount, fee);\n    }\n\n    receive() external payable {}\n}",
  "sourcePath": "D:\\Downloads\\Blockchain\\TY SEM2\\DeFiEnterprise\\blockchain\\contracts\\FlashLoan.sol",
  "compiler": {
    "name": "solc",
    "version": "0.8.20+commit.a1b79de6.Emscripten.clang"
  },
  "schemaVersion": "3.4.16",
  "updatedAt": "2026-03-30T06:25:46.907Z",
  "networkType": "ethereum",
  "devdoc": {
    "errors": {
      "ReentrancyGuardReentrantCall()": [
        {
          "details": "Unauthorized reentrant call."
        }
      ]
    },
    "kind": "dev",
    "methods": {
      "executeFlashLoan(address,uint256,bytes)": {
        "details": "The core flash loan function.  If the receiver doesn't return the principal + fee, the whole TX reverts."
      }
    },
    "version": 1
  },
  "userdoc": {
    "kind": "user",
    "methods": {},
    "version": 1
  }
}