{
  "contractName": "LendingPoolUpgradeable",
  "abi": [
    {
      "inputs": [],
      "stateMutability": "nonpayable",
      "type": "constructor"
    },
    {
      "inputs": [],
      "name": "AccessControlBadConfirmation",
      "type": "error"
    },
    {
      "inputs": [
        {
          "internalType": "address",
          "name": "account",
          "type": "address"
        },
        {
          "internalType": "bytes32",
          "name": "neededRole",
          "type": "bytes32"
        }
      ],
      "name": "AccessControlUnauthorizedAccount",
      "type": "error"
    },
    {
      "inputs": [
        {
          "internalType": "address",
          "name": "target",
          "type": "address"
        }
      ],
      "name": "AddressEmptyCode",
      "type": "error"
    },
    {
      "inputs": [
        {
          "internalType": "address",
          "name": "implementation",
          "type": "address"
        }
      ],
      "name": "ERC1967InvalidImplementation",
      "type": "error"
    },
    {
      "inputs": [],
      "name": "ERC1967NonPayable",
      "type": "error"
    },
    {
      "inputs": [],
      "name": "EnforcedPause",
      "type": "error"
    },
    {
      "inputs": [],
      "name": "ExpectedPause",
      "type": "error"
    },
    {
      "inputs": [],
      "name": "FailedInnerCall",
      "type": "error"
    },
    {
      "inputs": [],
      "name": "InvalidInitialization",
      "type": "error"
    },
    {
      "inputs": [],
      "name": "NotInitializing",
      "type": "error"
    },
    {
      "inputs": [],
      "name": "ReentrancyGuardReentrantCall",
      "type": "error"
    },
    {
      "inputs": [],
      "name": "UUPSUnauthorizedCallContext",
      "type": "error"
    },
    {
      "inputs": [
        {
          "internalType": "bytes32",
          "name": "slot",
          "type": "bytes32"
        }
      ],
      "name": "UUPSUnsupportedProxiableUUID",
      "type": "error"
    },
    {
      "anonymous": false,
      "inputs": [
        {
          "indexed": true,
          "internalType": "address",
          "name": "user",
          "type": "address"
        },
        {
          "indexed": false,
          "internalType": "uint256",
          "name": "amount",
          "type": "uint256"
        }
      ],
      "name": "Borrowed",
      "type": "event"
    },
    {
      "anonymous": false,
      "inputs": [
        {
          "indexed": true,
          "internalType": "address",
          "name": "user",
          "type": "address"
        },
        {
          "indexed": false,
          "internalType": "uint256",
          "name": "amount",
          "type": "uint256"
        }
      ],
      "name": "Deposited",
      "type": "event"
    },
    {
      "anonymous": false,
      "inputs": [
        {
          "indexed": false,
          "internalType": "uint64",
          "name": "version",
          "type": "uint64"
        }
      ],
      "name": "Initialized",
      "type": "event"
    },
    {
      "anonymous": false,
      "inputs": [
        {
          "indexed": true,
          "internalType": "address",
          "name": "user",
          "type": "address"
        },
        {
          "indexed": true,
          "internalType": "address",
          "name": "liquidator",
          "type": "address"
        },
        {
          "indexed": false,
          "internalType": "uint256",
          "name": "amountSeized",
          "type": "uint256"
        }
      ],
      "name": "Liquidated",
      "type": "event"
    },
    {
      "anonymous": false,
      "inputs": [
        {
          "indexed": false,
          "internalType": "address",
          "name": "account",
          "type": "address"
        }
      ],
      "name": "Paused",
      "type": "event"
    },
    {
      "anonymous": false,
      "inputs": [
        {
          "indexed": true,
          "internalType": "address",
          "name": "user",
          "type": "address"
        },
        {
          "indexed": false,
          "internalType": "uint256",
          "name": "amount",
          "type": "uint256"
        }
      ],
      "name": "Repaid",
      "type": "event"
    },
    {
      "anonymous": false,
      "inputs": [
        {
          "indexed": true,
          "internalType": "bytes32",
          "name": "role",
          "type": "bytes32"
        },
        {
          "indexed": true,
          "internalType": "bytes32",
          "name": "previousAdminRole",
          "type": "bytes32"
        },
        {
          "indexed": true,
          "internalType": "bytes32",
          "name": "newAdminRole",
          "type": "bytes32"
        }
      ],
      "name": "RoleAdminChanged",
      "type": "event"
    },
    {
      "anonymous": false,
      "inputs": [
        {
          "indexed": true,
          "internalType": "bytes32",
          "name": "role",
          "type": "bytes32"
        },
        {
          "indexed": true,
          "internalType": "address",
          "name": "account",
          "type": "address"
        },
        {
          "indexed": true,
          "internalType": "address",
          "name": "sender",
          "type": "address"
        }
      ],
      "name": "RoleGranted",
      "type": "event"
    },
    {
      "anonymous": false,
      "inputs": [
        {
          "indexed": true,
          "internalType": "bytes32",
          "name": "role",
          "type": "bytes32"
        },
        {
          "indexed": true,
          "internalType": "address",
          "name": "account",
          "type": "address"
        },
        {
          "indexed": true,
          "internalType": "address",
          "name": "sender",
          "type": "address"
        }
      ],
      "name": "RoleRevoked",
      "type": "event"
    },
    {
      "anonymous": false,
      "inputs": [
        {
          "indexed": false,
          "internalType": "address",
          "name": "account",
          "type": "address"
        }
      ],
      "name": "Unpaused",
      "type": "event"
    },
    {
      "anonymous": false,
      "inputs": [
        {
          "indexed": true,
          "internalType": "address",
          "name": "implementation",
          "type": "address"
        }
      ],
      "name": "Upgraded",
      "type": "event"
    },
    {
      "inputs": [],
      "name": "COLLATERAL_FACTOR",
      "outputs": [
        {
          "internalType": "uint256",
          "name": "",
          "type": "uint256"
        }
      ],
      "stateMutability": "view",
      "type": "function",
      "constant": true
    },
    {
      "inputs": [],
      "name": "DEFAULT_ADMIN_ROLE",
      "outputs": [
        {
          "internalType": "bytes32",
          "name": "",
          "type": "bytes32"
        }
      ],
      "stateMutability": "view",
      "type": "function",
      "constant": true
    },
    {
      "inputs": [],
      "name": "LIQUIDATION_BONUS",
      "outputs": [
        {
          "internalType": "uint256",
          "name": "",
          "type": "uint256"
        }
      ],
      "stateMutability": "view",
      "type": "function",
      "constant": true
    },
    {
      "inputs": [],
      "name": "LIQUIDATION_THRESHOLD",
      "outputs": [
        {
          "internalType": "uint256",
          "name": "",
          "type": "uint256"
        }
      ],
      "stateMutability": "view",
      "type": "function",
      "constant": true
    },
    {
      "inputs": [],
      "name": "LIQUIDATOR_ROLE",
      "outputs": [
        {
          "internalType": "bytes32",
          "name": "",
          "type": "bytes32"
        }
      ],
      "stateMutability": "view",
      "type": "function",
      "constant": true
    },
    {
      "inputs": [],
      "name": "MIN_HEALTH_FACTOR",
      "outputs": [
        {
          "internalType": "uint256",
          "name": "",
          "type": "uint256"
        }
      ],
      "stateMutability": "view",
      "type": "function",
      "constant": true
    },
    {
      "inputs": [],
      "name": "SUPER_ADMIN_ROLE",
      "outputs": [
        {
          "internalType": "bytes32",
          "name": "",
          "type": "bytes32"
        }
      ],
      "stateMutability": "view",
      "type": "function",
      "constant": true
    },
    {
      "inputs": [],
      "name": "UPGRADE_INTERFACE_VERSION",
      "outputs": [
        {
          "internalType": "string",
          "name": "",
          "type": "string"
        }
      ],
      "stateMutability": "view",
      "type": "function",
      "constant": true
    },
    {
      "inputs": [
        {
          "internalType": "address",
          "name": "",
          "type": "address"
        }
      ],
      "name": "blacklisted",
      "outputs": [
        {
          "internalType": "bool",
          "name": "",
          "type": "bool"
        }
      ],
      "stateMutability": "view",
      "type": "function",
      "constant": true
    },
    {
      "inputs": [
        {
          "internalType": "bytes32",
          "name": "role",
          "type": "bytes32"
        }
      ],
      "name": "getRoleAdmin",
      "outputs": [
        {
          "internalType": "bytes32",
          "name": "",
          "type": "bytes32"
        }
      ],
      "stateMutability": "view",
      "type": "function",
      "constant": true
    },
    {
      "inputs": [
        {
          "internalType": "bytes32",
          "name": "role",
          "type": "bytes32"
        },
        {
          "internalType": "address",
          "name": "account",
          "type": "address"
        }
      ],
      "name": "grantRole",
      "outputs": [],
      "stateMutability": "nonpayable",
      "type": "function"
    },
    {
      "inputs": [
        {
          "internalType": "bytes32",
          "name": "role",
          "type": "bytes32"
        },
        {
          "internalType": "address",
          "name": "account",
          "type": "address"
        }
      ],
      "name": "hasRole",
      "outputs": [
        {
          "internalType": "bool",
          "name": "",
          "type": "bool"
        }
      ],
      "stateMutability": "view",
      "type": "function",
      "constant": true
    },
    {
      "inputs": [],
      "name": "paused",
      "outputs": [
        {
          "internalType": "bool",
          "name": "",
          "type": "bool"
        }
      ],
      "stateMutability": "view",
      "type": "function",
      "constant": true
    },
    {
      "inputs": [],
      "name": "proxiableUUID",
      "outputs": [
        {
          "internalType": "bytes32",
          "name": "",
          "type": "bytes32"
        }
      ],
      "stateMutability": "view",
      "type": "function",
      "constant": true
    },
    {
      "inputs": [
        {
          "internalType": "bytes32",
          "name": "role",
          "type": "bytes32"
        },
        {
          "internalType": "address",
          "name": "callerConfirmation",
          "type": "address"
        }
      ],
      "name": "renounceRole",
      "outputs": [],
      "stateMutability": "nonpayable",
      "type": "function"
    },
    {
      "inputs": [
        {
          "internalType": "bytes32",
          "name": "role",
          "type": "bytes32"
        },
        {
          "internalType": "address",
          "name": "account",
          "type": "address"
        }
      ],
      "name": "revokeRole",
      "outputs": [],
      "stateMutability": "nonpayable",
      "type": "function"
    },
    {
      "inputs": [
        {
          "internalType": "bytes4",
          "name": "interfaceId",
          "type": "bytes4"
        }
      ],
      "name": "supportsInterface",
      "outputs": [
        {
          "internalType": "bool",
          "name": "",
          "type": "bool"
        }
      ],
      "stateMutability": "view",
      "type": "function",
      "constant": true
    },
    {
      "inputs": [
        {
          "internalType": "address",
          "name": "newImplementation",
          "type": "address"
        },
        {
          "internalType": "bytes",
          "name": "data",
          "type": "bytes"
        }
      ],
      "name": "upgradeToAndCall",
      "outputs": [],
      "stateMutability": "payable",
      "type": "function",
      "payable": true
    },
    {
      "inputs": [
        {
          "internalType": "address",
          "name": "",
          "type": "address"
        }
      ],
      "name": "userBorrows",
      "outputs": [
        {
          "internalType": "uint256",
          "name": "",
          "type": "uint256"
        }
      ],
      "stateMutability": "view",
      "type": "function",
      "constant": true
    },
    {
      "inputs": [
        {
          "internalType": "address",
          "name": "",
          "type": "address"
        }
      ],
      "name": "userDeposits",
      "outputs": [
        {
          "internalType": "uint256",
          "name": "",
          "type": "uint256"
        }
      ],
      "stateMutability": "view",
      "type": "function",
      "constant": true
    },
    {
      "stateMutability": "payable",
      "type": "receive",
      "payable": true
    },
    {
      "inputs": [
        {
          "internalType": "address",
          "name": "admin",
          "type": "address"
        }
      ],
      "name": "initialize",
      "outputs": [],
      "stateMutability": "nonpayable",
      "type": "function"
    },
    {
      "inputs": [],
      "name": "deposit",
      "outputs": [],
      "stateMutability": "payable",
      "type": "function",
      "payable": true
    },
    {
      "inputs": [
        {
          "internalType": "uint256",
          "name": "_amount",
          "type": "uint256"
        }
      ],
      "name": "borrow",
      "outputs": [],
      "stateMutability": "nonpayable",
      "type": "function"
    },
    {
      "inputs": [],
      "name": "repay",
      "outputs": [],
      "stateMutability": "payable",
      "type": "function",
      "payable": true
    },
    {
      "inputs": [
        {
          "internalType": "address",
          "name": "_user",
          "type": "address"
        }
      ],
      "name": "liquidate",
      "outputs": [],
      "stateMutability": "payable",
      "type": "function",
      "payable": true
    },
    {
      "inputs": [
        {
          "internalType": "address",
          "name": "_user",
          "type": "address"
        }
      ],
      "name": "getHealthFactor",
      "outputs": [
        {
          "internalType": "uint256",
          "name": "",
          "type": "uint256"
        }
      ],
      "stateMutability": "view",
      "type": "function",
      "constant": true
    },
    {
      "inputs": [
        {
          "internalType": "address",
          "name": "_user",
          "type": "address"
        },
        {
          "internalType": "bool",
          "name": "_status",
          "type": "bool"
        }
      ],
      "name": "setBlacklist",
      "outputs": [],
      "stateMutability": "nonpayable",
      "type": "function"
    },
    {
      "inputs": [],
      "name": "togglePause",
      "outputs": [],
      "stateMutability": "nonpayable",
      "type": "function"
    }
  ],
  "bytecode": "0x60a06040523060805234801561001457600080fd5b5061001d610022565b6100d4565b7ff0c57e16840df040f15088dc2f81fe391c3923bec73e23a9662efc9c229c6a00805468010000000000000000900460ff16156100725760405163f92ee8a960e01b815260040160405180910390fd5b80546001600160401b03908116146100d15780546001600160401b0319166001600160401b0390811782556040519081527fc7f505b2f371ae2175ee4913f4499e1f2633a7b5936321eed1cdaeb6115181d29060200160405180910390a15b50565b608051611a696100fd600039600081816111b2015281816111db015261131f0152611a696000f3fe6080604052600436106101bb5760003560e01c80635c975abb116100ec578063c4ae31681161008a578063d0e30db011610064578063d0e30db0146104c7578063d547741f146104cf578063dbac26e9146104ef578063fe6bcd7c1461051f57600080fd5b8063c4ae316814610472578063c4d66de814610487578063c5ebeaec146104a757600080fd5b806391d14854116100c657806391d14854146103e3578063a217fddf14610403578063ad3cb1cc14610418578063b5627e421461045657600080fd5b80635c975abb1461037c57806377593cc4146103a157806390a8ae9b146103ce57600080fd5b80632f86556811610159578063402d888311610133578063402d88831461032a5780634460bdd6146103325780634f1ef2861461035457806352d1902d1461036757600080fd5b80632f865568146102e25780633574d4c4146102f557806336568abe1461030a57600080fd5b806316d8887a1161019557806316d8887a1461025957806317f49e051461028d578063248a9ca3146102a25780632f2ff15d146102c257600080fd5b806301ffc9a7146101c75780630ba36dcd146101fc578063153b0d1e1461023757600080fd5b366101c257005b600080fd5b3480156101d357600080fd5b506101e76101e23660046116d8565b61053f565b60405190151581526020015b60405180910390f35b34801561020857600080fd5b5061022961021736600461171e565b60006020819052908152604090205481565b6040519081526020016101f3565b34801561024357600080fd5b50610257610252366004611739565b610576565b005b34801561026557600080fd5b506102297f5e17fc5225d4a099df75359ce1f405503ca79498a8dc46a7d583235a0ee45c1681565b34801561029957600080fd5b50610229605081565b3480156102ae57600080fd5b506102296102bd366004611775565b6105ba565b3480156102ce57600080fd5b506102576102dd36600461178e565b6105dc565b6102576102f036600461171e565b6105fe565b34801561030157600080fd5b50610229600a81565b34801561031657600080fd5b5061025761032536600461178e565b610921565b610257610959565b34801561033e57600080fd5b506102296000805160206119b483398151915281565b6102576103623660046117d0565b610a6c565b34801561037357600080fd5b50610229610a8b565b34801561038857600080fd5b506000805160206119f48339815191525460ff166101e7565b3480156103ad57600080fd5b506102296103bc36600461171e565b60016020526000908152604090205481565b3480156103da57600080fd5b50610229605581565b3480156103ef57600080fd5b506101e76103fe36600461178e565b610aa8565b34801561040f57600080fd5b50610229600081565b34801561042457600080fd5b50610449604051806040016040528060058152602001640352e302e360dc1b81525081565b6040516101f391906118b6565b34801561046257600080fd5b50610229670de0b6b3a764000081565b34801561047e57600080fd5b50610257610ae0565b34801561049357600080fd5b506102576104a236600461171e565b610b1f565b3480156104b357600080fd5b506102576104c2366004611775565b610c6b565b610257610e61565b3480156104db57600080fd5b506102576104ea36600461178e565b610f57565b3480156104fb57600080fd5b506101e761050a36600461171e565b60026020526000908152604090205460ff1681565b34801561052b57600080fd5b5061022961053a36600461171e565b610f73565b60006001600160e01b03198216637965db0b60e01b148061057057506301ffc9a760e01b6001600160e01b03198316145b92915050565b6000805160206119b483398151915261058e81610ffd565b506001600160a01b03919091166000908152600260205260409020805460ff1916911515919091179055565b60009081526000805160206119d4833981519152602052604090206001015490565b6105e5826105ba565b6105ee81610ffd565b6105f88383611007565b50505050565b6106066110ac565b6106307f5e17fc5225d4a099df75359ce1f405503ca79498a8dc46a7d583235a0ee45c1633610aa8565b6106905760405162461bcd60e51b815260206004820152602660248201527f43616c6c6572206973206e6f7420616e20617574686f72697a6564206c69717560448201526534b230ba37b960d11b60648201526084015b60405180910390fd5b600061069b82610f73565b9050670de0b6b3a764000081106107005760405162461bcd60e51b8152602060048201526024808201527f506f736974696f6e206973207361666520284865616c746820466163746f72206044820152633e20312960e01b6064820152608401610687565b6001600160a01b038216600090815260016020526040902054348111156107605760405162461bcd60e51b8152602060048201526014602482015273135d5cdd0818dbdd995c88199d5b1b081919589d60621b6044820152606401610687565b6000606461076f600a826118ff565b6107799084611912565b6107839190611929565b6001600160a01b0385166000908152602081905260409020549091508111156107fa5760405162461bcd60e51b815260206004820152602360248201527f496e73756666696369656e7420636f6c6c61746572616c20696e20706f73697460448201526234b7b760e91b6064820152608401610687565b6001600160a01b0384166000908152600160209081526040808320839055908290528120805483929061082e90849061194b565b9091555050604051600090339083908381818185875af1925050503d8060008114610875576040519150601f19603f3d011682016040523d82523d6000602084013e61087a565b606091505b50509050806108c35760405162461bcd60e51b8152602060048201526015602482015274109bdb9d5cc81d1c985b9cd9995c8819985a5b1959605a1b6044820152606401610687565b60405182815233906001600160a01b038716907fde0aa27286f5cb3a4ed853dc4823ead62d63e92cdf13de09d6aece56970721a49060200160405180910390a35050505061091e6001600080516020611a1483398151915255565b50565b6001600160a01b038116331461094a5760405163334bd91960e11b815260040160405180910390fd5b61095482826110f8565b505050565b610961611174565b600034116109b15760405162461bcd60e51b815260206004820152601860248201527f526570617920616d6f756e74206d757374206265203e203000000000000000006044820152606401610687565b33600090815260016020526040902054341115610a105760405162461bcd60e51b815260206004820152601760248201527f5265706179696e67206d6f7265207468616e20646562740000000000000000006044820152606401610687565b3360009081526001602052604081208054349290610a2f90849061194b565b909155505060405134815233907f0516911bcc3a0a7412a44601057c0a0a1ec628bde049a84284bc428866534488906020015b60405180910390a2565b610a746111a7565b610a7d8261124c565b610a878282611257565b5050565b6000610a95611314565b5060008051602061199483398151915290565b60009182526000805160206119d4833981519152602090815260408084206001600160a01b0393909316845291905290205460ff1690565b6000805160206119b4833981519152610af881610ffd565b6000805160206119f48339815191525460ff16610b175761091e61135d565b61091e6113c0565b7ff0c57e16840df040f15088dc2f81fe391c3923bec73e23a9662efc9c229c6a008054600160401b810460ff16159067ffffffffffffffff16600081158015610b655750825b905060008267ffffffffffffffff166001148015610b825750303b155b905081158015610b90575080155b15610bae5760405163f92ee8a960e01b815260040160405180910390fd5b845467ffffffffffffffff191660011785558315610bd857845460ff60401b1916600160401b1785555b610be0611406565b610be861140e565b610bf0611406565b610bf861141e565b610c03600087611007565b50610c1c6000805160206119b483398151915287611007565b508315610c6357845460ff60401b19168555604051600181527fc7f505b2f371ae2175ee4913f4499e1f2633a7b5936321eed1cdaeb6115181d29060200160405180910390a15b505050505050565b610c73611174565b610c7b6110ac565b3360009081526002602052604090205460ff1615610cce5760405162461bcd60e51b815260206004820152601060248201526f155cd95c88189b1858dadb1a5cdd195960821b6044820152606401610687565b33600090815260208190526040812054606490610ced90605090611912565b610cf79190611929565b336000908152600160205260409020549091508190610d179084906118ff565b1115610d655760405162461bcd60e51b815260206004820152601760248201527f496e73756666696369656e7420636f6c6c61746572616c0000000000000000006044820152606401610687565b3360009081526001602052604081208054849290610d849084906118ff565b9091555050604051600090339084908381818185875af1925050503d8060008114610dcb576040519150601f19603f3d011682016040523d82523d6000602084013e610dd0565b606091505b5050905080610e135760405162461bcd60e51b815260206004820152600f60248201526e151c985b9cd9995c8819985a5b1959608a1b6044820152606401610687565b60405183815233907fac59582e5396aca512fa873a2047e7f4c80f8f55d4a06cb34a78a0187f62719f9060200160405180910390a2505061091e6001600080516020611a1483398151915255565b610e69611174565b3360009081526002602052604090205460ff1615610ebc5760405162461bcd60e51b815260206004820152601060248201526f155cd95c88189b1858dadb1a5cdd195960821b6044820152606401610687565b60003411610f015760405162461bcd60e51b81526020600482015260126024820152710416d6f756e74206d757374206265203e20360741b6044820152606401610687565b3360009081526020819052604081208054349290610f209084906118ff565b909155505060405134815233907f2da466a7b24304f47e87fa2e1e5a81b9831ce54fec19055ce277ca2f39ba42c490602001610a62565b610f60826105ba565b610f6981610ffd565b6105f883836110f8565b6001600160a01b038116600090815260016020526040812054808203610fa4575068056bc75e2d6310000092915050565b6001600160a01b038316600090815260208190526040812054906064610fcb605584611912565b610fd59190611929565b905082610fea82670de0b6b3a7640000611912565b610ff49190611929565b95945050505050565b61091e813361142e565b60006000805160206119d48339815191526110228484610aa8565b6110a2576000848152602082815260408083206001600160a01b03871684529091529020805460ff191660011790556110583390565b6001600160a01b0316836001600160a01b0316857f2f8788117e7eff1d82e926ec794901d17c78024a50270940304540a733656f0d60405160405180910390a46001915050610570565b6000915050610570565b600080516020611a148339815191528054600119016110de57604051633ee5aeb560e01b815260040160405180910390fd5b60029055565b6001600080516020611a1483398151915255565b60006000805160206119d48339815191526111138484610aa8565b156110a2576000848152602082815260408083206001600160a01b0387168085529252808320805460ff1916905551339287917ff6391f5c32d9c69d2a47ea670b442974b53935d1edc7fd64eb21e047a839171b9190a46001915050610570565b6000805160206119f48339815191525460ff16156111a55760405163d93c066560e01b815260040160405180910390fd5b565b306001600160a01b037f000000000000000000000000000000000000000000000000000000000000000016148061122e57507f00000000000000000000000000000000000000000000000000000000000000006001600160a01b0316611222600080516020611994833981519152546001600160a01b031690565b6001600160a01b031614155b156111a55760405163703e46dd60e11b815260040160405180910390fd5b6000610a8781610ffd565b816001600160a01b03166352d1902d6040518163ffffffff1660e01b8152600401602060405180830381865afa9250505080156112b1575060408051601f3d908101601f191682019092526112ae9181019061195e565b60015b6112d957604051634c9c8ce360e01b81526001600160a01b0383166004820152602401610687565b600080516020611994833981519152811461130a57604051632a87526960e21b815260048101829052602401610687565b6109548383611467565b306001600160a01b037f000000000000000000000000000000000000000000000000000000000000000016146111a55760405163703e46dd60e11b815260040160405180910390fd5b611365611174565b6000805160206119f4833981519152805460ff191660011781557f62e78cea01bee320cd4e420270b5ea74000d11b0c9f74754ebdbfc544b05a258335b6040516001600160a01b03909116815260200160405180910390a150565b6113c86114bd565b6000805160206119f4833981519152805460ff191681557f5db9ee0a495bf2e6ff9c91a7834c1ba4fdd244a5e8aa4e537bd38aeae4b073aa336113a2565b6111a56114ed565b6114166114ed565b6111a5611536565b6114266114ed565b6111a5611557565b6114388282610aa8565b610a875760405163e2517d3f60e01b81526001600160a01b038216600482015260248101839052604401610687565b6114708261155f565b6040516001600160a01b038316907fbc7cd75a20ee27fd9adebab32041f755214dbc6bffa90cc0225b39da2e5c2d3b90600090a28051156114b55761095482826115c4565b610a87611631565b6000805160206119f48339815191525460ff166111a557604051638dfc202b60e01b815260040160405180910390fd5b7ff0c57e16840df040f15088dc2f81fe391c3923bec73e23a9662efc9c229c6a0054600160401b900460ff166111a557604051631afcd79f60e31b815260040160405180910390fd5b61153e6114ed565b6000805160206119f4833981519152805460ff19169055565b6110e46114ed565b806001600160a01b03163b60000361159557604051634c9c8ce360e01b81526001600160a01b0382166004820152602401610687565b60008051602061199483398151915280546001600160a01b0319166001600160a01b0392909216919091179055565b6060600080846001600160a01b0316846040516115e19190611977565b600060405180830381855af49150503d806000811461161c576040519150601f19603f3d011682016040523d82523d6000602084013e611621565b606091505b5091509150610ff4858383611650565b34156111a55760405163b398979f60e01b815260040160405180910390fd5b60608261166557611660826116af565b6116a8565b815115801561167c57506001600160a01b0384163b155b156116a557604051639996b31560e01b81526001600160a01b0385166004820152602401610687565b50805b9392505050565b8051156116bf5780518082602001fd5b604051630a12f52160e11b815260040160405180910390fd5b6000602082840312156116ea57600080fd5b81356001600160e01b0319811681146116a857600080fd5b80356001600160a01b038116811461171957600080fd5b919050565b60006020828403121561173057600080fd5b6116a882611702565b6000806040838503121561174c57600080fd5b61175583611702565b91506020830135801515811461176a57600080fd5b809150509250929050565b60006020828403121561178757600080fd5b5035919050565b600080604083850312156117a157600080fd5b823591506117b160208401611702565b90509250929050565b634e487b7160e01b600052604160045260246000fd5b600080604083850312156117e357600080fd5b6117ec83611702565b9150602083013567ffffffffffffffff8082111561180957600080fd5b818501915085601f83011261181d57600080fd5b81358181111561182f5761182f6117ba565b604051601f8201601f19908116603f01168101908382118183101715611857576118576117ba565b8160405282815288602084870101111561187057600080fd5b8260208601602083013760006020848301015280955050505050509250929050565b60005b838110156118ad578181015183820152602001611895565b50506000910152565b60208152600082518060208401526118d5816040850160208701611892565b601f01601f19169190910160400192915050565b634e487b7160e01b600052601160045260246000fd5b80820180821115610570576105706118e9565b8082028115828204841417610570576105706118e9565b60008261194657634e487b7160e01b600052601260045260246000fd5b500490565b81810381811115610570576105706118e9565b60006020828403121561197057600080fd5b5051919050565b60008251611989818460208701611892565b919091019291505056fe360894a13ba1a3210667c828492db98dca3e2076cc3735a920a3ca505d382bbc7613a25ecc738585a232ad50a301178f12b3ba8887d13e138b523c4269c4768902dd7bc7dec4dceedda775e58dd541e08a116c6c53815c0bd028192f7b626800cd5ed15c6e187e77e9aee88184c21f4f2182ab5827cb3b7e07fbedcd63f033009b779b17422d0df92223018b32b4d1fa46e071723d6817e2486d003becc55f00a2646970667358221220b81db8a92900bba006ec901de3fa86bf694db26aa521252c0a1c0d006af8f01e64736f6c63430008140033",
  "immutableReferences": {
    "636": [
      {
        "length": 32,
        "start": 4530
      },
      {
        "length": 32,
        "start": 4571
      },
      {
        "length": 32,
        "start": 4895
      }
    ]
  },
  "source": "// SPDX-License-Identifier: MIT\npragma solidity ^0.8.20;\n\nimport \"@openzeppelin/contracts-upgradeable/proxy/utils/UUPSUpgradeable.sol\";\nimport \"@openzeppelin/contracts-upgradeable/access/AccessControlUpgradeable.sol\";\nimport \"@openzeppelin/contracts-upgradeable/utils/PausableUpgradeable.sol\";\nimport \"@openzeppelin/contracts-upgradeable/proxy/utils/Initializable.sol\";\nimport \"@openzeppelin/contracts-upgradeable/utils/ReentrancyGuardUpgradeable.sol\";\n\n/**\n * @title LendingPoolUpgradeable\n * @dev Core Protocol Contract: Implements Health Factor Math, Interest Simulation, and Role-Based Liquidation.\n */\ncontract LendingPoolUpgradeable is \n    Initializable,\n    UUPSUpgradeable, \n    AccessControlUpgradeable, \n    ReentrancyGuardUpgradeable, \n    PausableUpgradeable \n{\n    // --- Role Definitions ---\n    bytes32 public constant SUPER_ADMIN_ROLE = keccak256(\"SUPER_ADMIN_ROLE\");\n    bytes32 public constant LIQUIDATOR_ROLE = keccak256(\"LIQUIDATOR_ROLE\");\n\n    // --- State Variables ---\n    mapping(address => uint256) public userDeposits;\n    mapping(address => uint256) public userBorrows;\n    mapping(address => bool) public blacklisted;\n\n    // --- Financial Parameters ---\n    uint256 public constant COLLATERAL_FACTOR = 80;    // Max LTV (80%)\n    uint256 public constant LIQUIDATION_THRESHOLD = 85; // 85%\n    uint256 public constant LIQUIDATION_BONUS = 10;    // 10% bonus for liquidators\n    uint256 public constant MIN_HEALTH_FACTOR = 1e18;  // 1.0 represented in Wad\n\n    // --- Events ---\n    event Deposited(address indexed user, uint256 amount);\n    event Borrowed(address indexed user, uint256 amount);\n    event Repaid(address indexed user, uint256 amount);\n    event Liquidated(address indexed user, address indexed liquidator, uint256 amountSeized);\n\n    /// @custom:oz-upgrades-unsafe-allow constructor\n    constructor() {\n        _disableInitializers();\n    }\n\n    function initialize(address admin) public initializer {\n        __AccessControl_init();\n        __Pausable_init();\n        __UUPSUpgradeable_init();\n        __ReentrancyGuard_init();\n\n        _grantRole(DEFAULT_ADMIN_ROLE, admin);\n        _grantRole(SUPER_ADMIN_ROLE, admin);\n    }\n\n    function _authorizeUpgrade(address newImplementation) internal override onlyRole(DEFAULT_ADMIN_ROLE) {}\n\n    // --- Core Financial Functions ---\n\n    /**\n     * @dev Users deposit ETH to act as collateral.\n     */\n    function deposit() external payable whenNotPaused {\n        require(!blacklisted[msg.sender], \"User blacklisted\");\n        require(msg.value > 0, \"Amount must be > 0\");\n\n        userDeposits[msg.sender] += msg.value;\n        emit Deposited(msg.sender, msg.value);\n    }\n\n    /**\n     * @dev Users borrow ETH against their collateral.\n     * @notice Enforces the 80% LTV rule.\n     */\n    function borrow(uint256 _amount) external whenNotPaused nonReentrant {\n        require(!blacklisted[msg.sender], \"User blacklisted\");\n        \n        uint256 maxBorrow = (userDeposits[msg.sender] * COLLATERAL_FACTOR) / 100;\n        require(userBorrows[msg.sender] + _amount <= maxBorrow, \"Insufficient collateral\");\n\n        userBorrows[msg.sender] += _amount;\n        \n        (bool success, ) = payable(msg.sender).call{value: _amount}(\"\");\n        require(success, \"Transfer failed\");\n        \n        emit Borrowed(msg.sender, _amount);\n    }\n\n    /**\n     * @dev Users repay their debt to improve their Health Factor.\n     */\n    function repay() external payable whenNotPaused {\n        require(msg.value > 0, \"Repay amount must be > 0\");\n        require(userBorrows[msg.sender] >= msg.value, \"Repaying more than debt\");\n\n        userBorrows[msg.sender] -= msg.value;\n        emit Repaid(msg.sender, msg.value);\n    }\n\n    /**\n     * @dev Liquidation logic: Separation of Power.\n     * Only addresses with LIQUIDATOR_ROLE can call this.\n     */\n    function liquidate(address _user) external payable nonReentrant {\n        require(hasRole(LIQUIDATOR_ROLE, msg.sender), \"Caller is not an authorized liquidator\");\n        \n        uint256 healthFactor = getHealthFactor(_user);\n        require(healthFactor < MIN_HEALTH_FACTOR, \"Position is safe (Health Factor > 1)\");\n\n        uint256 debtToCover = userBorrows[_user];\n        require(msg.value >= debtToCover, \"Must cover full debt\");\n\n        // Calculate Collateral to Seize: Debt + 10% Bonus\n        uint256 collateralToSeize = (debtToCover * (100 + LIQUIDATION_BONUS)) / 100;\n        require(userDeposits[_user] >= collateralToSeize, \"Insufficient collateral in position\");\n\n        userBorrows[_user] = 0;\n        userDeposits[_user] -= collateralToSeize;\n\n        // Send seized collateral to liquidator\n        (bool success, ) = payable(msg.sender).call{value: collateralToSeize}(\"\");\n        require(success, \"Bonus transfer failed\");\n\n        emit Liquidated(_user, msg.sender, collateralToSeize);\n    }\n\n    // --- Mathematical View Functions ---\n\n    /**\n     * @dev Health Factor = (Collateral * Threshold) / Borrows.\n     * Scale: 1e18 = 1.0. Values < 1e18 are liquidatable.\n     */\n    function getHealthFactor(address _user) public view returns (uint256) {\n        uint256 borrows = userBorrows[_user];\n        if (borrows == 0) return 100e18; // Infinite safety for no debt\n\n        uint256 collateralValue = userDeposits[_user];\n        uint256 collateralAdjusted = (collateralValue * LIQUIDATION_THRESHOLD) / 100;\n\n        // Scale to Wad (18 decimals) for precision\n        return (collateralAdjusted * 1e18) / borrows;\n    }\n\n    // --- Admin & Security ---\n\n    function setBlacklist(address _user, bool _status) external onlyRole(SUPER_ADMIN_ROLE) {\n        blacklisted[_user] = _status;\n    }\n\n    function togglePause() external onlyRole(SUPER_ADMIN_ROLE) {\n        paused() ? _unpause() : _pause();\n    }\n\n    receive() external payable {}\n}",
  "sourcePath": "D:\\Downloads\\Blockchain\\TY SEM2\\DeFiEnterprise\\blockchain\\contracts\\LendingPoolUpgradeable.sol",
  "compiler": {
    "name": "solc",
    "version": "0.8.20+commit.a1b79de6.Emscripten.clang"
  },
  "schemaVersion": "3.4.16",
  "updatedAt": "2026-03-03T08:07:48.639Z",
  "networkType": "ethereum",
  "devdoc": {
    "details": "Core Protocol Contract: Implements Health Factor Math, Interest Simulation, and Role-Based Liquidation.",
    "errors": {
      "AccessControlBadConfirmation()": [
        {
          "details": "The caller of a function is not the expected one. NOTE: Don't confuse with {AccessControlUnauthorizedAccount}."
        }
      ],
      "AccessControlUnauthorizedAccount(address,bytes32)": [
        {
          "details": "The `account` is missing a role."
        }
      ],
      "AddressEmptyCode(address)": [
        {
          "details": "There's no code at `target` (it is not a contract)."
        }
      ],
      "ERC1967InvalidImplementation(address)": [
        {
          "details": "The `implementation` of the proxy is invalid."
        }
      ],
      "ERC1967NonPayable()": [
        {
          "details": "An upgrade function sees `msg.value > 0` that may be lost."
        }
      ],
      "EnforcedPause()": [
        {
          "details": "The operation failed because the contract is paused."
        }
      ],
      "ExpectedPause()": [
        {
          "details": "The operation failed because the contract is not paused."
        }
      ],
      "FailedInnerCall()": [
        {
          "details": "A call to an address target failed. The target may have reverted."
        }
      ],
      "InvalidInitialization()": [
        {
          "details": "The contract is already initialized."
        }
      ],
      "NotInitializing()": [
        {
          "details": "The contract is not initializing."
        }
      ],
      "ReentrancyGuardReentrantCall()": [
        {
          "details": "Unauthorized reentrant call."
        }
      ],
      "UUPSUnauthorizedCallContext()": [
        {
          "details": "The call is from an unauthorized context."
        }
      ],
      "UUPSUnsupportedProxiableUUID(bytes32)": [
        {
          "details": "The storage `slot` is unsupported as a UUID."
        }
      ]
    },
    "events": {
      "Initialized(uint64)": {
        "details": "Triggered when the contract has been initialized or reinitialized."
      },
      "Paused(address)": {
        "details": "Emitted when the pause is triggered by `account`."
      },
      "RoleAdminChanged(bytes32,bytes32,bytes32)": {
        "details": "Emitted when `newAdminRole` is set as ``role``'s admin role, replacing `previousAdminRole` `DEFAULT_ADMIN_ROLE` is the starting admin for all roles, despite {RoleAdminChanged} not being emitted signaling this."
      },
      "RoleGranted(bytes32,address,address)": {
        "details": "Emitted when `account` is granted `role`. `sender` is the account that originated the contract call, an admin role bearer except when using {AccessControl-_setupRole}."
      },
      "RoleRevoked(bytes32,address,address)": {
        "details": "Emitted when `account` is revoked `role`. `sender` is the account that originated the contract call:   - if using `revokeRole`, it is the admin role bearer   - if using `renounceRole`, it is the role bearer (i.e. `account`)"
      },
      "Unpaused(address)": {
        "details": "Emitted when the pause is lifted by `account`."
      },
      "Upgraded(address)": {
        "details": "Emitted when the implementation is upgraded."
      }
    },
    "kind": "dev",
    "methods": {
      "borrow(uint256)": {
        "details": "Users borrow ETH against their collateral."
      },
      "constructor": {
        "custom:oz-upgrades-unsafe-allow": "constructor"
      },
      "deposit()": {
        "details": "Users deposit ETH to act as collateral."
      },
      "getHealthFactor(address)": {
        "details": "Health Factor = (Collateral * Threshold) / Borrows. Scale: 1e18 = 1.0. Values < 1e18 are liquidatable."
      },
      "getRoleAdmin(bytes32)": {
        "details": "Returns the admin role that controls `role`. See {grantRole} and {revokeRole}. To change a role's admin, use {_setRoleAdmin}."
      },
      "grantRole(bytes32,address)": {
        "details": "Grants `role` to `account`. If `account` had not been already granted `role`, emits a {RoleGranted} event. Requirements: - the caller must have ``role``'s admin role. May emit a {RoleGranted} event."
      },
      "hasRole(bytes32,address)": {
        "details": "Returns `true` if `account` has been granted `role`."
      },
      "liquidate(address)": {
        "details": "Liquidation logic: Separation of Power. Only addresses with LIQUIDATOR_ROLE can call this."
      },
      "paused()": {
        "details": "Returns true if the contract is paused, and false otherwise."
      },
      "proxiableUUID()": {
        "details": "Implementation of the ERC1822 {proxiableUUID} function. This returns the storage slot used by the implementation. It is used to validate the implementation's compatibility when performing an upgrade. IMPORTANT: A proxy pointing at a proxiable contract should not be considered proxiable itself, because this risks bricking a proxy that upgrades to it, by delegating to itself until out of gas. Thus it is critical that this function revert if invoked through a proxy. This is guaranteed by the `notDelegated` modifier."
      },
      "renounceRole(bytes32,address)": {
        "details": "Revokes `role` from the calling account. Roles are often managed via {grantRole} and {revokeRole}: this function's purpose is to provide a mechanism for accounts to lose their privileges if they are compromised (such as when a trusted device is misplaced). If the calling account had been revoked `role`, emits a {RoleRevoked} event. Requirements: - the caller must be `callerConfirmation`. May emit a {RoleRevoked} event."
      },
      "repay()": {
        "details": "Users repay their debt to improve their Health Factor."
      },
      "revokeRole(bytes32,address)": {
        "details": "Revokes `role` from `account`. If `account` had been granted `role`, emits a {RoleRevoked} event. Requirements: - the caller must have ``role``'s admin role. May emit a {RoleRevoked} event."
      },
      "supportsInterface(bytes4)": {
        "details": "See {IERC165-supportsInterface}."
      },
      "upgradeToAndCall(address,bytes)": {
        "custom:oz-upgrades-unsafe-allow-reachable": "delegatecall",
        "details": "Upgrade the implementation of the proxy to `newImplementation`, and subsequently execute the function call encoded in `data`. Calls {_authorizeUpgrade}. Emits an {Upgraded} event."
      }
    },
    "title": "LendingPoolUpgradeable",
    "version": 1
  },
  "userdoc": {
    "kind": "user",
    "methods": {
      "borrow(uint256)": {
        "notice": "Enforces the 80% LTV rule."
      }
    },
    "version": 1
  }
}