{
  "contractName": "ReentrancyAttacker",
  "abi": [
    {
      "inputs": [
        {
          "internalType": "address",
          "name": "_target",
          "type": "address"
        }
      ],
      "stateMutability": "nonpayable",
      "type": "constructor"
    },
    {
      "inputs": [],
      "name": "target",
      "outputs": [
        {
          "internalType": "contract LendingPoolUpgradeable",
          "name": "",
          "type": "address"
        }
      ],
      "stateMutability": "view",
      "type": "function"
    },
    {
      "stateMutability": "payable",
      "type": "receive"
    },
    {
      "inputs": [],
      "name": "attack",
      "outputs": [],
      "stateMutability": "payable",
      "type": "function"
    }
  ],
  "bytecode": "0x608060405234801561000f575f80fd5b506040516104bc3803806104bc833981810160405281019061003191906100d4565b805f806101000a81548173ffffffffffffffffffffffffffffffffffffffff021916908373ffffffffffffffffffffffffffffffffffffffff160217905550506100ff565b5f80fd5b5f73ffffffffffffffffffffffffffffffffffffffff82169050919050565b5f6100a38261007a565b9050919050565b6100b381610099565b81146100bd575f80fd5b50565b5f815190506100ce816100aa565b92915050565b5f602082840312156100e9576100e8610076565b5b5f6100f6848285016100c0565b91505092915050565b6103b08061010c5f395ff3fe60806040526004361061002c575f3560e01c80639e5faafc1461010a578063d4b839921461011457610106565b3661010657670de0b6b3a76400005f8054906101000a900473ffffffffffffffffffffffffffffffffffffffff1673ffffffffffffffffffffffffffffffffffffffff163110610104575f8054906101000a900473ffffffffffffffffffffffffffffffffffffffff1673ffffffffffffffffffffffffffffffffffffffff1663c5ebeaec670de0b6b3a76400006040518263ffffffff1660e01b81526004016100d691906102af565b5f604051808303815f87803b1580156100ed575f80fd5b505af11580156100ff573d5f803e3d5ffd5b505050505b005b5f80fd5b61011261013e565b005b34801561011f575f80fd5b50610128610241565b6040516101359190610339565b60405180910390f35b5f8054906101000a900473ffffffffffffffffffffffffffffffffffffffff1673ffffffffffffffffffffffffffffffffffffffff1663d0e30db0346040518263ffffffff1660e01b81526004015f604051808303818588803b1580156101a3575f80fd5b505af11580156101b5573d5f803e3d5ffd5b50505050505f8054906101000a900473ffffffffffffffffffffffffffffffffffffffff1673ffffffffffffffffffffffffffffffffffffffff1663c5ebeaec346040518263ffffffff1660e01b81526004016102129190610361565b5f604051808303815f87803b158015610229575f80fd5b505af115801561023b573d5f803e3d5ffd5b50505050565b5f8054906101000a900473ffffffffffffffffffffffffffffffffffffffff1681565b5f819050919050565b5f819050919050565b5f819050919050565b5f61029961029461028f84610264565b610276565b61026d565b9050919050565b6102a98161027f565b82525050565b5f6020820190506102c25f8301846102a0565b92915050565b5f73ffffffffffffffffffffffffffffffffffffffff82169050919050565b5f6103016102fc6102f7846102c8565b610276565b6102c8565b9050919050565b5f610312826102e7565b9050919050565b5f61032382610308565b9050919050565b61033381610319565b82525050565b5f60208201905061034c5f83018461032a565b92915050565b61035b8161026d565b82525050565b5f6020820190506103745f830184610352565b9291505056fea26469706673582212204734b090062fbce19ca075d0d94cc9a4de12ff38b23d142f6fb1797191aa16f964736f6c63430008140033",
  "immutableReferences": {},
  "source": "// SPDX-License-Identifier: MIT\npragma solidity ^0.8.20;\n\nimport \"./LendingPoolUpgradeable.sol\";\n\ncontract ReentrancyAttacker {\n    LendingPoolUpgradeable public target;\n\n    constructor(address _target) {\n        target = LendingPoolUpgradeable(payable(_target));\n    }\n\n    // Trigger the attack\n    function attack() external payable {\n        target.deposit{value: msg.value}();\n        // This will fail because our pool uses ReentrancyGuardUpgradeable\n        target.borrow(msg.value); \n    }\n\n    // Fallback function for the attack loop\n    receive() external payable {\n        if (address(target).balance >= 1 ether) {\n            target.borrow(1 ether);\n        }\n    }\n}",
  "sourcePath": "D:\\Downloads\\Blockchain\\TY SEM2\\DeFiEnterprise\\blockchain\\contracts\\SecurityTest.sol",
  "compiler": {
    "name": "solc",
    "version": "0.8.20+commit.a1b79de6.Emscripten.clang"
  },
  "schemaVersion": "3.4.16",
  "updatedAt": "2026-03-29T05:30:25.568Z",
  "devdoc": {
    "kind": "dev",
    "methods": {},
    "version": 1
  },
  "userdoc": {
    "kind": "user",
    "methods": {},
    "version": 1
  }
}