{
  "contractName": "RollupBatcher",
  "abi": [
    {
      "inputs": [
        {
          "internalType": "address",
          "name": "admin",
          "type": "address"
        }
      ],
      "stateMutability": "nonpayable",
      "type": "constructor"
    },
    {
      "inputs": [],
      "name": "AccessControlBadConfirmation",
      "type": "error"
    },
    {
      "inputs": [
        {
          "internalType": "address",
          "name": "account",
          "type": "address"
        },
        {
          "internalType": "bytes32",
          "name": "neededRole",
          "type": "bytes32"
        }
      ],
      "name": "AccessControlUnauthorizedAccount",
      "type": "error"
    },
    {
      "anonymous": false,
      "inputs": [
        {
          "indexed": true,
          "internalType": "uint256",
          "name": "batchId",
          "type": "uint256"
        },
        {
          "indexed": false,
          "internalType": "uint256",
          "name": "txCount",
          "type": "uint256"
        },
        {
          "indexed": false,
          "internalType": "bytes32",
          "name": "stateRoot",
          "type": "bytes32"
        }
      ],
      "name": "BatchSubmitted",
      "type": "event"
    },
    {
      "anonymous": false,
      "inputs": [
        {
          "indexed": true,
          "internalType": "bytes32",
          "name": "role",
          "type": "bytes32"
        },
        {
          "indexed": true,
          "internalType": "bytes32",
          "name": "previousAdminRole",
          "type": "bytes32"
        },
        {
          "indexed": true,
          "internalType": "bytes32",
          "name": "newAdminRole",
          "type": "bytes32"
        }
      ],
      "name": "RoleAdminChanged",
      "type": "event"
    },
    {
      "anonymous": false,
      "inputs": [
        {
          "indexed": true,
          "internalType": "bytes32",
          "name": "role",
          "type": "bytes32"
        },
        {
          "indexed": true,
          "internalType": "address",
          "name": "account",
          "type": "address"
        },
        {
          "indexed": true,
          "internalType": "address",
          "name": "sender",
          "type": "address"
        }
      ],
      "name": "RoleGranted",
      "type": "event"
    },
    {
      "anonymous": false,
      "inputs": [
        {
          "indexed": true,
          "internalType": "bytes32",
          "name": "role",
          "type": "bytes32"
        },
        {
          "indexed": true,
          "internalType": "address",
          "name": "account",
          "type": "address"
        },
        {
          "indexed": true,
          "internalType": "address",
          "name": "sender",
          "type": "address"
        }
      ],
      "name": "RoleRevoked",
      "type": "event"
    },
    {
      "inputs": [],
      "name": "BATCH_SIZE_LIMIT",
      "outputs": [
        {
          "internalType": "uint256",
          "name": "",
          "type": "uint256"
        }
      ],
      "stateMutability": "view",
      "type": "function",
      "constant": true
    },
    {
      "inputs": [],
      "name": "DEFAULT_ADMIN_ROLE",
      "outputs": [
        {
          "internalType": "bytes32",
          "name": "",
          "type": "bytes32"
        }
      ],
      "stateMutability": "view",
      "type": "function",
      "constant": true
    },
    {
      "inputs": [],
      "name": "OPERATOR_ROLE",
      "outputs": [
        {
          "internalType": "bytes32",
          "name": "",
          "type": "bytes32"
        }
      ],
      "stateMutability": "view",
      "type": "function",
      "constant": true
    },
    {
      "inputs": [
        {
          "internalType": "uint256",
          "name": "",
          "type": "uint256"
        },
        {
          "internalType": "uint256",
          "name": "",
          "type": "uint256"
        }
      ],
      "name": "batches",
      "outputs": [
        {
          "internalType": "address",
          "name": "user",
          "type": "address"
        },
        {
          "internalType": "uint256",
          "name": "amount",
          "type": "uint256"
        },
        {
          "internalType": "string",
          "name": "action",
          "type": "string"
        },
        {
          "internalType": "uint256",
          "name": "timestamp",
          "type": "uint256"
        }
      ],
      "stateMutability": "view",
      "type": "function",
      "constant": true
    },
    {
      "inputs": [],
      "name": "currentBatchId",
      "outputs": [
        {
          "internalType": "uint256",
          "name": "",
          "type": "uint256"
        }
      ],
      "stateMutability": "view",
      "type": "function",
      "constant": true
    },
    {
      "inputs": [
        {
          "internalType": "bytes32",
          "name": "role",
          "type": "bytes32"
        }
      ],
      "name": "getRoleAdmin",
      "outputs": [
        {
          "internalType": "bytes32",
          "name": "",
          "type": "bytes32"
        }
      ],
      "stateMutability": "view",
      "type": "function",
      "constant": true
    },
    {
      "inputs": [
        {
          "internalType": "bytes32",
          "name": "role",
          "type": "bytes32"
        },
        {
          "internalType": "address",
          "name": "account",
          "type": "address"
        }
      ],
      "name": "grantRole",
      "outputs": [],
      "stateMutability": "nonpayable",
      "type": "function"
    },
    {
      "inputs": [
        {
          "internalType": "bytes32",
          "name": "role",
          "type": "bytes32"
        },
        {
          "internalType": "address",
          "name": "account",
          "type": "address"
        }
      ],
      "name": "hasRole",
      "outputs": [
        {
          "internalType": "bool",
          "name": "",
          "type": "bool"
        }
      ],
      "stateMutability": "view",
      "type": "function",
      "constant": true
    },
    {
      "inputs": [
        {
          "internalType": "bytes32",
          "name": "role",
          "type": "bytes32"
        },
        {
          "internalType": "address",
          "name": "callerConfirmation",
          "type": "address"
        }
      ],
      "name": "renounceRole",
      "outputs": [],
      "stateMutability": "nonpayable",
      "type": "function"
    },
    {
      "inputs": [
        {
          "internalType": "bytes32",
          "name": "role",
          "type": "bytes32"
        },
        {
          "internalType": "address",
          "name": "account",
          "type": "address"
        }
      ],
      "name": "revokeRole",
      "outputs": [],
      "stateMutability": "nonpayable",
      "type": "function"
    },
    {
      "inputs": [
        {
          "internalType": "bytes4",
          "name": "interfaceId",
          "type": "bytes4"
        }
      ],
      "name": "supportsInterface",
      "outputs": [
        {
          "internalType": "bool",
          "name": "",
          "type": "bool"
        }
      ],
      "stateMutability": "view",
      "type": "function",
      "constant": true
    },
    {
      "inputs": [
        {
          "internalType": "uint256",
          "name": "_amount",
          "type": "uint256"
        },
        {
          "internalType": "string",
          "name": "_action",
          "type": "string"
        }
      ],
      "name": "submitTransaction",
      "outputs": [],
      "stateMutability": "nonpayable",
      "type": "function"
    },
    {
      "inputs": [
        {
          "internalType": "uint256",
          "name": "_batchId",
          "type": "uint256"
        }
      ],
      "name": "getBatch",
      "outputs": [
        {
          "components": [
            {
              "internalType": "address",
              "name": "user",
              "type": "address"
            },
            {
              "internalType": "uint256",
              "name": "amount",
              "type": "uint256"
            },
            {
              "internalType": "string",
              "name": "action",
              "type": "string"
            },
            {
              "internalType": "uint256",
              "name": "timestamp",
              "type": "uint256"
            }
          ],
          "internalType": "struct RollupBatcher.Transaction[]",
          "name": "",
          "type": "tuple[]"
        }
      ],
      "stateMutability": "view",
      "type": "function",
      "constant": true
    }
  ],
  "bytecode": "0x608060405234801562000010575f80fd5b506040516200181d3803806200181d83398181016040528101906200003691906200024f565b6200004a5f801b826200008560201b60201c565b506200007d7f97667070c54ef182b0f5858b034beac1b6f3089aa2d3188bb1e8929f4fa9b929826200008560201b60201c565b50506200027f565b5f6200009883836200018060201b60201c565b620001765760015f808581526020019081526020015f205f015f8473ffffffffffffffffffffffffffffffffffffffff1673ffffffffffffffffffffffffffffffffffffffff1681526020019081526020015f205f6101000a81548160ff02191690831515021790555062000112620001e360201b60201c565b73ffffffffffffffffffffffffffffffffffffffff168273ffffffffffffffffffffffffffffffffffffffff16847f2f8788117e7eff1d82e926ec794901d17c78024a50270940304540a733656f0d60405160405180910390a4600190506200017a565b5f90505b92915050565b5f805f8481526020019081526020015f205f015f8373ffffffffffffffffffffffffffffffffffffffff1673ffffffffffffffffffffffffffffffffffffffff1681526020019081526020015f205f9054906101000a900460ff16905092915050565b5f33905090565b5f80fd5b5f73ffffffffffffffffffffffffffffffffffffffff82169050919050565b5f6200021982620001ee565b9050919050565b6200022b816200020d565b811462000236575f80fd5b50565b5f81519050620002498162000220565b92915050565b5f60208284031215620002675762000266620001ea565b5b5f620002768482850162000239565b91505092915050565b611590806200028d5f395ff3fe608060405234801561000f575f80fd5b50600436106100cd575f3560e01c80635ac442821161008a578063a217fddf11610064578063a217fddf14610236578063ad59db6514610254578063d547741f14610272578063f5b541a61461028e576100cd565b80635ac44282146101a35780635d47964b146101d357806391d1485414610206576100cd565b806301ffc9a7146100d15780630a763da114610101578063248a9ca31461011f5780632a3e47f81461014f5780632f2ff15d1461016b57806336568abe14610187575b5f80fd5b6100eb60048036038101906100e69190610bd5565b6102ac565b6040516100f89190610c1a565b60405180910390f35b610109610325565b6040516101169190610c4b565b60405180910390f35b61013960048036038101906101349190610c97565b61032b565b6040516101469190610cd1565b60405180910390f35b61016960048036038101906101649190610d75565b610347565b005b61018560048036038101906101809190610e2c565b610496565b005b6101a1600480360381019061019c9190610e2c565b6104b8565b005b6101bd60048036038101906101b89190610e6a565b610533565b6040516101ca9190611058565b60405180910390f35b6101ed60048036038101906101e89190611078565b610698565b6040516101fd949392919061110d565b60405180910390f35b610220600480360381019061021b9190610e2c565b610783565b60405161022d9190610c1a565b60405180910390f35b61023e6107e6565b60405161024b9190610cd1565b60405180910390f35b61025c6107ec565b6040516102699190610c4b565b60405180910390f35b61028c60048036038101906102879190610e2c565b6107f1565b005b610296610813565b6040516102a39190610cd1565b60405180910390f35b5f7f7965db0b000000000000000000000000000000000000000000000000000000007bffffffffffffffffffffffffffffffffffffffffffffffffffffffff1916827bffffffffffffffffffffffffffffffffffffffffffffffffffffffff1916148061031e575061031d82610837565b5b9050919050565b60025481565b5f805f8381526020019081526020015f20600101549050919050565b60015f60025481526020019081526020015f2060405180608001604052803373ffffffffffffffffffffffffffffffffffffffff16815260200185815260200184848080601f0160208091040260200160405190810160405280939291908181526020018383808284375f81840152601f19601f82011690508083019250505050505050815260200142815250908060018154018082558091505060019003905f5260205f2090600402015f909190919091505f820151815f015f6101000a81548173ffffffffffffffffffffffffffffffffffffffff021916908373ffffffffffffffffffffffffffffffffffffffff16021790555060208201518160010155604082015181600201908161045d919061137e565b50606082015181600301555050600a60015f60025481526020019081526020015f208054905010610491576104906108a0565b5b505050565b61049f8261032b565b6104a88161093a565b6104b2838361094e565b50505050565b6104c0610a37565b73ffffffffffffffffffffffffffffffffffffffff168173ffffffffffffffffffffffffffffffffffffffff1614610524576040517f6697b23200000000000000000000000000000000000000000000000000000000815260040160405180910390fd5b61052e8282610a3e565b505050565b606060015f8381526020019081526020015f20805480602002602001604051908101604052809291908181526020015f905b8282101561068d578382905f5260205f2090600402016040518060800160405290815f82015f9054906101000a900473ffffffffffffffffffffffffffffffffffffffff1673ffffffffffffffffffffffffffffffffffffffff1673ffffffffffffffffffffffffffffffffffffffff168152602001600182015481526020016002820180546105f4906111b1565b80601f0160208091040260200160405190810160405280929190818152602001828054610620906111b1565b801561066b5780601f106106425761010080835404028352916020019161066b565b820191905f5260205f20905b81548152906001019060200180831161064e57829003601f168201915b5050505050815260200160038201548152505081526020019060010190610565565b505050509050919050565b6001602052815f5260405f2081815481106106b1575f80fd5b905f5260205f2090600402015f9150915050805f015f9054906101000a900473ffffffffffffffffffffffffffffffffffffffff16908060010154908060020180546106fc906111b1565b80601f0160208091040260200160405190810160405280929190818152602001828054610728906111b1565b80156107735780601f1061074a57610100808354040283529160200191610773565b820191905f5260205f20905b81548152906001019060200180831161075657829003601f168201915b5050505050908060030154905084565b5f805f8481526020019081526020015f205f015f8373ffffffffffffffffffffffffffffffffffffffff1673ffffffffffffffffffffffffffffffffffffffff1681526020019081526020015f205f9054906101000a900460ff16905092915050565b5f801b81565b600a81565b6107fa8261032b565b6108038161093a565b61080d8383610a3e565b50505050565b7f97667070c54ef182b0f5858b034beac1b6f3089aa2d3188bb1e8929f4fa9b92981565b5f7f01ffc9a7000000000000000000000000000000000000000000000000000000007bffffffffffffffffffffffffffffffffffffffffffffffffffffffff1916827bffffffffffffffffffffffffffffffffffffffffffffffffffffffff1916149050919050565b5f600254426040516020016108b692919061146d565b6040516020818303038152906040528051906020012090506002547f2552c608cf6532321fcbf5d4b402c02e869464d194297f85b30fad3b108584d360015f60025481526020019081526020015f208054905083604051610918929190611498565b60405180910390a260025f815480929190610932906114ec565b919050555050565b61094b81610946610a37565b610b27565b50565b5f6109598383610783565b610a2d5760015f808581526020019081526020015f205f015f8473ffffffffffffffffffffffffffffffffffffffff1673ffffffffffffffffffffffffffffffffffffffff1681526020019081526020015f205f6101000a81548160ff0219169083151502179055506109ca610a37565b73ffffffffffffffffffffffffffffffffffffffff168273ffffffffffffffffffffffffffffffffffffffff16847f2f8788117e7eff1d82e926ec794901d17c78024a50270940304540a733656f0d60405160405180910390a460019050610a31565b5f90505b92915050565b5f33905090565b5f610a498383610783565b15610b1d575f805f8581526020019081526020015f205f015f8473ffffffffffffffffffffffffffffffffffffffff1673ffffffffffffffffffffffffffffffffffffffff1681526020019081526020015f205f6101000a81548160ff021916908315150217905550610aba610a37565b73ffffffffffffffffffffffffffffffffffffffff168273ffffffffffffffffffffffffffffffffffffffff16847ff6391f5c32d9c69d2a47ea670b442974b53935d1edc7fd64eb21e047a839171b60405160405180910390a460019050610b21565b5f90505b92915050565b610b318282610783565b610b745780826040517fe2517d3f000000000000000000000000000000000000000000000000000000008152600401610b6b929190611533565b60405180910390fd5b5050565b5f80fd5b5f80fd5b5f7fffffffff0000000000000000000000000000000000000000000000000000000082169050919050565b610bb481610b80565b8114610bbe575f80fd5b50565b5f81359050610bcf81610bab565b92915050565b5f60208284031215610bea57610be9610b78565b5b5f610bf784828501610bc1565b91505092915050565b5f8115159050919050565b610c1481610c00565b82525050565b5f602082019050610c2d5f830184610c0b565b92915050565b5f819050919050565b610c4581610c33565b82525050565b5f602082019050610c5e5f830184610c3c565b92915050565b5f819050919050565b610c7681610c64565b8114610c80575f80fd5b50565b5f81359050610c9181610c6d565b92915050565b5f60208284031215610cac57610cab610b78565b5b5f610cb984828501610c83565b91505092915050565b610ccb81610c64565b82525050565b5f602082019050610ce45f830184610cc2565b92915050565b610cf381610c33565b8114610cfd575f80fd5b50565b5f81359050610d0e81610cea565b92915050565b5f80fd5b5f80fd5b5f80fd5b5f8083601f840112610d3557610d34610d14565b5b8235905067ffffffffffffffff811115610d5257610d51610d18565b5b602083019150836001820283011115610d6e57610d6d610d1c565b5b9250929050565b5f805f60408486031215610d8c57610d8b610b78565b5b5f610d9986828701610d00565b935050602084013567ffffffffffffffff811115610dba57610db9610b7c565b5b610dc686828701610d20565b92509250509250925092565b5f73ffffffffffffffffffffffffffffffffffffffff82169050919050565b5f610dfb82610dd2565b9050919050565b610e0b81610df1565b8114610e15575f80fd5b50565b5f81359050610e2681610e02565b92915050565b5f8060408385031215610e4257610e41610b78565b5b5f610e4f85828601610c83565b9250506020610e6085828601610e18565b9150509250929050565b5f60208284031215610e7f57610e7e610b78565b5b5f610e8c84828501610d00565b91505092915050565b5f81519050919050565b5f82825260208201905092915050565b5f819050602082019050919050565b610ec781610df1565b82525050565b610ed681610c33565b82525050565b5f81519050919050565b5f82825260208201905092915050565b5f5b83811015610f13578082015181840152602081019050610ef8565b5f8484015250505050565b5f601f19601f8301169050919050565b5f610f3882610edc565b610f428185610ee6565b9350610f52818560208601610ef6565b610f5b81610f1e565b840191505092915050565b5f608083015f830151610f7b5f860182610ebe565b506020830151610f8e6020860182610ecd565b5060408301518482036040860152610fa68282610f2e565b9150506060830151610fbb6060860182610ecd565b508091505092915050565b5f610fd18383610f66565b905092915050565b5f602082019050919050565b5f610fef82610e95565b610ff98185610e9f565b93508360208202850161100b85610eaf565b805f5b8581101561104657848403895281516110278582610fc6565b945061103283610fd9565b925060208a0199505060018101905061100e565b50829750879550505050505092915050565b5f6020820190508181035f8301526110708184610fe5565b905092915050565b5f806040838503121561108e5761108d610b78565b5b5f61109b85828601610d00565b92505060206110ac85828601610d00565b9150509250929050565b6110bf81610df1565b82525050565b5f82825260208201905092915050565b5f6110df82610edc565b6110e981856110c5565b93506110f9818560208601610ef6565b61110281610f1e565b840191505092915050565b5f6080820190506111205f8301876110b6565b61112d6020830186610c3c565b818103604083015261113f81856110d5565b905061114e6060830184610c3c565b95945050505050565b7f4e487b71000000000000000000000000000000000000000000000000000000005f52604160045260245ffd5b7f4e487b71000000000000000000000000000000000000000000000000000000005f52602260045260245ffd5b5f60028204905060018216806111c857607f821691505b6020821081036111db576111da611184565b5b50919050565b5f819050815f5260205f209050919050565b5f6020601f8301049050919050565b5f82821b905092915050565b5f6008830261123d7fffffffffffffffffffffffffffffffffffffffffffffffffffffffffffffffff82611202565b6112478683611202565b95508019841693508086168417925050509392505050565b5f819050919050565b5f61128261127d61127884610c33565b61125f565b610c33565b9050919050565b5f819050919050565b61129b83611268565b6112af6112a782611289565b84845461120e565b825550505050565b5f90565b6112c36112b7565b6112ce818484611292565b505050565b5b818110156112f1576112e65f826112bb565b6001810190506112d4565b5050565b601f82111561133657611307816111e1565b611310846111f3565b8101602085101561131f578190505b61133361132b856111f3565b8301826112d3565b50505b505050565b5f82821c905092915050565b5f6113565f198460080261133b565b1980831691505092915050565b5f61136e8383611347565b9150826002028217905092915050565b61138782610edc565b67ffffffffffffffff8111156113a05761139f611157565b5b6113aa82546111b1565b6113b58282856112f5565b5f60209050601f8311600181146113e6575f84156113d4578287015190505b6113de8582611363565b865550611445565b601f1984166113f4866111e1565b5f5b8281101561141b578489015182556001820191506020850194506020810190506113f6565b868310156114385784890151611434601f891682611347565b8355505b6001600288020188555050505b505050505050565b5f819050919050565b61146761146282610c33565b61144d565b82525050565b5f6114788285611456565b6020820191506114888284611456565b6020820191508190509392505050565b5f6040820190506114ab5f830185610c3c565b6114b86020830184610cc2565b9392505050565b7f4e487b71000000000000000000000000000000000000000000000000000000005f52601160045260245ffd5b5f6114f682610c33565b91507fffffffffffffffffffffffffffffffffffffffffffffffffffffffffffffffff8203611528576115276114bf565b5b600182019050919050565b5f6040820190506115465f8301856110b6565b6115536020830184610cc2565b939250505056fea2646970667358221220992df5220e5002cc8a808e471ca81d2abd507a3e0fb05625315c404b3dbca6a464736f6c63430008140033",
  "immutableReferences": {},
  "source": "// SPDX-License-Identifier: MIT\npragma solidity ^0.8.20;\n\nimport \"@openzeppelin/contracts/access/AccessControl.sol\";\n\n/**\n * @title RollupBatcher\n * @dev Implements Layer-2 style transaction batching to reduce L1 gas costs.\n * Used by: Lenders and Borrowers for high-frequency micro-transactions.\n */\ncontract RollupBatcher is AccessControl {\n    bytes32 public constant OPERATOR_ROLE = keccak256(\"OPERATOR_ROLE\");\n\n    struct Transaction {\n        address user;\n        uint256 amount;\n        string action; // \"DEPOSIT\" or \"REPAY\"\n        uint256 timestamp;\n    }\n\n    mapping(uint256 => Transaction[]) public batches;\n    uint256 public currentBatchId;\n    uint256 public constant BATCH_SIZE_LIMIT = 10;\n\n    event BatchSubmitted(uint256 indexed batchId, uint256 txCount, bytes32 stateRoot);\n\n    constructor(address admin) {\n        _grantRole(DEFAULT_ADMIN_ROLE, admin);\n        _grantRole(OPERATOR_ROLE, admin);\n    }\n\n    function submitTransaction(uint256 _amount, string calldata _action) external {\n        batches[currentBatchId].push(Transaction({\n            user: msg.sender,\n            amount: _amount,\n            action: _action,\n            timestamp: block.timestamp\n        }));\n\n        if (batches[currentBatchId].length >= BATCH_SIZE_LIMIT) {\n            _finalizeBatch();\n        }\n    }\n\n    function _finalizeBatch() internal {\n        bytes32 mockStateRoot = keccak256(abi.encodePacked(currentBatchId, block.timestamp));\n        emit BatchSubmitted(currentBatchId, batches[currentBatchId].length, mockStateRoot);\n        currentBatchId++;\n    }\n\n    function getBatch(uint256 _batchId) external view returns (Transaction[] memory) {\n        return batches[_batchId];\n    }\n}",
  "sourcePath": "D:\\Downloads\\Blockchain\\TY SEM2\\DeFiEnterprise\\blockchain\\contracts\\RollupBatcher.sol",
  "compiler": {
    "name": "solc",
    "version": "0.8.20+commit.a1b79de6.Emscripten.clang"
  },
  "schemaVersion": "3.4.16",
  "updatedAt": "2026-03-30T06:25:46.871Z",
  "networkType": "ethereum",
  "devdoc": {
    "details": "Implements Layer-2 style transaction batching to reduce L1 gas costs. Used by: Lenders and Borrowers for high-frequency micro-transactions.",
    "errors": {
      "AccessControlBadConfirmation()": [
        {
          "details": "The caller of a function is not the expected one. NOTE: Don't confuse with {AccessControlUnauthorizedAccount}."
        }
      ],
      "AccessControlUnauthorizedAccount(address,bytes32)": [
        {
          "details": "The `account` is missing a role."
        }
      ]
    },
    "events": {
      "RoleAdminChanged(bytes32,bytes32,bytes32)": {
        "details": "Emitted when `newAdminRole` is set as ``role``'s admin role, replacing `previousAdminRole` `DEFAULT_ADMIN_ROLE` is the starting admin for all roles, despite {RoleAdminChanged} not being emitted signaling this."
      },
      "RoleGranted(bytes32,address,address)": {
        "details": "Emitted when `account` is granted `role`. `sender` is the account that originated the contract call, an admin role bearer except when using {AccessControl-_setupRole}."
      },
      "RoleRevoked(bytes32,address,address)": {
        "details": "Emitted when `account` is revoked `role`. `sender` is the account that originated the contract call:   - if using `revokeRole`, it is the admin role bearer   - if using `renounceRole`, it is the role bearer (i.e. `account`)"
      }
    },
    "kind": "dev",
    "methods": {
      "getRoleAdmin(bytes32)": {
        "details": "Returns the admin role that controls `role`. See {grantRole} and {revokeRole}. To change a role's admin, use {_setRoleAdmin}."
      },
      "grantRole(bytes32,address)": {
        "details": "Grants `role` to `account`. If `account` had not been already granted `role`, emits a {RoleGranted} event. Requirements: - the caller must have ``role``'s admin role. May emit a {RoleGranted} event."
      },
      "hasRole(bytes32,address)": {
        "details": "Returns `true` if `account` has been granted `role`."
      },
      "renounceRole(bytes32,address)": {
        "details": "Revokes `role` from the calling account. Roles are often managed via {grantRole} and {revokeRole}: this function's purpose is to provide a mechanism for accounts to lose their privileges if they are compromised (such as when a trusted device is misplaced). If the calling account had been revoked `role`, emits a {RoleRevoked} event. Requirements: - the caller must be `callerConfirmation`. May emit a {RoleRevoked} event."
      },
      "revokeRole(bytes32,address)": {
        "details": "Revokes `role` from `account`. If `account` had been granted `role`, emits a {RoleRevoked} event. Requirements: - the caller must have ``role``'s admin role. May emit a {RoleRevoked} event."
      },
      "supportsInterface(bytes4)": {
        "details": "See {IERC165-supportsInterface}."
      }
    },
    "title": "RollupBatcher",
    "version": 1
  },
  "userdoc": {
    "kind": "user",
    "methods": {},
    "version": 1
  }
}