{
  "contractName": "ZKVerifier",
  "abi": [
    {
      "anonymous": false,
      "inputs": [
        {
          "indexed": true,
          "internalType": "address",
          "name": "user",
          "type": "address"
        },
        {
          "indexed": false,
          "internalType": "bool",
          "name": "result",
          "type": "bool"
        }
      ],
      "name": "IdentityVerified",
      "type": "event"
    },
    {
      "inputs": [
        {
          "internalType": "uint256[2]",
          "name": "",
          "type": "uint256[2]"
        },
        {
          "internalType": "uint256[2][2]",
          "name": "",
          "type": "uint256[2][2]"
        },
        {
          "internalType": "uint256[2]",
          "name": "",
          "type": "uint256[2]"
        },
        {
          "internalType": "uint256[1]",
          "name": "input",
          "type": "uint256[1]"
        }
      ],
      "name": "verifyCreditProof",
      "outputs": [
        {
          "internalType": "bool",
          "name": "",
          "type": "bool"
        }
      ],
      "stateMutability": "nonpayable",
      "type": "function"
    }
  ],
  "bytecode": "0x608060405234801561000f575f80fd5b506104ac8061001d5f395ff3fe608060405234801561000f575f80fd5b5060043610610029575f3560e01c80634d74d7ec1461002d575b5f80fd5b610047600480360381019061004291906103b0565b61005d565b6040516100549190610430565b60405180910390f35b5f806001835f6001811061007457610073610449565b5b60200201511490503373ffffffffffffffffffffffffffffffffffffffff167f61864590ac01b95e445535ed8623c869a900dad8074ee5e303f700ec878817c2826040516100c29190610430565b60405180910390a280915050949350505050565b5f604051905090565b5f80fd5b5f80fd5b5f601f19601f8301169050919050565b7f4e487b71000000000000000000000000000000000000000000000000000000005f52604160045260245ffd5b61012d826100e7565b810181811067ffffffffffffffff8211171561014c5761014b6100f7565b5b80604052505050565b5f61015e6100d6565b905061016a8282610124565b919050565b5f67ffffffffffffffff821115610189576101886100f7565b5b602082029050919050565b5f80fd5b5f819050919050565b6101aa81610198565b81146101b4575f80fd5b50565b5f813590506101c5816101a1565b92915050565b5f6101dd6101d88461016f565b610155565b905080602084028301858111156101f7576101f6610194565b5b835b81811015610220578061020c88826101b7565b8452602084019350506020810190506101f9565b5050509392505050565b5f82601f83011261023e5761023d6100e3565b5b600261024b8482856101cb565b91505092915050565b5f67ffffffffffffffff82111561026e5761026d6100f7565b5b602082029050919050565b5f61028b61028684610254565b610155565b905080604084028301858111156102a5576102a4610194565b5b835b818110156102ce57806102ba888261022a565b8452602084019350506040810190506102a7565b5050509392505050565b5f82601f8301126102ec576102eb6100e3565b5b60026102f9848285610279565b91505092915050565b5f67ffffffffffffffff82111561031c5761031b6100f7565b5b602082029050919050565b5f61033961033484610302565b610155565b9050806020840283018581111561035357610352610194565b5b835b8181101561037c578061036888826101b7565b845260208401935050602081019050610355565b5050509392505050565b5f82601f83011261039a576103996100e3565b5b60016103a7848285610327565b91505092915050565b5f805f8061012085870312156103c9576103c86100df565b5b5f6103d68782880161022a565b94505060406103e7878288016102d8565b93505060c06103f88782880161022a565b92505061010061040a87828801610386565b91505092959194509250565b5f8115159050919050565b61042a81610416565b82525050565b5f6020820190506104435f830184610421565b92915050565b7f4e487b71000000000000000000000000000000000000000000000000000000005f52603260045260245ffdfea264697066735822122068807e6579892c04ae77c67b5212e09b90f7d51a35ac5533ad4cc4134d0afac164736f6c63430008140033",
  "immutableReferences": {},
  "source": "// SPDX-License-Identifier: MIT\npragma solidity ^0.8.20;\n\n/**\n * @title ZKVerifier\n * @dev Simulated zk-SNARK verifier for \"Privacy-Preserving Credit Scores\".\n */\ncontract ZKVerifier {\n    event IdentityVerified(address indexed user, bool result);\n\n    /**\n     * @dev Simulation logic for proof verification.\n     * Parameters a, b, c are commented out to prevent compiler warnings in this simulation.\n     */\n    function verifyCreditProof(\n        uint256[2] memory /* a */,\n        uint256[2][2] memory /* b */,\n        uint256[2] memory /* c */,\n        uint256[1] memory input\n    ) public returns (bool) {\n        // Simulation logic: In a real scenario, this involves complex pairing checks.\n        // For this project, we verify the public signal 'input'.\n        bool isValid = (input[0] == 1); // 1 = Proof of high credit verified\n        \n        emit IdentityVerified(msg.sender, isValid);\n        return isValid;\n    }\n}",
  "sourcePath": "D:\\Downloads\\Blockchain\\TY SEM2\\DeFiEnterprise\\blockchain\\contracts\\ZKVerifier.sol",
  "compiler": {
    "name": "solc",
    "version": "0.8.20+commit.a1b79de6.Emscripten.clang"
  },
  "schemaVersion": "3.4.16",
  "updatedAt": "2026-03-30T06:25:46.932Z",
  "networkType": "ethereum",
  "devdoc": {
    "details": "Simulated zk-SNARK verifier for \"Privacy-Preserving Credit Scores\".",
    "kind": "dev",
    "methods": {
      "verifyCreditProof(uint256[2],uint256[2][2],uint256[2],uint256[1])": {
        "details": "Simulation logic for proof verification. Parameters a, b, c are commented out to prevent compiler warnings in this simulation."
      }
    },
    "title": "ZKVerifier",
    "version": 1
  },
  "userdoc": {
    "kind": "user",
    "methods": {},
    "version": 1
  }
}